:020000040800F2
:10000000F8270020C9010008D10100083D3300088D
:10001000D5010008D7010008D90100080000000040
:10002000000000000000000000000000DB010008EC
:10003000DD01000800000000DF0100085D64000829
:10004000E301000831590008E3010008E30100085A
:10005000E3010008E3010008E3010008E3010008F0
:10006000E3010008C92D0008DD2D0008510E00082D
:10007000E3010008E3010008E3010008E3010008D0
:10008000E3010008E3010008E3010008E3010008C0
:10009000E3010008E3010008E3010008F12D000876
:1000A000E3010008E3010008E3010008E3010008A0
:1000B000E3010008E301000841670008E3010008CC
:1000C000E3010008E3010008E3010008E301000880
:1000D000E3010008E3010008E3010008E301000870
:1000E000B12D0008E3010008E301000800F002F868
:1000F00000F05AF80AA090E8000C82448344AAF168
:100100000107DA4501D100F04FF8AFF2090EBAE865
:100110000F0013F0010F18BFFB1A43F0010318473B
:100120003CEC00005CEC00000A444FF0000C10F8BE
:10013000013B13F0070408BF10F8014B1D1108BF65
:1001400010F8015B641E05D010F8016B641E01F805
:10015000016BF9D113F0080F1EBF10F8014BAD1C55
:100160000C1B09D16D1E58BF01F801CBFAD505E073
:1001700014F8016B01F8016B6D1EF9D59142D6D3CD
:10018000704700000023002400250026103A28BFF5
:1001900078C1FBD8520728BF30C148BF0B607047F9
:1001A0001FB51FBD10B510BD00F088F91146FFF74F
:1001B000F7FF08F093FD00F0A6F903B4FFF7F2FF94
:1001C00003BC00F0A9F9000009488047094800472E
:1001D000FEE7FEE7FEE7FEE7FEE7FEE7FEE7FEE7F7
:1001E000FEE7FEE704480549054A064B7047000054
:1001F00021660008ED000008F8210020F827002003
:10020000F8230020F8230020002800DA404270473D
:10021000032A40F2308010F0030C00F0158011F832
:10022000013BBCF1020F624498BF11F801CB00F80A
:10023000013B38BF11F8013BA2F1040298BF00F85E
:1002400001CB38BF00F8013B11F0030300F06780D9
:10025000083AC0F0088051F8043B083A51F804CB42
:10026000A0E80810F5E7121D5CBF51F8043B40F808
:10027000043BAFF30080D20724BF11F8013B11F813
:1002800001CB48BF11F8012B24BF00F8013B00F857
:1002900001CB48BF00F8012B7047431A28BF9A4290
:1002A0007FF6B6AF10441144032A40F2268010F0C6
:1002B000030F1EBF11F8013D521E00F8013D10F062
:1002C000030F7FF4F6AF11F0030300F0C480083A87
:1002D000C0F00B8051F8043D083A51F804CD40F8C5
:1002E000043D40F804CDFFF7F3BF121D5CBF51F889
:1002F000043D40F8043DAFF30080D20724BF11F85D
:10030000013D11F801CD48BF11F8012C24BF00F8C0
:10031000013D00F801CD48BF00F8012C704710B531
:10032000203AC0F00B80B1E81850A0E81850B1E8AE
:100330001850A0E81850203ABFF4F5AF5FEA027CED
:1003400024BFB1E81850A0E8185044BF18C918C01D
:10035000BDE810405FEA827C24BF51F8043B40F8BE
:10036000043B08BF7047D20728BF31F8023B48BFA3
:1003700011F8012B28BF20F8023B48BF00F8012BE1
:1003800070474FF000020429C0F0128010F0030CF7
:1003900000F01B80CCF1040CBCF1020F18BF00F878
:1003A000012BA8BF20F8022BA1EB0C0100F00DB827
:1003B0005FEAC17C24BF00F8012B00F8012B48BF85
:1003C00000F8012B70474FF0000200B51346944629
:1003D0009646203922BFA0E80C50A0E80C50B1F19D
:1003E0002001BFF4F7AF090728BFA0E80C5048BFB1
:1003F0000CC05DF804EB890028BF40F8042B08BF4F
:10040000704748BF20F8022B11F0804F18BF00F84A
:10041000012B704770477047704710B500F046F8E1
:10042000006810BD10B5044600F040F8046010BD2F
:10043000431A28BF9A427FF672AF1044114410F05D
:10044000030F1EBF11F8013D521E00F8013D10F0D0
:10045000030F7FF4F6AF103AC0F00A8010B531E90F
:10046000185020E91850103ABFF4F9AFBDE8104019
:10047000530724BF31E9081020E9081044BF51F8A0
:10048000043D40F8043D12F0030F08BF7047D20747
:1004900028BF31F8023D48BF11F8012C28BF20F8D1
:1004A000023D48BF00F8012C70470000004870472B
:1004B000A001002000487047A00100207546FFF70A
:1004C000F9FFAE4605006946534620F00700854611
:1004D00018B020B5FFF786FEBDE820404FF00006BB
:1004E0004FF000074FF000084FF0000BAC46ACE8AF
:1004F000C009ACE8C009ACE8C009ACE8C00921F00B
:1005000007018D46704710B50446AFF300802046C2
:10051000BDE81040FFF751BE01491820ABBEFEE711
:10052000260002007047000080B584B041F2180137
:10053000C4F20201086840F4C060086041F214018E
:10054000C4F20201086840F00100086041F20401B1
:10055000C4F20201086840F4404008601021C4F26F
:10056000020142F24C40C4F20100086040F2142043
:10057000C2F200001421C4F2020108600C21C4F28E
:100580000201102008600821C4F20201086840F648
:10059000A62210430860086840F0010008600B20A4
:1005A0000090002106F078FB009806F05DFB42F217
:1005B0000841C4F201010391086840F0010008609D
:1005C0000A20019008F044FA019842F60802C4F2A9
:1005D00001020292116841F00101116008F038FA3D
:1005E000029A039942F23443C4F2010304201860D2
:1005F000086840F20313C0F21E031843086042F279
:100600000443C4F20103186840F40030186018680D
:1006100040F48020186042F21043C4F201031868CD
:1006200020F4E0401860186840F400501860186822
:1006300040F48050186042F63403C4F201030720EE
:10064000186010680323C0F21E0318431060086886
:1006500040F004000860FFE742F20840C4F20100E5
:1006600000684007002801D5FFE7F5E742F60801DA
:10067000C4F20101086840F004000860FFE742F698
:100680000800C4F2010000684007002801D5FFE718
:10069000F5E704B080BD000080B586B08DF8170086
:1006A0009DF81700013801460491072800F2AE803A
:1006B0000499DFE801F0041A32484977949540F232
:1006C0002000C2F2000003684068694600228A6088
:1006D0004FF4FC624A6008604EF22952C0F60002F4
:1006E0001E21084604F0A4F891E042F2F510C2F28F
:1006F0000000007838B1FFE742F2F511C2F20001C4
:100700000020087006E042F2F511C2F2000101205B
:100710000870FFE705F0D2FD79E040F22000C2F258
:10072000000003684068694600228A604FF4FC625A
:100730004A6008604EF23652C0F600021E2108469A
:1007400004F076F863E062E041F2A450C2F20000E7
:100750000078C00728BBFFE740F21810C2F2000083
:1007600090F8700058B1FFE740F21810C2F2000094
:1007700090F86F1000EB8101086BC8600AE040F24E
:100780001810C2F2000090F86F1000EB8101C868E9
:100790000863FFE705F0ACFA05F0EEFD05F0F8FCA4
:1007A000FFE734E041F2A450C2F200000078C00735
:1007B00048B9FFE741F2A451C2F2000101200870DC
:1007C00004F032FA0AE041F2A451C2F20001002022
:1007D000087005F00FFC05F0CFFDFFE717E016E00D
:1007E00040F22000C2F2000003684068694600221F
:1007F0008A604FF4FC624A6008604EF24352C0F6D1
:1008000000021E21084604F013F800E0FFE706B0DE
:1008100080BD000080B586B08DF817009DF81700E8
:10082000013801460491072800F2BB810499DFE8F2
:1008300011F008001E006300C800F80020012F011D
:100840005F0140F22000C2F2000003684068694680
:1008500000228A604FF4FC624A6008604EF21C522B
:10086000C0F600021E21084603F0E2FF9AE140F2C2
:100870001810C2F20000B0F87200014603910A2875
:1008800019D0FFE7039864280DD0FFE70398B0F56F
:100890007A7F18D1FFE740F21811C2F200016420FC
:1008A000A1F8720018E040F21811C2F200010A200B
:1008B000A1F8720010E040F21811C2F2000101200C
:1008C000A1F8720008E040F21811C2F200014FF4E2
:1008D0007A70A1F87200FFE740F21810C2F200002F
:1008E000B0F8720041F2A451C2F20001097801F09F
:1008F000010105F0C7FB55E140F2FE00C2F2000025
:100900000078032808DCFFE740F2FE01C2F2000194
:1009100008780130087006E040F2FE01C2F20001E2
:1009200000200870FFE740F21810C2F2000090F8B3
:10093000700078B9FFE740F2FE00C2F200000078D4
:1009400040F21811C2F2000191F86F20114481F8B1
:100950005D00FFE740F21810C2F2000090F870004E
:1009600001280FD1FFE740F2FE00C2F2000000783C
:1009700040F21811C2F2000191F86F20114481F881
:100980006600FFE740F2FE00C2F20000017840F28C
:10099000EC00C2F2000030F8110009F0C3FF41F290
:1009A0002152C2F200024EF20061C4F2AA6100F0CC
:1009B000FBF841F22051C2F20001087005F0E8FB9B
:1009C000F0E041F2A450C2F200000078C00720BB62
:1009D000FFE740F21810C2F2000090F86F000728FD
:1009E0000ADCFFE740F21811C2F2000191F86F0033
:1009F000013081F86F0007E040F21811C2F20001E7
:100A0000002081F86F00FFE705F002FA05F070F9A9
:100A100005F0B2FC05F0BCFB02E004F0ADFEFFE720
:100A2000C0E041F2A450C2F200000078C007F8B95B
:100A3000FFE740F21810C2F2000090F8700040B1D9
:100A4000FFE740F21811C2F20001002081F87000A7
:100A500007E040F21811C2F20001012081F8700095
:100A6000FFE705F045F905F087FC05F091FBFFE78E
:100A700098E041F2A450C2F200000078C00708B923
:100A8000FFE704E003F0B2FF04F0CEF8FFE789E0EF
:100A900041F2A450C2F200000078C00720BBFFE77B
:100AA00040F21810C2F2000090F86F0001280ADB33
:100AB000FFE740F21811C2F2000191F86F0001380F
:100AC00081F86F0007E040F21811C2F2000108201F
:100AD00081F86F00FFE705F09BF905F009F905F0D3
:100AE0004BFC05F055FB02E003F0C0FFFFE759E0C7
:100AF00041F2A450C2F200000078C00700284FD194
:100B0000FFE741F6E870C2F200000078C00738B98C
:100B1000FFE741F6E871C2F200010120087006E02B
:100B200041F6E871C2F2000100200870FFE741F6CB
:100B3000E870C2F200000078C007C0B9FFE740F2D9
:100B40002800C2F2000003684068694600228A60FB
:100B50004FF4FC624A6008604EF21852C0F6000280
:100B60002E206C2103F064FE05F020F817E040F21F
:100B70002800C2F2000003684068694600228A60CB
:100B80004FF4FC624A6008604EF21A52C0F600024E
:100B90002E206C2103F04CFE05F0D8FFFFE7FFE7A5
:100BA00000E0FFE706B080BD80B59AB019901891BB
:100BB000179240F6DB70C4F2490016901898159011
:100BC0001998149014980021C4F2484109F066FD68
:100BD00001460820002918BF06208DF84F001798FD
:100BE00028B1FFE79DF84F0017990870FFE79DF8BF
:100BF0004F0009F097FE0146084609F0CBFC129021
:100C00001698149909F00AFF159909F061FD09F089
:100C100069F911901199084609F000FF1090002021
:100C20000F90FFE70F989DF84F10884280F2AF8039
:100C3000FFE7169800900F9809F05CFE0146084601
:100C400009F0A8FC4FF07E51049109F0A3FC014685
:100C5000009809F0E3FE01901299084609F09AFC09
:100C60000146019809F034FD0E900E9809F07CF8C9
:100C70000146084609F08EFC0146049809F028FD5B
:100C80000D901098029011980D9909F021FD0146E0
:100C9000029809F07FFC049909F07CFC0C901098F4
:100CA0000C9909F015FD0B900B99084609F072FCA0
:100CB00004990A900B980990109809F0B5FF014625
:100CC000084609F067FC0C9909F002FD089010989D
:100CD000039011980D9909F0FBFC0146039809F067
:100CE000A3FF049909F056FC0C9909F0F1FC079058
:100CF0000B984FF09D41059109F090FE09F0DEFD43
:100D000005990F9A02EB820341F28042C2F200027F
:100D1000069242F823000A9809F080FE09F0CEFD01
:100D20000599069A0F9B03EB830302EB8302506045
:100D3000099809F073FE09F0C1FD0599069A0F9B09
:100D400003EB830302EB83029060089880F000407D
:100D500009F064FE09F0B2FD0599069A0F9B03EBBA
:100D6000830302EB8302D060079880F0004009F013
:100D700055FE09F0A3FD06990F9A02EB820201EBE2
:100D800082010861FFE70F9801300F904AE70120C8
:100D90001AB080BD81B041F20001C4F202010868BE
:100DA00040F480300860FFE741F20000C4F2020026
:100DB00000688003002801D4FFE7F5E742F2000154
:100DC000C4F20201086840F00200086041F2040128
:100DD000C4F20201009108680860086808600868A9
:100DE00040F480600860086820F4701008600868AB
:100DF00040F44410086041F20001C4F202010868A6
:100E000040F080700860FFE741F20000C4F2020089
:100E100000688001002801D4FFE7F5E741F20401F2
:100E2000C4F20201086820F003000860086840F07E
:100E300002000860FFE741F20400C4F2020000680B
:100E400000F00C00082801D0FFE7F4E701B070477C
:100E5000F0B5ADF5017D0020C4F202000068400746
:100E6000002840F12187FFE70421C4F2020108684D
:100E700040F00400086040F21420C2F200003090FC
:100E800040F6C851C2F200012F9140F6CC50C2F298
:100E900000002E9040F6B056C2F2000632682D9245
:100EA00040F6B455C2F200052A682C9240F6B854B8
:100EB000C2F2000422682B9241F6D07EC2F2000EEC
:100EC000DEF800202A9241F6D47CC2F2000CDCF855
:100ED0000020299241F6D873C2F200031A682892C2
:100EE000309A971C309717882D9A3A442D922D9F4F
:100EF0002C9A3A442C922C9F2B9A3A442B92309A5B
:100F0000971C309717882A9A3A442A922A9F299A3E
:100F10003A442992299F289A3A442892309A971C59
:100F2000309717882D9A3A442D922D9F2C9A3A4447
:100F30002C922C9F2B9A3A442B92309A971C3097E4
:100F400017882A9A3A442A922A9F299A3A4429923F
:100F5000299F289A3A442892309A971C30971788EC
:100F60002D9A3A442D922D9F2C9A3A442C922C9FE4
:100F70002B9A3A442B92309A971C309717882A9ACA
:100F80003A442A922A9F299A3A442992299F289AD8
:100F90003A442892309A971C309717882D9A3A44F1
:100FA0002D922D9F2C9A3A442C922C9F2B9A3A44A6
:100FB0002B92309A971C309717882A9A3A442A9293
:100FC0002A9F299A3A442992299F289A3A4428929A
:100FD000309A971C309717882D9A3A442D922D9F5E
:100FE0002C9A3A442C922C9F2B9A3A442B92309A6A
:100FF000971C309717882A9A3A442A922A9F299A4E
:101000003A442992299F289A3A442892309A971C68
:10101000309717882D9A3A442D922D9F2C9A3A4456
:101020002C922C9F2B9A3A442B92309A971C3097F3
:1010300017882A9A3A442A922A9F299A3A4429924E
:10104000299F289A3A442892309A971C30971788FB
:101050002D9A3A442D922D9F2C9A3A442C922C9FF3
:101060002B9A3A442B92309A971C309717882A9AD9
:101070003A442A922A9F299A3A442992299F289AE7
:101080003A442892309A971C309717882D9A3A4400
:101090002D922D9F2C9A3A442C922C9F2B9A3A44B5
:1010A0002B92309A971C309717882A9A3A442A92A2
:1010B0002A9F299A3A442992299F289A3A442892A9
:1010C0002D9A32602C9A2A602B9A22602A9ACEF8A6
:1010D0000020299ACCF80020289A1A602B9A40F612
:1010E0009853C2F20003D3F800C0A2EB0C0227927F
:1010F0002B9A1A60279A40F69C53C2F20003D3F849
:1011000000C0A2EB0C022692279A1A60269A40F69B
:10111000A053C2F20003D3F800C0A2EB0C02259248
:10112000269A1A60289A41F6B873C2F20003D3F8DF
:1011300000C0A2EB0C022492289A1A60249A41F66D
:10114000BC73C2F20003D3F800C0A2EB0C022392DE
:10115000249A1A60239A41F6C073C2F20003D3F8AE
:1011600000C0A2EB0C022292239A1A60259AA2F5E3
:10117000801292092F9B1A80229AA2F5801292095E
:101180002E9B1A80B1F9002040F2F603C2F2000350
:10119000B3F90030534302EBE3323C923C9A02F342
:1011A0000E020A80B0F900203C9B40F2F80CC2F21B
:1011B000000CBCF900C003FB0CF302EBE3323B92E2
:1011C0003B9A02F30E020280B1F9003040F6BC51A6
:1011D000C2F200010A681A440A600B6840F6C05166
:1011E000C2F200010A681A440A600B6840F6C45251
:1011F000C2F20002116819441160B0F9002041F6F2
:10120000DC70C2F20000016811440160026841F61E
:10121000E070C2F20000016811440160026841F60A
:10122000E471C2F2000108681044086042F2F6104E
:10123000C2F200000078C007002800F03484FFE705
:1012400041F6E870C2F200000078C007002840F0C4
:101250009382FFE740F6CE50C2F200000088404281
:1012600040F2F051C2F200010A8841F2D011C2F2FC
:10127000000121F8120040F2F252C2F2000210887E
:1012800040F60A31C2F2000131F8100041F2B253C7
:10129000C2F20003188040F6CA50C2F20000008873
:1012A000128821F8120040F2FE00C2F2000000781D
:1012B000C8B9FFE740F6CA50C2F20000B0F900001A
:1012C00040F6CE51C2F20001B1F90010084440F2DC
:1012D000F051C2F200010A8840F6D051C2F200017A
:1012E00041F82200FFE740F2FE00C2F20000007861
:1012F000012819D1FFE740F2F050C2F20000028845
:1013000041F2B450C2F2000030F9120041F2B25181
:10131000C2F20001B1F90010084440F6D051C2F207
:10132000000141F82200FFE740F2FE00C2F2000097
:101330000078022819D1FFE740F2F050C2F2000015
:10134000028841F2B450C2F2000030F9120041F2BA
:10135000B251C2F20001B1F90010401A40F6D0516A
:10136000C2F2000141F82200FFE740F2FE00C2F2A3
:101370000000007803283CD1FFE740F6CA50C2F2D3
:101380000000B0F9000011900028129002D51198C9
:101390004042129012983A9040F6CE50C2F20000AD
:1013A000B0F900000F900028109002D50F9840422D
:1013B0001090109839903A983999884206DDFFE7E5
:1013C0003A98399900EBA1000E9005E039983A99C6
:1013D00000EBA1000E90FFE70E9840F2F051C2F230
:1013E00000010A8840F6D051C2F2000141F8220003
:1013F000FFE740F2F050C2F20000018840F6D05002
:10140000C2F2000000EB81003F903F9800683E90E0
:1014100041F2D230C2F200000088B0F5806F1FDACE
:10142000FFE741F2D231C2F20001088801300880A2
:101430003E9AD01740F29821C2F200010A6048603B
:1014400040F2A021C2F2000100204860086040F292
:10145000A821C2F20001486008603F99086058E086
:10146000DDF8F8C04FEAEC7340F29820C2F20000B9
:1014700002684168BCEB020C8B414FEADC0C4CEA81
:10148000437C12EB0C0241EBE30102604160016816
:101490003E98401A3E90DDF8F8C04FEAEC7340F2F7
:1014A000A020C2F2000002684168BCEB020C8B4134
:1014B0004FEADC0C4CEA437C12EB0C0241EBE301FB
:1014C0000260416001683E98401A3E90DDF8F8C025
:1014D0004FEAEC7340F2A820C2F2000002684168B3
:1014E000BCEB020C8B414FEADC0C4CEA437C12EB68
:1014F0000C0241EBE3010260416001683E98401A32
:101500003E903E9800F30F003D903D983F99086053
:10151000FFE740F2F050C2F20000018841F2B470DF
:10152000C2F2000050F8210041F6EC71C2F2000155
:10153000B1F90010884211DDFFE740F2F050C2F22D
:101540000000018841F2B470C2F2000050F821009E
:1015500041F6EC71C2F200010880FFE740F2F05062
:10156000C2F20000018841F2B470C2F2000050F8EB
:101570002100609040F20410C2F200005F90609879
:10158000FEF742FE5E905E985F994968401A5D9052
:101590005D9801281ADBFFE75F9890F901000128A8
:1015A00006DBFFE75F9890F9010001380D9002E03B
:1015B00000200D90FFE70D985C905D985C9940FAD3
:1015C00001F25F9948681044486026E05F9890F9FE
:1015D0000200052806DBFFE75F9890F90200043857
:1015E0000C9002E001200C90FFE70C985B905D9856
:1015F0005B9908415A905A9848B9FFE75D98B0F155
:10160000FF3F04DCFFE74FF0FF305A90FFE75A9AA4
:101610005F99486810444860FFE75F9890F90010B0
:101620000120884059905998A0EBE00058904FF461
:10163000004057905F984068589988420CDDFFE75A
:101640005898C00356905F984068559056985599A1
:10165000B0FBF1F05790FFE757985F998968401AFF
:1016600054905498B0F1FF3F0ADCFFE754985F991B
:1016700091F9012040FA02F288681044886015E070
:1016800054985F9991F9021008415390539838B9D2
:10169000FFE75498012803DBFFE701205390FFE7A1
:1016A000539A5F99886810448860FFE760985F9953
:1016B00089684843C0135290529859990139884219
:1016C00004DDFFE7599801385290FFE75298599985
:1016D0004942884204DAFFE7599840425290FFE7B6
:1016E0005F9890F90000082809DCFFE75F9890F9FF
:1016F0000000C0F109015298884052900FE05F98B5
:1017000090F900000A2809DBFFE75F9890F90000D4
:10171000A0F10901529808415290FFE7FFE7529962
:1017200040F20010C2F200000180018840F218105F
:10173000C2F2000090F87A00ADF8FE118DF8FD01BC
:10174000BDF9FE019DF8FD214EF69221C0F6000183
:1017500031F912104843C00BADF8E200BDF8E200C9
:1017600000F50070ADF8E200BDF8E20040F2404143
:10177000C4F20001088069E140F6CE50C2F20000D8
:10178000018841F6EA70C2F200000180B0F9000061
:10179000B0F1FF3F08DCFFE741F6EA71C2F2000159
:1017A000088840420880FFE741F6EA70C2F2000074
:1017B000B0F9000041F6EC71C2F20001B1F900107D
:1017C00088420BDDFFE741F6EA70C2F200000088B4
:1017D00041F6EC71C2F200010880FFE740F6CE50FE
:1017E000C2F20000B0F90000519040F29410C2F231
:1017F000000050905198FEF707FD4F904F98509978
:101800004968401A4E904E9801281ADBFFE750981D
:1018100090F90100012806DBFFE7509890F90100DC
:1018200001380B9002E000200B90FFE70B984D90E1
:101830004E984D9940FA01F250994868104448601A
:1018400026E0509890F90200052806DBFFE7509843
:1018500090F9020004380A9002E001200A90FFE7A4
:101860000A984C904E984C9908414B904B9848B927
:10187000FFE74E98B0F1FF3F04DCFFE74FF0FF3089
:101880004B90FFE74B9A5099486810444860FFE737
:10189000509890F90010012088404A904A98A0EB97
:1018A000E00049904FF400404890509840684999B2
:1018B00088420CDDFFE74998C00347905098406884
:1018C000469047984699B0FBF1F04890FFE748985A
:1018D00050998968401A45904598B0F1FF3F0ADC5D
:1018E000FFE74598509991F9012040FA02F2886883
:1018F0001044886015E04598509991F9021008410C
:101900004490449838B9FFE74598012803DBFFE786
:1019100001204490FFE7449A5099886810448860F9
:10192000FFE75198509989684843C0134390439802
:101930004A990139884204DDFFE74A98013843900B
:10194000FFE743984A994942884204DAFFE74A98F8
:1019500040424390FFE7509890F90000082809DCC6
:10196000FFE7509890F90000C0F1090143988840C2
:1019700043900FE0509890F900000A2809DBFFE738
:10198000509890F90000A0F1090143980841439054
:10199000FFE7FFE7BDF90C01810140F2F050C2F210
:1019A0000000038840F6D052C2F2000242F8231031
:1019B000B0F800C041F2B472C2F2000252F82C102A
:1019C00041F2D013C2F2000323F81C1040F2F25C83
:1019D000C2F2000CBCF8001040F60A33C2F2000359
:1019E00033F811E041F2B251C2F20001A1F800E077
:1019F000B0F800E052F82E2002F30F02BCF800C04D
:101A000023F81C20028841F2B450C2F2000030F8E2
:101A1000122040F20010C2F200000280B1F9001062
:101A200001F30F0247F6FF710A44920940F2344372
:101A3000C4F200031A80B0F9000000F30F0008445C
:101A400080094021C4F200010880FFE740F2F05015
:101A5000C2F200000188013101800088B0F5807F6A
:101A600007DBFFE740F2F051C2F2000100200880DE
:101A7000FFE740F2F250C2F200000188013101801C
:101A80000088B0F59F7F07DDFFE740F2F251C2F218
:101A9000000100200880FFE742F2F611C2F20001C7
:101AA000002008706EE040F6C450C2F200000068EA
:101AB0003790379840F6A451C2F200010A68801AA4
:101AC00040F6CA52C2F20002108037980860B2F99C
:101AD00000003790379840F6A851C2F200010B6819
:101AE000C01A108037980860B2F900003790379814
:101AF00040F6AC51C2F200010B68C01A1080379852
:101B0000086041F6E470C2F2000000683790379830
:101B100041F6C473C2F200031968401A40F6CE5170
:101B2000C2F20001088037981860B1F900003790C0
:101B3000379841F6C873C2F20003D3F800C0A0EB97
:101B40000C00088037981860B1F90000379037987A
:101B500041F6CC73C2F20003D3F800C0A0EB0C0036
:101B6000088037981860B2F9000080081080B1F939
:101B700000008008088042F2F611C2F20001012044
:101B80000870FFE741F6E870C2F200000078C00775
:101B9000002843D1FFE740F2F450C2F20000008871
:101BA00040F2FC01C2F200010988884228DAFFE70E
:101BB00040F69450C2F200000078C00700BBFFE777
:101BC00040F6CC50C2F200000088800040F2F45190
:101BD000C2F200010B8840F20872C2F2000222F841
:101BE000230040F6C850C2F2000000884042800046
:101BF0000B8802EB830250800888013008800CE0DB
:101C000040F2F451C2F200010020088040F69451E5
:101C1000C2F2000101200870FFE744E040F2F450F6
:101C2000C2F20000008840F2FC01C2F20001098803
:101C300088422ADAFFE740F69450C2F200000078AA
:101C4000C00710BBFFE741F2B250C2F20000B0F98A
:101C50000000800840F2F451C2F200010B8840F20B
:101C60000872C2F2000222F8230040F20010C2F211
:101C70000000B0F90000404280080B8802EB8302AC
:101C800050800888013008800CE040F2F451C2F224
:101C900000010020088040F69451C2F200010120AA
:101CA0000870FFE7FFE7FFE70020C4F202000068CA
:101CB0008007002840F12287FFE70421C4F20201D7
:101CC000086840F00200086040F21420C2F20000F0
:101CD0002030219040F6C851C2F20001209140F618
:101CE000CC50C2F200001F9040F6B056C2F200067F
:101CF00032681E9240F6B455C2F200052A681D9261
:101D000040F6B854C2F2000422681C9241F6D07E1C
:101D1000C2F2000EDEF800201B9241F6D47CC2F223
:101D2000000CDCF800201A9241F6D873C2F20003CE
:101D30001A681992219A971C219717881E9A3A447B
:101D40001E921E9F1D9A3A441D921D9F1C9A3A4452
:101D50001C92219A971C219717881B9A3A441B9230
:101D60001B9F1A9A3A441A921A9F199A3A44199246
:101D7000219A971C219717881E9A3A441E921E9FFB
:101D80001D9A3A441D921D9F1C9A3A441C92219A16
:101D9000971C219717881B9A3A441B921B9F1A9AEB
:101DA0003A441A921A9F199A3A441992219A971C06
:101DB000219717881E9A3A441E921E9F1D9A3A44F4
:101DC0001D921D9F1C9A3A441C92219A971C2197A0
:101DD00017881B9A3A441B921B9F1A9A3A441A92EC
:101DE0001A9F199A3A441992219A971C2197178899
:101DF0001E9A3A441E921E9F1D9A3A441D921D9FA0
:101E00001C9A3A441C92219A971C219717881B9A76
:101E10003A441B921B9F1A9A3A441A921A9F199A93
:101E20003A441992219A971C219717881E9A3A448E
:101E30001E921E9F1D9A3A441D921D9F1C9A3A4461
:101E40001C92219A971C219717881B9A3A441B923F
:101E50001B9F1A9A3A441A921A9F199A3A44199255
:101E6000219A971C219717881E9A3A441E921E9F0A
:101E70001D9A3A441D921D9F1C9A3A441C92219A25
:101E8000971C219717881B9A3A441B921B9F1A9AFA
:101E90003A441A921A9F199A3A441992219A971C15
:101EA000219717881E9A3A441E921E9F1D9A3A4403
:101EB0001D921D9F1C9A3A441C92219A971C2197AF
:101EC00017881B9A3A441B921B9F1A9A3A441A92FB
:101ED0001A9F199A3A441992219A971C21971788A8
:101EE0001E9A3A441E921E9F1D9A3A441D921D9FAF
:101EF0001C9A3A441C92219A971C219717881B9A86
:101F00003A441B921B9F1A9A3A441A921A9F199AA2
:101F10003A4419921E9A32601D9A2A601C9A2260D5
:101F20001B9ACEF800201A9ACCF80020199A1A6051
:101F30001C9A40F69853C2F20003D3F800C0A2EBFB
:101F40000C0218921C9A1A60189A40F69C53C2F21E
:101F50000003D3F800C0A2EB0C021792189A1A6083
:101F6000179A40F6A053C2F20003D3F800C0A2EBC8
:101F70000C021692179A1A60199A41F6B873C2F2B7
:101F80000003D3F800C0A2EB0C021592199A1A6054
:101F9000159A41F6BC73C2F20003D3F800C0A2EB5D
:101FA0000C021492159A1A60149A41F6C073C2F288
:101FB0000003D3F800C0A2EB0C021392149A1A602B
:101FC000169AA2F580129209209B1A80139AA2F504
:101FD000801292091F9B1A80B1F9002040F2F6038B
:101FE000C2F20003B3F90030534302EBE3323692FE
:101FF000369A02F30E020A80B0F90020369B40F2B6
:10200000F80CC2F2000CBCF900C003FB0CF302EBAD
:10201000E3323592359A02F30E020280B1F90030B4
:1020200040F6BC51C2F200010A681A440A600B680B
:1020300040F6C051C2F200010A681A440A600B68F7
:1020400040F6C452C2F20002116819441160B0F99E
:10205000002041F6DC70C2F200000168114401600A
:10206000026841F6E070C2F20000016811440160AC
:10207000026841F6E471C2F2000108681044086089
:1020800042F2F610C2F200000078C007002800F00B
:102090003484FFE741F6E870C2F200000078C00720
:1020A000002840F09382FFE740F6CE50C2F20000D5
:1020B0000088404240F2F051C2F200010A8841F229
:1020C000D011C2F2000121F8120040F2F252C2F225
:1020D0000002108840F60A31C2F2000131F8100007
:1020E00041F2B253C2F20003188040F6CA50C2F265
:1020F00000000088128821F8120040F2FE00C2F2AF
:1021000000000078C8B9FFE740F6CA50C2F20000EC
:10211000B0F9000040F6CE51C2F20001B1F9001052
:10212000084440F2F051C2F200010A8840F6D05152
:10213000C2F2000141F82200FFE740F2FE00C2F2C5
:1021400000000078012819D1FFE740F2F050C2F2F8
:102150000000028841F2B450C2F2000030F91200CF
:1021600041F2B251C2F20001B1F90010084440F648
:10217000D051C2F2000141F82200FFE740F2FE0018
:10218000C2F200000078022819D1FFE740F2F050B7
:10219000C2F20000028841F2B450C2F2000030F9ED
:1021A000120041F2B251C2F20001B1F90010401A1E
:1021B00040F6D051C2F2000141F82200FFE740F2A0
:1021C000FE00C2F20000007803283CD1FFE740F691
:1021D000CA50C2F20000B0F900000890002809902F
:1021E00002D50898404209900998349040F6CE50A4
:1021F000C2F20000B0F9000006900028079002D556
:102200000698404207900798339034983399884253
:1022100006DDFFE73498339900EBA100059005E057
:102220003398349900EBA1000590FFE7059840F240
:10223000F051C2F200010A8840F6D051C2F200010A
:1022400041F82200FFE740F2F050C2F2000001889E
:1022500040F6D050C2F2000000EB8100429042985C
:102260000068419041F2D230C2F200000088B0F51F
:10227000806F1FDAFFE741F2D231C2F20001088815
:1022800001300880419AD01740F29821C2F2000133
:102290000A60486040F2A021C2F2000100204860BC
:1022A000086040F2A821C2F200014860086042992B
:1022B000086058E0DDF804C14FEAEC7340F2982062
:1022C000C2F2000002684168BCEB020C8B414FEA8D
:1022D000DC0C4CEA437C12EB0C0241EBE3010260A4
:1022E000416001684198401A4190DDF804C14FEA0D
:1022F000EC7340F2A020C2F2000002684168BCEB1F
:10230000020C8B414FEADC0C4CEA437C12EB0C02D2
:1023100041EBE3010260416001684198401A41903D
:10232000DDF804C14FEAEC7340F2A820C2F20000CD
:1023300002684168BCEB020C8B414FEADC0C4CEAB2
:10234000437C12EB0C0241EBE30102604160016847
:102350004198401A4190419800F30F0040904098F6
:1023600042990860FFE740F2F050C2F20000018895
:1023700041F2B470C2F2000050F8210041F6EC7155
:10238000C2F20001B1F90010884211DDFFE740F20E
:10239000F050C2F20000018841F2B470C2F20000B5
:1023A00050F8210041F6EC71C2F200010880FFE70D
:1023B00040F2F050C2F20000018841F2B470C2F263
:1023C000000050F821007E9040F20410C2F200009C
:1023D0007D907E98FDF718FF7C907C987D994968E8
:1023E000401A7B907B9801281ADBFFE77D9890F9D3
:1023F0000100012806DBFFE77D9890F90100013814
:10240000049002E000200490FFE704987A907B9803
:102410007A9940FA01F27D9948681044486026E0B4
:102420007D9890F90200052806DBFFE77D9890F97A
:1024300002000438039002E001200390FFE70398B4
:1024400079907B98799908417890789848B9FFE716
:102450007B98B0F1FF3F04DCFFE74FF0FF3078904E
:10246000FFE7789A7D99486810444860FFE77D98B7
:1024700090F900100120884077907798A0EBE00059
:1024800076904FF4004075907D9840687699884228
:102490000CDDFFE77698C00374907D9840687390D8
:1024A00074987399B0FBF1F07590FFE775987D997A
:1024B0008968401A72907298B0F1FF3F0ADCFFE71A
:1024C00072987D9991F9012040FA02F288681044CF
:1024D000886015E072987D9991F902100841719019
:1024E000719838B9FFE77298012803DBFFE70120F4
:1024F0007190FFE7719A7D99886810448860FFE7C2
:102500007E987D9989684843C01370907098779938
:102510000139884204DDFFE7779801387090FFE7C2
:10252000709877994942884204DAFFE777984042E9
:102530007090FFE77D9890F90000082809DCFFE71C
:102540007D9890F90000C0F1090170988840709062
:102550000FE07D9890F900000A2809DBFFE77D98DD
:1025600090F90000A0F10901709808417090FFE710
:10257000FFE7709940F20010C2F20000018001886C
:1025800040F21810C2F2000090F87A00ADF8021282
:102590008DF80102BDF902029DF801224EF692214A
:1025A000C0F6000131F912104843C00BADF8CA0063
:1025B000BDF8CA0000F50070ADF8CA00BDF8CA0049
:1025C00040F24041C4F20001088069E140F6CE507B
:1025D000C2F20000018841F6EA70C2F200000180F8
:1025E000B0F90000B0F1FF3F08DCFFE741F6EA7107
:1025F000C2F20001088840420880FFE741F6EA7015
:10260000C2F20000B0F9000041F6EC71C2F2000124
:10261000B1F9001088420BDDFFE741F6EA70C2F223
:102620000000008841F6EC71C2F200010880FFE76B
:1026300040F6CE50C2F20000B0F900006F9040F2B8
:102640009410C2F200006E906F98FDF7DDFD6D9062
:102650006D986E994968401A6C906C9801281ADB45
:10266000FFE76E9890F90100012806DBFFE76E98FE
:1026700090F901000138029002E000200290FFE78B
:1026800002986B906C986B9940FA01F26E994868C9
:102690001044486026E06E9890F90200052806DB99
:1026A000FFE76E9890F902000438019002E00120E3
:1026B0000190FFE701986A906C986A9908416990C7
:1026C000699848B9FFE76C98B0F1FF3F04DCFFE779
:1026D0004FF0FF306990FFE7699A6E99486810449F
:1026E0004860FFE76E9890F90010012088406890DC
:1026F0006898A0EBE00067904FF4004066906E98F9
:102700004068679988420CDDFFE76798C0036590D1
:102710006E984068649065986499B0FBF1F066909B
:10272000FFE766986E998968401A63906398B0F1E4
:10273000FF3F0ADCFFE763986E9991F9012040FAA8
:1027400002F288681044886015E063986E9991F9E8
:10275000021008416290629838B9FFE76398012837
:1027600003DBFFE701206290FFE7629A6E998868B9
:1027700010448860FFE76F986E9989684843C013DA
:102780006190619868990139884204DDFFE7689893
:1027900001386190FFE7619868994942884204DAFC
:1027A000FFE7689840426190FFE76E9890F900005B
:1027B000082809DCFFE76E9890F90000C0F10901D4
:1027C0006198884061900FE06E9890F900000A28A7
:1027D00009DBFFE76E9890F90000A0F1090161980C
:1027E00008416190FFE7FFE7BDF98401810140F2F4
:1027F000F050C2F20000038840F6D052C2F200024C
:1028000042F82310B0F800C041F2B472C2F20002E4
:1028100052F82C1041F2D013C2F2000323F81C101E
:1028200040F2F25CC2F2000CBCF8001040F60A3331
:10283000C2F2000333F811E041F2B251C2F20001DA
:10284000A1F800E0B0F800E052F82E2002F30F02E9
:10285000BCF800C023F81C20028841F2B450C2F238
:10286000000030F8122040F20010C2F20000028096
:10287000B1F9001001F30F0247F6FF710A44920903
:1028800040F23443C4F200031A80B0F9000000F3B0
:102890000F00084480094021C4F200010880FFE7CE
:1028A00040F2F050C2F2000001880131018000883E
:1028B000B0F5807F07DBFFE740F2F051C2F2000184
:1028C00000200880FFE740F2F250C2F200000188C9
:1028D000013101800088B0F59F7F07DDFFE740F2FE
:1028E000F251C2F2000100200880FFE742F2F61127
:1028F000C2F20001002008706EE040F6C450C2F23F
:10290000000000683190319840F6A451C2F20001F5
:102910000A68801A40F6CA52C2F20002108031984A
:102920000860B2F900003190319840F6A851C2F227
:1029300000010B68C01A108031980860B2F90000DD
:102940003190319840F6AC51C2F200010B68C01AC8
:1029500010803198086041F6E470C2F2000000680F
:102960003190319841F6C473C2F200031968401ADD
:1029700040F6CE51C2F20001088031981860B1F9DA
:1029800000003190319841F6C873C2F20003D3F8C9
:1029900000C0A0EB0C00088031981860B1F900006D
:1029A0003190319841F6CC73C2F20003D3F800C0E5
:1029B000A0EB0C00088031981860B2F90000800884
:1029C0001080B1F900008008088042F2F611C2F2CE
:1029D000000101200870FFE741F6E870C2F2000034
:1029E0000078C007002843D1FFE740F2F450C2F25C
:1029F0000000008840F2FC01C2F200010988884210
:102A000028DAFFE740F69450C2F200000078C007D1
:102A100000BBFFE740F6CC50C2F200000088800007
:102A200040F2F451C2F200010B8840F20872C2F287
:102A3000000222F8230040F6C850C2F200000088CD
:102A4000404280000B8802EB8302508008880130EE
:102A500008800CE040F2F451C2F20001002008802E
:102A600040F69451C2F2000101200870FFE744E0F3
:102A700040F2F450C2F20000008840F2FC01C2F2C1
:102A80000001098888422ADAFFE740F69450C2F232
:102A900000000078C00710BBFFE741F2B250C2F25D
:102AA0000000B0F90000800840F2F451C2F20001C9
:102AB0000B8840F20872C2F2000222F8230040F2B2
:102AC0000010C2F20000B0F90000404280080B88FC
:102AD00002EB830250800888013008800CE040F24D
:102AE000F451C2F200010020088040F69451C2F275
:102AF000000101200870FFE7FFE7FFE70DF5017D0A
:102B0000F0BD000080B584B005F016FF6946802056
:102B1000086040F68850C2F2000040F20862C2F23B
:102B2000000241F6B653C2F200037F2104F032FDE9
:102B300040F2FE00C2F20000017840F2EC00C2F266
:102B4000000030F8110007F0EDFE41F22152C2F210
:102B5000000202924EF20061C4F2AA61FEF724F86C
:102B60000146029841F22052C2F200020392117013
:102B700001786A460120106040F20420C2F2000091
:102B800041F28042C2F2000241F22453C2F2000339
:102B900004F0D8F803980078C8B1FFE741F2E030BC
:102BA000C2F2000041F28041C2F20001A022FDF712
:102BB000B6FB41F22450C2F200008021FDF703FC75
:102BC00041F22051C2F2000100200870FFE704B07A
:102BD00080BD000010B58CB0ADF82E00ADF82C1003
:102BE00040F21210C2F200000088E72807DBFFE77E
:102BF00040F21411C2F2000100200880D6E040F239
:102C00001210C2F200000088C0F1E7014FF47040DA
:102C100090FBF1F040F21411C2F2000108800A208A
:102C2000ADF82A00FFE7BDF82A00EA2811DCFFE72B
:102C3000BDF82C000130BDF82A1080B224220023F8
:102C400000F090FCFFE7BDF82A000130ADF82A0043
:102C5000E9E70A20ADF82A00FFE7BDF82A00EA28D4
:102C600011DCFFE7BDF82C000130BDF82A1080B25E
:102C70002422002300F076FCFFE7BDF82A00013093
:102C8000ADF82A00E9E7BDF92E0040F2A92148433A
:102C90000012099000208DF82300FFE79DF8230023
:102CA0000E2800F28380FFE79DF8230000EB40012F
:102CB0004AF61460C0F6000030F821000999084473
:102CC00080380790079840F21211C2F2000109887B
:102CD000401A06900698B0F1FF3F01DCFFE75FE085
:102CE000069840F21411C2F200010988484300120C
:102CF00005900598F12801DBFFE751E00598C0F148
:102D0000F000ADF81200BDF812000A2805DBFFE75D
:102D1000BDF81200E72801DBFFE741E09DF8230042
:102D200000EB40014AF61460C0F6000000EB8100A1
:102D3000007A40B3FFE7BDF82C000130BDF8121057
:102D400004399DF8232002EB42034AF61462C0F6D0
:102D5000000202EB8302526840F2300CC2F2000C17
:102D6000DCF80030DCF804C0EE460024CEF8084061
:102D70004FF48064CEF80440CEF800C080B289B22F
:102D800001F056FD0BE0BDF82C000130BDF812102B
:102D900080B202224FF4806300F0E4FBFFE7FFE71C
:102DA0009DF8230001308DF8230077E70CB010BDAB
:102DB00080B540F21441C4F201014FF400400860B4
:102DC00003F028FB80BD000080B540F21441C4F23E
:102DD00001010820086003F01DFB80BD80B540F2B2
:102DE0001441C4F201011020086003F013FB80BD00
:102DF00080B540F21441C4F201014020086003F0A4
:102E000009FB80BD81B00090FFE742F20C00C4F2E4
:102E100002000068C00708B1FFE7F6E742F21001C0
:102E2000C4F20201086840F002000860009842F213
:102E30001402C4F202021060086840F0400008600A
:102E4000FFE742F20C00C4F202000068C00708B1BC
:102E5000FFE7F6E742F21001C4F20201086820F031
:102E60000200086001B0704742F21001C4F2020192
:102E7000086840F0800008607047000042F21000CF
:102E8000C4F202000068000600280FD5FFE742F2F6
:102E90000401C4F2020140F22310C4F2675008603A
:102EA00048F6AB10CCF6EF500860FFE742F20C0199
:102EB000C4F20201086840F0340008607047000066
:102EC00087B00690059142F21001C4F20201086831
:102ED00040F00100086005980490069803903E2099
:102EE000029001208DF8070000200090FFE7009875
:102EF000029988422FD2FFE7FFE742F20C00C4F2AA
:102F000002000068C00708B1FFE7F6E70498009ADE
:102F100030F81200039921F81200FFE742F20C008A
:102F2000C4F202000068C00708B1FFE7F6E70398A3
:102F3000009930F811000499009A31F81210884273
:102F400004D0FFE700208DF8070004E0FFE70098B9
:102F500001300090CBE7FFE742F20C00C4F2020020
:102F60000068C00708B1FFE7F6E742F21001C4F2BB
:102F70000201086820F0010008609DF8070000F0D9
:102F8000010007B07047000041F21801C4F20201CD
:102F9000086840F004000860086840F00800086015
:102FA000086840F0100008600421C4F201010868BC
:102FB00040F00070086040F60442C4F2010210685C
:102FC0004FF6FF71C0F60F7108401060106840F4B2
:102FD00030001060106840F030401060106820F041
:102FE00070601060106840F08060106040F604016E
:102FF000C4F20101086820F470600860086840F4B9
:1030000040700860086820F470400860086840F468
:1030100040500860086820F470200860086840F498
:103020004030086040F60001C4F20101086820F455
:1030300040600860086820F440700860086840F448
:1030400080700860086820F0C0000860086820F000
:1030500030000860086840F010000860086820F040
:103060000C000860086820F003000860086840F061
:103070000100086041F20403C4F20103186820F063
:1030800040401860186820F040501860186840F000
:1030900080501860186820F040601860186820F0B0
:1030A00040701860186840F08070186040F6140393
:1030B000C4F201030720186041F21403C4F20103B3
:1030C0004FF440401860106840F480701060106841
:1030D00020F440601060106840F480501060106868
:1030E00020F440401060086820F440300860086810
:1030F00020F440200860086820F440100860086848
:1031000020F440000860086820F04050086008681B
:1031100020F040400860086820F4704008600868AB
:1031200040F420400860086820F07060086008687B
:1031300040F02060086040F60041C4F201010868D8
:1031400020F0F0000860086840F0A000086041F23C
:103150001001C4F20101086840F4005008600868DA
:1031600040F00050086040F61442C4F201021068BA
:1031700040F40060106040F61041C4F2010108689C
:1031800040F480600860106840F480601060086857
:1031900040F400600860704780B541F21801C4F245
:1031A0000201086840F00D0008600421C4F201012A
:1031B0000868022262F31A60086040F60401C4F253
:1031C0000101086820F070400860086840F0004085
:1031D000086040F60C01C4F20101086840F40040A8
:1031E000086040F60041C4F20101086840F6FF7231
:1031F000CFF2F00210400860086848F20002C0F602
:1032000008021043086040F60C41C4F2010108684E
:1032100040F0580008600821C4F20101086801224A
:1032200062F30F3008600C21C4F20101086862F3F8
:1032300003000860086862F30B2008601421C4F2E0
:103240000101086820F47040086040F20041C4F2B7
:103250000101086848F258021043086040F20C412E
:10326000C4F2010108681043086040F20841C4F24A
:10327000010108681043086040F21441C4F20101E2
:103280000820086010200860402008604FF40040CB
:103290000860092003F0E8FC0A2003F0E5FC172091
:1032A00003F0E2FC282003F0DFFC80BD81B00020A9
:1032B0008DF8030040F60800C4F201000068000425
:1032C000002807D4FFE79DF8030040F001008DF8C7
:1032D0000300FFE740F60840C4F201000068000761
:1032E000002807D4FFE79DF8030040F002008DF8A6
:1032F0000300FFE740F60840C4F201000068C00682
:10330000002807D4FFE79DF8030040F004008DF883
:103310000300FFE740F60840C4F2010000684006E1
:10332000002807D4FFE79DF8030040F008008DF85F
:103330000300FFE79DF8030001B07047FFE7FEE7D9
:1033400045F20041C4F20001088840F400400880C2
:1033500000BF08886FF3DF30088045F20442C4F2F2
:1033600000022420108045F21C42C4F200021E20FC
:10337000108045F22042C4F200020C201080088820
:1033800040F001000880704741F21801C4F20201C8
:10339000086840F00900086041F21C01C4F2020113
:1033A000086840F4001008600421C4F201010868B4
:1033B00040F00200086040F60441C4F201010868D0
:1033C00020F0FF000860086840F0FF00086045F248
:1033D0000041C4F20001088840F4004008800888D9
:1033E0006FF3DF30088045F20442C4F20002108817
:1033F00040F02400108045F21C42C4F20002B420C8
:10340000108045F22042C4F2000225201080088876
:1034100040F001000880704782B0ADF806000091CE
:1034200040F61001C4F201014FF48060086040F6DC
:103430001401C4F201014FF480500860FFE70098C6
:1034400040B3FFE79DF8070043F60C01C4F200010A
:103450000870FFE743F60800C4F200000088800708
:10346000002801D4FFE7F5E79DF8060043F60C01BC
:10347000C4F200010870FFE743F60800C4F2000040
:1034800000888007002801D4FFE7F5E7009801389D
:103490000090D4E7FFE743F60800C4F2000000887C
:1034A0008007002801D4FFE7F5E7FFE743F60800AF
:1034B000C4F2000000880006002801D5FFE7F5E708
:1034C00040F61001C4F201014FF48050086002B0D0
:1034D0007047000010B58AB0ADF82600ADF8241092
:1034E0000892089805A9049105F032FB049ABDF8EA
:1034F0002600BDF8241040F2200CC2F2000CDCF8CB
:103500000030DCF804C0EE460024CEF808404FF44A
:10351000FC64CEF80440CEF800C001F089F99DF8B3
:10352000140030281BD1FFE7BDF82600BDF8241099
:103530009DF8142040F2200CC2F2000CDCF80030A0
:10354000DCF804C0EE460024CEF808404FF4806456
:10355000CEF80440CEF800C001F0EAF8FFE70AB068
:1035600010BD000080B582B0ADF80600ADF80410C3
:10357000ADF80220ADF80030BDF8060040F23A0187
:10358000C2F20001098888420ADAFFE7BDF80400A8
:1035900040F23801C2F200010988884201DBFFE7EE
:1035A0002BE0BDF80600BDF802100844013840F2D7
:1035B0003A01C2F20001098888420BDBFFE740F2C2
:1035C0003A00C2F200000088BDF80610401AADF8BB
:1035D0000200FFE7BDF80600BDF80430BDF8021098
:1035E000014401398AB2194600F0B6FEBDF8000068
:1035F000BDF80210FFF710FFFFE702B080BD00002A
:1036000010B58AB0ADF82600ADF8241008920898DD
:1036100005A905F09DFA00200490FFE70498092809
:1036200061DCFFE7049A05A8805C41F2A551C2F273
:103630000001895C884251D0FFE7BDF8260004995B
:1036400000EB0110ADF80E00049810BBFFE70499E1
:1036500005A8405C30281CD1FFE7BDF80E00BDF87E
:103660002410049B05AAD25C40F2280CC2F2000C84
:10367000DCF80030DCF804C0EE460024CEF8084048
:103680004FF48064CEF80440CEF800C001F050F84A
:103690001BE0BDF80E00BDF82410049B05AAD25C07
:1036A00040F2280CC2F2000CDCF80030DCF804C058
:1036B000EE460024CEF808404FF4FC64CEF80440F7
:1036C000CEF800C001F034F8FFE7049A05A8805C4A
:1036D00041F2A551C2F200018854FFE7FFE70498C8
:1036E000013004909AE70AB010BD000010B588B010
:1036F000ADF81E00ADF81C100692069804A90391BF
:1037000005F082FA039ABDF81E00BDF81C1040F2C5
:10371000200CC2F2000CDCF80030DCF804C0EE46ED
:103720000024CEF808404FF4FC64CEF80440CEF8F4
:1037300000C001F07DF808B010BD000080B584B075
:1037400084460698ADF80EC0ADF80C10ADF80A200E
:10375000ADF80830ADF80600BDF80E0040F23A01B1
:10376000C2F20001098888420ADAFFE7BDF80C00BE
:1037700040F23801C2F200010988884201DBFFE70C
:103780004BE0BDF80E00BDF80A100844013840F2C5
:103790003A01C2F20001098888420BDBFFE740F2E0
:1037A0003A00C2F200000088BDF80E10401AADF8D1
:1037B0000A00FFE7BDF80C00BDF808100844013806
:1037C00040F23801C2F20001098888420BDBFFE7B2
:1037D00040F23800C2F200000088BDF80C10401A18
:1037E000ADF80800FFE7BDF80E00BDF80C10BDF8FD
:1037F0000A200244013ABDF808300B44013B92B262
:103800009BB200F0A9FDBDF80600BDF80810BDF898
:103810000A205143FFF700FEFFE704B080BD00001F
:10382000B0B5AAB00020ADF8A600ADF8A600FFE73D
:10383000BDF8A600192800F3D581FFE7BDF8A60062
:10384000000248F6A331CBF62E212591A0FB010101
:10385000782000EB511081B2FF202690052227929C
:103860004FF480632893FFF77DFEDDF894C026981F
:10387000279A289BBDF8A6100902A1FB0C1C7721F2
:10388000A1EB5C1189B2FFF76DFEBDF8A60005281B
:1038900065D1FFE7BDF8A600000248F6A331CBF6DC
:1038A0002E212191A0FB010174201D9000EB5110ED
:1038B00040F23001C2F200011E910B6849686A466D
:1038C000002595604FF4806424945460116081B2A7
:1038D0004EF2CF52C0F600022092F3201F9000F06B
:1038E000A7FF1D99DDF878C01F98209ADDF884E0C5
:1038F000BDF8A6301B02A3FB0EE3A1EB5311DCF8CD
:103900000030DCF804C0EE46CEF80850CEF8044093
:10391000CEF800C089B200F08BFF2199249BBDF83E
:10392000A6000002A0FB0101782000EB511081B23B
:10393000FA2022900A222392FFF714FEDDF884C0B9
:103940002298239A249BBDF8A6100902A1FB0C1C07
:103950007721A1EB5C1189B2FFF704FEFFE7BDF808
:10396000A6000A2865D1FFE7BDF8A600000248F6C8
:10397000A331CBF62E211991A0FB010174201590E3
:1039800000EB511040F23001C2F2000116910B68B9
:1039900049686A46002595604FF480641C94546021
:1039A000116081B24EF2B752C0F600021892EC20BC
:1039B000179000F03DFF1599DDF858C01798189A38
:1039C000DDF864E0BDF8A6301B02A3FB0EE3A1EB1B
:1039D0005311DCF80030DCF804C0EE46CEF8085095
:1039E000CEF80440CEF800C089B200F021FF19994A
:1039F0001C9BBDF8A6000002A0FB0101782000EB93
:103A0000511081B2FA201A900A221B92FFF7AAFDE8
:103A1000DDF864C01A981B9A1C9BBDF8A610090219
:103A2000A1FB0C1C7721A1EB5C1189B2FFF79AFD79
:103A3000FFE7BDF8A6000F2865D1FFE7BDF8A60097
:103A4000000248F6A331CBF62E211191A0FB010113
:103A500074200D9000EB511040F23001C2F20001D1
:103A60000E910B6849686A46002595604FF48064A2
:103A700014945460116081B24EF2CA52C0F6000232
:103A80001092EC200F9000F0D3FE0D99DDF838C0B5
:103A90000F98109ADDF844E0BDF8A6301B02A3FB96
:103AA0000EE3A1EB5311DCF80030DCF804C0EE4665
:103AB000CEF80850CEF80440CEF800C089B200F02D
:103AC000B7FE1199149BBDF8A6000002A0FB0101EE
:103AD000782000EB511081B2FA2012900A22139242
:103AE000FFF740FDDDF844C01298139A149BBDF80F
:103AF000A6100902A1FB0C1C7721A1EB5C1189B275
:103B0000FFF730FDFFE7BDF8A600142863D1FFE7FB
:103B1000BDF8A600000248F6A331CBF62E2109918C
:103B2000A0FB0101722000EB511040F23001C2F203
:103B3000000106910B6849686A46002595604FF4BC
:103B400080640C945460116081B24EF2BB52C0F696
:103B500000020892EC20079000F06AFEDDF818C021
:103B60000798089A099BBDF8A6100902A1FB031348
:103B70007521A1EB5311DCF80030DCF804C0EE46EF
:103B8000CEF80850CEF80440CEF800C089B200F05C
:103B90004FFE09990C9BBDF8A6000002A0FB010195
:103BA000782000EB511081B2FA200A900A220B9281
:103BB000FFF7D8FCDDF824C00A980B9A0C9BBDF8DF
:103BC000A6100902A1FB0C1C7721A1EB5C1189B2A4
:103BD000FFF7C8FCFFE7FFE7BDF8A6000130ADF82E
:103BE000A60025E6FA20039077210A2204924FF4DA
:103BF000FC630593FFF7B6FC0398049A059B7821B4
:103C0000FFF7B0FC2AB0B0BD80B58CB0ADF826008F
:103C1000BDF9260008900898B0F1FF3F04DCFFE7EB
:103C2000089840420890FFE7089818B9FFE701207C
:103C30000890FFE70898079007980A900A9820B91B
:103C4000FFE720208DF82F0005E00A98B0FA80F0F9
:103C50008DF82F00FFE79DF82F0006900698C0F121
:103C60001F000590002004900598032808D3FFE763
:103C7000079805990339C84000F0070004900AE04E
:103C80000798059901228A40013A1040C1F10301C9
:103C900088400490FFE70599049800EB0110039019
:103CA000039840F21211C2F200010988401A0290F2
:103CB0000298B0F1FF3F03DCFFE700200290FFE72E
:103CC000029840F21411C2F2000109884843000A28
:103CD000ADF80600BDF80600F12804DBFFE7F02090
:103CE000ADF80600FFE7BDF8060040F20021C2F281
:103CF0000001B1F90010884208DDFFE7BDF80600B9
:103D000040F20021C2F20001088022E0BDF8060066
:103D100040F20021C2F20001B1F90010884217DA26
:103D2000FFE740F20020C2F2000001880339018061
:103D3000B0F90000BDF80610884208DAFFE7BDF8C8
:103D4000060040F20021C2F200010880FFE7FFE711
:103D5000FFE740F20020C2F200000088C0F1F0004E
:103D6000ADF80400BDF8040001280ADBFFE7BDF848
:103D7000043068460021016001200A22FFF7DEFCC2
:103D8000FFE740F20020C2F20000B0F90000012875
:103D900010DBFFE7BDF8041040F20020C2F2000083
:103DA00003886A464FF4FC60106001200A22FFF786
:103DB000C5FCFFE70CB080BD80B588B007900798C0
:103DC00002F08CFF40F2FE00C2F20000027840F2E6
:103DD000EC01C2F2000131F81210ADF81410BDF878
:103DE000141047F21F22C3F25912A1FB0221490904
:103DF000ADF81210BDF81210C1F18001ADF810102D
:103E0000BDF812108031ADF80E100078012809D1EC
:103E1000FFE78020ADF81000BDF812008030ADF84B
:103E20000E0012E040F2FE00C2F20000007802280C
:103E30000AD1FFE7BDF81200C0F18000ADF8100014
:103E40008020ADF80E00FFE7FFE70020ADF80C0082
:103E5000FFE7BDF80C00FF286CDCFFE70798BDF812
:103E60000C1030F81100ADF81800BDF81800B0F5CE
:103E7000807F04DBFFE7FF20ADF81800FFE7BDF807
:103E800018104EF65C30C0F6000030F81100ADF8A6
:103E90001A00BDF80C007F2806DCFFE7BDF80C0017
:103EA0008030ADF8160005E0BDF80C008038ADF8A4
:103EB0001600FFE7BDF91600BDF81010884221DB9F
:103EC000FFE7BDF91600BDF80E1088421ADCFFE7C7
:103ED000BDF81A004EF298710840C008ADF80A000B
:103EE000BDF81A00BDF80A10401AADF80800E0202D
:103EF000ADF80600BDF80800BDF806100844ADF89E
:103F00001A00FFE79DF81B00BDF9162040F2B02112
:103F1000C2F2000101F81200BDF81A00BDF9162026
:103F200001EB42014870FFE7BDF80C000130ADF82D
:103F30000C008EE740F2B021C2F20001072281F8A6
:103F4000FE20E02081F8FF0081F8002181F80101C6
:103F500041F2D030C2F200000078C0F5A07200211A
:103F6000F023104600F0F8F940F61001C4F2010108
:103F70004FF48060086040F61401C4F201014FF470
:103F8000805008601020ADF80C00FFE7BDF80C0071
:103F9000B0F5F87F1EDAFFE7FFE743F60800C4F24A
:103FA000000000888007002801D4FFE7F5E7BDF88E
:103FB0000C1040F2B020C2F20000405C43F60C014D
:103FC000C4F200010870FFE7BDF80C000130ADF845
:103FD0000C00DBE7FFE743F60800C4F200000088AE
:103FE0008007002801D4FFE7F5E7FFE743F6080064
:103FF000C4F2000000880006002801D5FFE7F5E7BD
:1040000040F61001C4F201014FF480500860002016
:104010004FF4827100F056FB41F2D030C2F2000042
:104020000090007800F086F9009801780131017065
:1040300000783D2807DBFFE741F2D031C2F20001F2
:1040400000200870FFE708B080BD000080B584B094
:10405000ADF80E0040F23A00C2F200000190028872
:1040600040F23800C2F200000290038800210846A6
:1040700000F072F90199029ABDF80E0009881288C1
:104080005143FFF7C9F904B080BD000080B590B07E
:1040900040F61001C4F201014FF40060086000F026
:1040A00027F90120009000F027FC42F2107004F084
:1040B000CFFCCB2000F020FC392000F051FC2C205C
:1040C00000F04EFC0020029000F04AFC342000F08A
:1040D00047FC022000F044FCCF2000F00DFC0298C9
:1040E00000F03EFCC120059000F03AFC302000F0CA
:1040F00037FCE82000F000FC852000F031FC02983D
:1041000000F02EFC78200E9000F02AFCEA2000F04F
:10411000F3FB029800F024FC029800F021FCED2053
:1041200000F0EAFB642000F01BFC03200F9000F07D
:1041300017FC122000F014FC812000F011FCF72085
:1041400000F0DAFB202000F00BFCC02000F0D4FBD4
:10415000232000F005FC059800F0CEFB1020019014
:1041600000F0FEFBC52000F0C7FB3E2000F0F8FB8E
:1041700028200C9000F0F4FBC72000F0BDFB862047
:1041800000F0EEFB36200A9000F0B6FB48200690C7
:1041900000F0E6FB3A2000F0AFFB552000F0E0FB1A
:1041A000B12000F0A9FB029800F0DAFB1B2000F020
:1041B000D7FBB62000F0A0FB0820079000F0D0FB52
:1041C000822000F0CDFB272000F0CAFBF22000F097
:1041D00093FB029800F0C4FB262000F08DFB0098B2
:1041E00000F0BEFBE02000F087FB0F200B9000F0FA
:1041F000B7FB3120099000F0B3FB2B2000F0B0FB9F
:104200000C20089000F0ACFB0E20039000F0A8FBFF
:10421000079800F0A5FB4E2000F0A2FBF12000F073
:104220009FFB372000F09CFB0720049000F098FBD8
:10423000019800F095FB0F9800F092FB039800F0B6
:104240008FFB092000F08CFB029800F089FBE12035
:1042500000F052FB029800F083FB039800F080FB13
:10426000142000F07DFB0F9800F07AFB11200D90D8
:1042700000F076FB049800F073FB099800F070FBE7
:10428000059800F06DFB069800F06AFB079800F0B7
:1042900067FB0B9800F064FB089800F061FB09983D
:1042A00000F05EFB0A9800F05BFB0B9800F058FBF7
:1042B000B42000F021FB0B2000F052FBBB2000F0EB
:1042C0001BFB0C9800F04CFBB72000F015FB3520D1
:1042D00000F046FB0D9800F00FFB0E9804F0B8FBC1
:1042E000292000F009FB0F9800F068F910B080BD9C
:1042F00080B584B040F61401C4F2010101914FF47D
:104300000060029008604FF4FA60039004F0A0FB94
:10431000019A03984FF48051116004F099FB0299BF
:10432000039840F61002C4F20102116004F090FB01
:1043300004B080BD80B582B0ADF80600372000F033
:10434000DBFA9DF8070000F00BFB9DF8060000F07B
:1043500007FB02B080BD000082B0ADF80600ADF8EA
:104360000410ADF80220ADF8003040F61401C4F29C
:1043700001014FF4806008604FF48050086043F6FC
:104380000C01C4F200012A200870FFE743F6080080
:10439000C4F2000000888007002801D4FFE7F5E799
:1043A000FFE743F60800C4F200000088000600287A
:1043B00001D5FFE7F5E740F61001C4F201014FF423
:1043C000806008609DF8070043F60C01C4F200010C
:1043D0000870FFE743F60800C4F200000088800779
:1043E000002801D4FFE7F5E79DF8060043F60C012D
:1043F000C4F200010870FFE743F60800C4F20000B1
:1044000000888007002801D4FFE7F5E79DF8030046
:1044100043F60C01C4F200010870FFE743F6080000
:10442000C4F2000000888007002801D4FFE7F5E708
:104430009DF8020043F60C01C4F200010870FFE78A
:1044400043F60800C4F2000000888007002801D469
:10445000FFE7F5E7FFE743F60800C4F20000008835
:104460000006002801D5FFE7F5E740F61401C4F285
:1044700001014FF48060086043F60C01C4F20001B2
:104480002B200870FFE743F60800C4F20000008804
:104490008007002801D4FFE7F5E7FFE743F60800AF
:1044A000C4F2000000880006002801D5FFE7F5E708
:1044B00040F61001C4F201014FF4806008609DF8DD
:1044C000050043F60C01C4F200010870FFE743F653
:1044D0000800C4F2000000888007002801D4FFE72C
:1044E000F5E79DF8040043F60C01C4F200010870E2
:1044F000FFE743F60800C4F20000008880070028A8
:1045000001D4FFE7F5E79DF8010043F60C01C4F282
:1045100000010870FFE743F60800C4F200000088BD
:104520008007002801D4FFE7F5E79DF8000043F677
:104530000C01C4F200010870FFE743F60800C4F262
:10454000000000888007002801D4FFE7F5E7FFE7B7
:1045500043F60800C4F2000000880006002801D5D8
:10456000FFE7F5E740F61401C4F201014FF4806063
:10457000086043F60C01C4F200012C200870FFE72C
:1045800043F60800C4F2000000888007002801D428
:10459000FFE7F5E7FFE743F60800C4F200000088F4
:1045A0000006002801D5FFE7F5E740F61001C4F248
:1045B00001014FF48050086002B0704780B582B0AE
:1045C0008DF8070040F61401C4F201014FF4806039
:1045D00008604FF48050086043F60C01C4F20001FB
:1045E00036200870FFE743F60800C4F20000008898
:1045F0008007002801D4FFE7F5E7FFE743F608004E
:10460000C4F2000000880006002801D5FFE7F5E7A6
:1046100040F61001C4F201014FF4805008609DF88B
:10462000070001460091032848D80099DFE801F00F
:1046300002132435202000F093F940F23A01C2F22F
:104640000001F020088040F23801C2F200014FF46E
:10465000A070088033E0802000F082F940F23A0137
:10466000C2F200014FF4A070088040F23801C2F29B
:104670000001F020088022E0E02000F071F940F213
:104680003A01C2F20001F020088040F23801C2F283
:1046900000014FF4A070088011E0402000F060F9A4
:1046A00040F23A01C2F200014FF4A070088040F2DB
:1046B0003801C2F20001F020088000E0FFE702B0FC
:1046C00080BD000080B582B0ADF80600ADF80410E2
:1046D000BDF80600BDF804100844B0F5A07F25DC45
:1046E000FFE7BDF80600BDF804100844C0F5A0704F
:1046F000ADF80200332000F0FFF89DF8070000F04D
:104700002FF99DF8060000F02BF99DF8030000F04A
:1047100027F99DF8020000F023F99DF8050000F04C
:104720001FF99DF8040000F01BF9FFE702B080BDFF
:10473000B0B58AB09E460B4684460E9C10980F99E1
:104740000994CDF820E0ADF81EC0ADF81C308DF80E
:104750001B20ADF81810ADF8160000200090019055
:10476000BDF81E00BDF81C109DF820209DF82130DA
:104770000244013A0B44013B92B29BB2FFF7ECFDBD
:10478000009840F61002C4F201024FF480611160FB
:1047900040F61402C4F201024FF4805111600490FB
:1047A000FFE704989DF82110884238D2FFE7099866
:1047B0009DF81B1020399DF82120049B01FB02313C
:1047C00030F81100039000200290FFE702989DF856
:1047D000201088421ED2FFE7039802998840000407
:1047E000002809D5FFE79DF8190000F0B9F89DF8F9
:1047F000180000F0B5F808E09DF8170000F0B0F8D8
:104800009DF8160000F0ACF8FFE7FFE702980130D2
:104810000290DBE7FFE7049801300490C1E740F61F
:104820001001C4F201014FF4805008600AB0B0BD1D
:10483000B0B588B09E460B4684460C9C0E980D99E8
:104840000794CDF818E0ADF816C0ADF81430049216
:10485000ADF80E10ADF80C00FFE7049800780028C2
:1048600047D0FFE7BDF816009DF818100844B0F5D2
:10487000A07F1DDBFFE70020ADF816009DF81910A2
:10488000BDF814000844ADF81400BDF814009DF8FC
:1048900019100844F02801DBFFE72AE004980078AB
:1048A000202804D1FFE7049801300490D5E7FFE702
:1048B000BDF81600BDF81410049A1278BDF80E4029
:1048C000BDF80C50069BDDF81CC0EE46CEF8085033
:1048D000CEF80440CEF800C0FFF72AFF9DF818106C
:1048E000BDF816000844ADF8160004980130049095
:1048F000B3E708B0B0BD000081B08DF8030040F60A
:104900001401C4F201014FF4806008604FF480503C
:1049100008609DF8030043F60C01C4F20001087022
:10492000FFE743F60800C4F2000000888007002873
:1049300001D4FFE7F5E7FFE743F60800C4F2000003
:1049400000880006002801D5FFE7F5E740F61001D2
:10495000C4F201014FF48050086001B070470000BC
:1049600081B08DF8030040F61001C4F201014FF44C
:104970008060086040F61401C4F201014FF48050D9
:1049800008609DF8030043F60C01C4F200010870B2
:10499000FFE743F60800C4F2000000888007002803
:1049A00001D4FFE7F5E7FFE743F60800C4F2000093
:1049B00000880006002801D5FFE7F5E740F6100162
:1049C000C4F201014FF48050086001B0704700004C
:1049D00080B50020FFF73AFBFEF722FF28200B21CD
:1049E000FEF7F8F801F006FB80BD000042F2F4107B
:1049F000C2F200000078C007B8B9FFE740F60830FF
:104A0000C2F200000078072807D1FFE740F608311E
:104A1000C2F200010020087006E042F2F411C2F276
:104A2000000101200870FFE71FE040F60930C2F2E4
:104A30000000007840F60831C2F200010A784DF219
:104A4000DC61C0F60001895C013988420CD1FFE7C6
:104A500040F60931C2F200010020087042F2F41160
:104A6000C2F200010870FFE7FFE7704780B586B02B
:104A700042F2F410C2F200000078C00700285CD1B6
:104A8000FFE740F60830C2F200000590017801EB24
:104A9000C1014900027840F23C00C2F2000050F827
:104AA000222040F22000C2F2000003684068EC4679
:104AB0004FF0000ECCF808E04FF4806ECCF804E024
:104AC000CCF800002E20FFF7B3FE059800780128EF
:104AD00008DBFFE740F60831C2F200010878013830
:104AE000087006E040F60831C2F2000107200870A5
:104AF000FFE740F60830C2F20000017801EBC10187
:104B00004900027840F23C00C2F2000050F8222036
:104B100040F22000C2F2000003684068EC464FF00B
:104B2000000ECCF808E04FF4FC6ECCF804E0CCF8B2
:104B300000002E20FFF77CFE73E040F60932C2F23F
:104B400000020492107800EBC000410040F60830EB
:104B5000C2F20000037840F20000C2F2000050F8F8
:104B60002300127850F8222040F22000C2F2000008
:104B700003684068EC464FF0000ECCF808E04FF4B4
:104B8000806ECCF804E0CCF800002E20FFF750FE39
:104B900004980078012808DBFFE740F60931C2F2EB
:104BA000000108780138087010E040F60830C2F2C1
:104BB000000001784DF2DC60C0F60000405C013876
:104BC00040F60931C2F200010870FFE740F60932F1
:104BD000C2F20002107800EBC000410040F608303D
:104BE000C2F20000037840F20000C2F2000050F868
:104BF0002300127850F8222040F22000C2F2000078
:104C000003684068EC464FF0000ECCF808E04FF423
:104C1000FC6ECCF804E0CCF800002E20FFF708FE74
:104C2000FFE706B080BD000080B584B06846002173
:104C300001602E20C522F023FEF780FD42F2F41021
:104C4000C2F200000078C00700285BD1FFE7002017
:104C50008DF80F00FFE79DF80F00072851DCFFE7F4
:104C60009DF80F0040F60831C2F200010978884231
:104C700020D1FFE79DF80F2002EBC200410040F277
:104C80003C00C2F2000050F8222040F22000C2F2A4
:104C9000000003684068EC464FF0000ECCF808E0D6
:104CA0004FF4FC6ECCF804E0CCF800002E20FFF7A7
:104CB000BFFD1FE09DF80F2002EBC200410040F253
:104CC0003C00C2F2000050F8222040F22000C2F264
:104CD000000003684068EC464FF0000ECCF808E096
:104CE0004FF4806ECCF804E0CCF800002E20FFF7E3
:104CF0009FFDFFE7FFE79DF80F0001308DF80F00E3
:104D0000A9E77FE000208DF80E00FFE79DF80E0078
:104D100040F60831C2F200010A784DF2DC61C0F6BB
:104D20000001895C88426CDAFFE79DF80E0040F6CE
:104D30000931C2F200010978884229D1FFE79DF8C4
:104D40000E0000EBC000410040F60830C2F2000047
:104D5000027840F20000C2F2000050F822009DF8F4
:104D60000E2050F8222040F22000C2F2000003681A
:104D70004068EC464FF0000ECCF808E04FF4FC6EB3
:104D8000CCF804E0CCF800002E20FFF751FD28E01D
:104D90009DF80E0000EBC000410040F60830C2F262
:104DA0000000027840F20000C2F2000050F8220039
:104DB0009DF80E2050F8222040F22000C2F20000A0
:104DC00003684068EC464FF0000ECCF808E04FF462
:104DD000806ECCF804E0CCF800002E20FFF728FD10
:104DE000FFE740F60830C2F2000000789DF80E1090
:104DF00000F01AF8FFE79DF80E0001308DF80E0064
:104E000084E7FFE740F21810C2F20000B0F8720029
:104E100041F2A451C2F20001097801F0010101F050
:104E200031F904B080BD000080B58CB08DF82F0042
:104E30008DF82E109DF82F0001460A91062800F2E9
:104E400086810A99DFE811F00700460074008100AE
:104E5000DC00370176019DF82E00014609910428F7
:104E600037D80999DFE801F0030D17212B0040F234
:104E7000EC00C2F20000028898200021FEF736FC08
:104E800027E040F2EC00C2F2000042889820122194
:104E9000FEF72CFC1DE040F2EC00C2F2000082881C
:104EA00098202421FEF722FC13E040F2EC00C2F22D
:104EB0000000C28898203621FEF718FC09E040F275
:104EC000EC00C2F20000028998204821FEF70EFC97
:104ED000FFE73CE19DF82E0001460891032826D803
:104EE0000899DFE801F0020D182340F2FA00C2F23F
:104EF0000000B0F9002098200021FEF7F7FB16E033
:104F000040F2F800C2F20000B0F90020982012210F
:104F1000FEF7ECFB0BE040F2F600C2F20000B0F945
:104F2000002098202421FEF7E1FB00E0FFE70EE1DE
:104F30009DF82E000146079120B1FFE70798012850
:104F400001D001E000E0FFE701E19DF82E000146FD
:104F5000069140B1FFE70698012824D0FFE70698A4
:104F6000022841D04BE040F20410C2F2000090F958
:104F700001104DF2E460C0F6000050F8212040F22C
:104F80002000C2F2000003684068EC460021CCF823
:104F900008104FF4FC6ECCF804E0CCF80000982028
:104FA000FFF746FC2BE040F20410C2F2000090F93B
:104FB00002104DF2E460C0F6000050F8212040F2EB
:104FC0002000C2F200000368406869464FF0000C00
:104FD000C1F808C04FF4FC6CC1F804C00860982008
:104FE0001221FFF725FC0AE040F20410C2F2000093
:104FF00090F9002098202421FEF778FBFFE7A6E037
:105000009DF82E000146059140B1FFE70598012863
:1050100024D0FFE70598022841D04BE040F29410DD
:10502000C2F2000090F901104DF2E460C0F60000F9
:1050300050F8212040F22000C2F2000003684068CE
:10504000EC460021CCF808104FF4FC6ECCF804E0DC
:10505000CCF800009820FFF7EBFB2BE040F2941017
:10506000C2F2000090F902104DF2E460C0F60000B8
:1050700050F8212040F22000C2F20000036840688E
:1050800069464FF0000CC1F808C04FF4FC6CC1F841
:1050900004C0086098201221FFF7CAFB0AE040F222
:1050A0009410C2F2000090F9002098202421FEF70D
:1050B0001DFBFFE74BE09DF82E00014604910428FC
:1050C00037D80499DFE801F0030D17212B0040F2D7
:1050D000D800C2F20000026898200021FEF706FB0B
:1050E00027E040F2D800C2F2000042689820122166
:1050F000FEF7FCFA1DE040F2D800C2F20000826820
:1051000098202421FEF7F2FA13E040F2D800C2F210
:105110000000C26898203621FEF7E8FA09E040F264
:10512000D800C2F20000026998204821FEF7DEFA9A
:10513000FFE70CE09DF82E000146039120B1FFE748
:105140000398012801D001E000E0FFE7FFE70CB081
:1051500080BD000080B594B08DF84F008DF84E10E2
:105160009DF84F0001461191062800F20383119922
:10517000DFE811F007000A01B201BF015002E102AD
:10518000F3029DF84E0001461091042800F2FB80C6
:105190001099DFE801F003346596C70040F2EC0097
:1051A000C2F200000088129012A80A21002241F2E7
:1051B000707300F08FFC08B3FFE7129940F2EC0027
:1051C000C2F200000F900180008805F0ABFB41F2B5
:1051D0002152C2F200024EF20061C4F2AA61FBF752
:1051E000E3FC01460F9841F22052C2F20002117016
:1051F000028898200021FEF779FAFFE7C3E040F229
:10520000EC00C2F200004088129012A80A2100228D
:1052100041F2707300F05EFC08B3FFE7129940F2B0
:10522000EC00C2F200000E904180408805F07AFB4D
:1052300041F22152C2F200024EF20061C4F2AA61B0
:10524000FBF7B2FC01460E9841F22052C2F2000276
:105250001170428898201221FEF748FAFFE792E089
:1052600040F2EC00C2F200008088129012A80A21DD
:10527000002241F2707300F02DFC08B3FFE7129991
:1052800040F2EC00C2F200000D908180808805F0B1
:1052900049FB41F22152C2F200024EF20061C4F217
:1052A000AA61FBF781FC01460D9841F22052C2F23F
:1052B00000021170828898202421FEF717FAFFE778
:1052C00061E040F2EC00C2F20000C088129012A827
:1052D0000A21002241F2707300F0FCFB08B3FFE7E3
:1052E000129940F2EC00C2F200000C90C180C0881C
:1052F00005F018FB41F22152C2F200024EF20061A9
:10530000C4F2AA61FBF750FC01460C9841F220520E
:10531000C2F200021170C28898203621FEF7E6F929
:10532000FFE730E040F2EC00C2F20000008912908A
:1053300012A80A21002241F2707300F0CBFB08B3DF
:10534000FFE7129940F2EC00C2F200000B900181DD
:10535000008905F0E7FA41F22152C2F200024EF252
:105360000061C4F2AA61FBF71FFC01460B9841F2F1
:105370002052C2F200021170028998204821FEF7E3
:10538000B5F9FFE7FFE7F5E19DF84E0001460A9108
:10539000032800F2A0800A99DFE801F00250769C11
:1053A00040F2FA00C2F20000B0F90000129040F2A0
:1053B0001810C2F20000B0F8721012A848F20032C1
:1053C000CFF6FF724FF4FA4300F084FBA8B3FFE777
:1053D000129940F2FA00C2F2000009900180B0F97F
:1053E000002098200021FEF781F90998B0F900000B
:1053F00003F062FF40F21810C2F2000090F8700053
:1054000068B9FFE740F21810C2F2000090F86F1080
:1054100000EB8100C068800003F086FF0CE040F2E2
:105420001810C2F2000090F86F1000EB8100006BC2
:10543000800003F079FFFFE7FFE74CE040F2F8005F
:10544000C2F20000B0F90000129040F21810C2F24F
:105450000000B0F8721012A848F20032CFF6FF72C6
:105460004FF4FA4300F036FB68B1FFE7129940F2BF
:10547000F800C2F200000180B0F90020982012214B
:10548000FEF734F9FFE726E040F2F600C2F2000032
:10549000B0F90000129040F21810C2F20000B0F80B
:1054A000721012A848F20032CFF6FF724FF4FA439E
:1054B00000F010FB68B1FFE7129940F2F600C2F26B
:1054C00000000180B0F9002098202421FEF70EF999
:1054D000FFE7FFE7FFE74DE19DF84E000146089129
:1054E00020B1FFE70898012801D001E000E0FFE7C4
:1054F00040E19DF84E000146079140B1FFE7079853
:10550000012836D0FFE70798022865D081E040F2F5
:105510000410C2F2000090F90100129012A80121BB
:1055200000220F2300F0D6FA10B3FFE7129940F2E1
:105530000410C2F20000417090F901104DF2E460D5
:10554000C0F6000050F8212040F22000C2F2000016
:1055500003684068EC460021CCF808104FF4FC6E5C
:10556000CCF804E0CCF800009820FFF761F9FFE7E1
:105570004FE040F20410C2F2000090F902001290D5
:1055800012A8012100220F2300F0A4FA18B3FFE7AC
:10559000129940F20410C2F20000817090F90210DA
:1055A0004DF2E460C0F6000050F8212040F22000E7
:1055B000C2F200000368406869464FF0000CC1F871
:1055C00008C04FF4FC6CC1F804C008609820122198
:1055D000FFF72EF9FFE71CE040F20410C2F20000D2
:1055E00090F90000129012A8012100220F2300F070
:1055F00071FA68B1FFE7129940F20410C2F200009C
:10560000017090F9002098202421FEF76FF8FFE741
:10561000FFE7AFE09DF84E000146069140B1FFE77D
:105620000698012836D0FFE70698022865D081E069
:1056300040F29410C2F2000090F90100129012A8FA
:10564000012100220F2300F045FA10B3FFE7129961
:1056500040F29410C2F20000417090F901104DF236
:10566000E460C0F6000050F8212040F22000C2F2B1
:10567000000003684068EC460021CCF808104FF4A5
:10568000FC6ECCF804E0CCF800009820FFF7D0F8CE
:10569000FFE74FE040F29410C2F2000090F90200E0
:1056A000129012A8012100220F2300F013FA18B360
:1056B000FFE7129940F29410C2F20000817090F955
:1056C00002104DF2E460C0F6000050F8212040F2D4
:1056D0002000C2F200000368406869464FF0000CE9
:1056E000C1F808C04FF4FC6CC1F804C008609820F1
:1056F0001221FFF79DF8FFE71CE040F29410C2F280
:10570000000090F90000129012A8012100220F233E
:1057100000F0E0F968B1FFE7129940F29410C2F28C
:105720000000017090F9002098202421FDF7DEFF91
:10573000FFE7FFE71EE09DF84E00014605910428B3
:105740000AD80599DFE801F003040506070003E025
:1057500002E001E000E0FFE70CE09DF84E000146AA
:10576000049120B1FFE70498012801D001E000E096
:10577000FFE7FFE714B080BD80B586B042F2F410B9
:10578000C2F200000078C00700285CD1FFE740F6B5
:105790000830C2F200000590017801EBC101490018
:1057A000027840F23C00C2F2000050F8222040F2A1
:1057B0002000C2F2000003684068EC464FF0000E83
:1057C000CCF808E04FF4806ECCF804E0CCF8000090
:1057D0002E20FFF72DF805980078062808DCFFE753
:1057E00040F60831C2F2000108780130087006E086
:1057F00040F60831C2F2000100200870FFE740F6D1
:105800000830C2F20000017801EBC10149000278C2
:1058100040F23C00C2F2000050F8222040F220008A
:10582000C2F2000003684068EC464FF0000ECCF86E
:1058300008E04FF4FC6ECCF804E0CCF800002E2019
:10584000FEF7F6FF72E040F60932C2F20002039260
:10585000107800EBC000410040F60830C2F20000B2
:105860000490037840F20000C2F2000050F82300D8
:10587000127850F8222040F22000C2F200000368A3
:105880004068EC464FF0000ECCF808E04FF4806E14
:10589000CCF804E0CCF800002E20FEF7C9FF0398F6
:1058A000049900780A784DF2DC61C0F60001895C49
:1058B0000139884208DAFFE740F60931C2F20001F7
:1058C00008780130087006E040F60931C2F20001A4
:1058D00000200870FFE740F60932C2F2000210789B
:1058E00000EBC000410040F60830C2F2000003782F
:1058F00040F20000C2F2000050F82300127850F885
:10590000222040F22000C2F2000003684068EC460A
:105910004FF0000ECCF808E04FF4FC6ECCF804E039
:10592000CCF800002E20FEF783FFFFE706B080BD15
:1059300080B540F21440C4F201000068C0030028A2
:1059400016D5FFE740F21441C4F201014FF4803054
:10595000086047F20400C4F2000000684007002815
:1059600005D5FFE772B601F089F8FFE7FEE7FFE72C
:1059700080BD000041F21C01C4F20201086840F041
:10598000010008602821C4F20001002008802C21B9
:10599000C4F2000140F2FF3008801C21C4F2000173
:1059A000088840F4C0400880088840F400600880FF
:1059B0002021C4F20001088840F4805008804FF094
:1059C0008041088840F080000880088840F001008D
:1059D00008804021C4F20001642008807047000064
:1059E00041F21C01C4F20201086840F002000860A4
:1059F00040F22841C4F200010020088040F22C410E
:105A0000C4F2000140F2FF30088040F21C41C4F2B1
:105A10000001088840F4D040088040F22041C4F2E0
:105A20000001088840F48050088040F20041C4F230
:105A30000001088840F001000880704780B582B0FE
:105A400041F21C01C4F20201086840F08050086075
:105A500041F21801C4F20201086840F00100086038
:105A600047F20001C4F20001086820F0E00008607D
:105A7000086840F0E0000860086840F01000086026
:105A800040F20041C4F20101086840F4803008602F
:105A900040F20841C4F20101086840F48030086017
:105AA00040F20C41C4F20101086840F48030086003
:105AB00040F21441C4F201014FF48030086001202B
:105AC0000190002101F0E8F8019801F0CDF802B052
:105AD00080BD000087B0059004910392029342F6C6
