:020000040800F2
:1000000078280020C9010008D1010008852B0008CC
:10001000D5010008D7010008D90100080000000040
:10002000000000000000000000000000DB010008EC
:10003000DD01000800000000DF0100088960000801
:10004000E301000899530008E3010008E3010008F8
:10005000E3010008E3010008E3010008E3010008F0
:10006000E3010008291900083D190008E90F0008FC
:10007000E3010008E3010008E3010008E3010008D0
:10008000E3010008E3010008E3010008E3010008C0
:10009000E3010008E3010008E3010008511900082A
:1000A000E3010008E3010008E3010008E3010008A0
:1000B000E3010008E301000895620008E30100087D
:1000C000E3010008E3010008E3010008E301000880
:1000D000E3010008E3010008E3010008E301000870
:1000E00011190008E3010008E301000800F002F81C
:1000F00000F05AF80AA090E8000C82448344AAF168
:100100000107DA4501D100F04FF8AFF2090EBAE865
:100110000F0013F0010F18BFFB1A43F0010318473B
:1001200084D30000A4D300000A444FF0000C10F860
:10013000013B13F0070408BF10F8014B1D1108BF65
:1001400010F8015B641E05D010F8016B641E01F805
:10015000016BF9D113F0080F1EBF10F8014BAD1C55
:100160000C1B09D16D1E58BF01F801CBFAD505E073
:1001700014F8016B01F8016B6D1EF9D59142D6D3CD
:10018000704700000023002400250026103A28BFF5
:1001900078C1FBD8520728BF30C148BF0B607047F9
:1001A0001FB51FBD10B510BD00F066F91146FFF771
:1001B000F7FF08F0EDFA00F084F903B4FFF7F2FF5F
:1001C00003BC00F087F90000094880470948004750
:1001D000FEE7FEE7FEE7FEE7FEE7FEE7FEE7FEE7F7
:1001E000FEE7FEE704480549054A064B7047000054
:1001F00085610008ED0000087822002078280020A2
:100200007824002078240020002800DA404270473B
:10021000032A40F2308010F0030C00F0158011F832
:10022000013BBCF1020F624498BF11F801CB00F80A
:10023000013B38BF11F8013BA2F1040298BF00F85E
:1002400001CB38BF00F8013B11F0030300F06780D9
:10025000083AC0F0088051F8043B083A51F804CB42
:10026000A0E80810F5E7121D5CBF51F8043B40F808
:10027000043BAFF30080D20724BF11F8013B11F813
:1002800001CB48BF11F8012B24BF00F8013B00F857
:1002900001CB48BF00F8012B7047431A28BF9A4290
:1002A0007FF6B6AF10441144032A40F2268010F0C6
:1002B000030F1EBF11F8013D521E00F8013D10F062
:1002C000030F7FF4F6AF11F0030300F0A280083AA9
:1002D000C0F00B8051F8043D083A51F804CD40F8C5
:1002E000043D40F804CDFFF7F3BF121D5CBF51F889
:1002F000043D40F8043DAFF30080D20724BF11F85D
:10030000013D11F801CD48BF11F8012C24BF00F8C0
:10031000013D00F801CD48BF00F8012C704710B531
:10032000203AC0F00B80B1E81850A0E81850B1E8AE
:100330001850A0E81850203ABFF4F5AF5FEA027CED
:1003400024BFB1E81850A0E8185044BF18C918C01D
:10035000BDE810405FEA827C24BF51F8043B40F8BE
:10036000043B08BF7047D20728BF31F8023B48BFA3
:1003700011F8012B28BF20F8023B48BF00F8012BE1
:1003800070474FF0000200B5134694469646203958
:1003900022BFA0E80C50A0E80C50B1F12001BFF43E
:1003A000F7AF090728BFA0E80C5048BF0CC05DF8A4
:1003B00004EB890028BF40F8042B08BF704748BFF2
:1003C00020F8022B11F0804F18BF00F8012B704766
:1003D00070477047704710B500F046F8006810BDD0
:1003E00010B5044600F040F8046010BD431A28BF61
:1003F0009A427FF694AF1044114410F0030F1EBFD1
:1004000011F8013D521E00F8013D10F0030F7FF47A
:10041000F6AF103AC0F00A8010B531E9185020E963
:100420001850103ABFF4F9AFBDE81040530724BF8D
:1004300031E9081020E9081044BF51F8043D40F8A4
:10044000043D12F0030F08BF7047D20728BF31F8F0
:10045000023D48BF11F8012C28BF20F8023D48BFDB
:1004600000F8012C70470000004870473802002057
:1004700000487047380200207546FFF7F9FFAE4686
:1004800005006946534620F00700854618B020B5A0
:10049000FFF7A8FEBDE820404FF000064FF0000730
:1004A0004FF000084FF0000BAC46ACE8C009ACE8D8
:1004B000C009ACE8C009ACE8C00921F007018D46CD
:1004C000704710B50446AFF300802046BDE81040E9
:1004D000FFF773BE01491820ABBEFEE726000200FD
:1004E0007047000080B584B01021C4F2020142F2CE
:1004F0004C40C4F20100086040F2B020C2F200009B
:100500001421C4F2020108600C21C4F2020110207F
:1005100008600821C4F20201086840F6A6221043D0
:100520000860086840F0010008600B20009001217D
:1005300006F0BEF9009806F0A3F942F20841C4F2B1
:1005400001010391086840F0010008600A20019051
:1005500008F042F8019842F60802C4F20102029241
:10056000116841F00101116008F036F8029A039910
:1005700042F23443C4F2010304201860086840F2D8
:100580000313C0F21E031843086042F20443C4F28E
:100590000103186840F400301860186840F48020A7
:1005A000186042F21043C4F20103186820F4E040DE
:1005B0001860186840F400501860186840F48050C3
:1005C000186042F63403C4F2010307201860106873
:1005D0000323C0F21E0318431060086840F00400B3
:1005E0000860FFE742F20840C4F2010000684007DB
:1005F000002801D5FFE7F5E742F60801C4F2010142
:10060000086840F004000860FFE742F60800C4F202
:10061000010000684007002801D5FFE7F5E704B0B6
:1006200080BD000080B586B08DF817009DF81700DA
:10063000013801460491072800F293800499DFE80D
:1006400001F0043435525354557A41F22060C2F21D
:1006500000000078C00738BBFFE740F2A810C2F2E4
:10066000000090F8700058B1FFE740F2A810C2F205
:10067000000090F86F1000EB8101086BC8600AE081
:1006800040F2A810C2F2000090F86F1000EB810158
:10069000C8680863FFE705F099F805F01FFC05F04E
:1006A00019FB05F0CFFAFFE75CE05BE041F2206068
:1006B000C2F200000078C00748B9FFE741F22061AC
:1006C000C2F200010120087004F032F80AE041F2A1
:1006D0002061C2F200010020087005F0F7F905F072
:1006E000FDFBFFE73EE03DE03CE03BE040F2A810D0
:1006F000C2F2000090F86F10084490F854000128EE
:100700000BD1FFE740F2A810C2F2000090F86F1082
:100710000144002081F854000AE040F2A810C2F21F
:10072000000090F86F100144012081F85400FFE7A9
:1007300004F0EAFF16E040F22000C2F20000036875
:100740004068694600228A604FF4FC624A60086093
:100750004CF68442C0F600021E21084603F048FD14
:1007600000E0FFE706B080BD80B584B08DF80F00D3
:100770009DF80F00013801460291072800F2C2815E
:100780000299DFE811F0080032006600C200E300C1
:10079000170138017D0141F22060C2F200000078AB
:1007A000C00708BBFFE740F2A810C2F2000090F8B3
:1007B000700040B1FFE740F2A811C2F20001002032
:1007C00081F8700007E040F2A811C2F20001012098
:1007D00081F87000FFE704F0F9FF05F07FFB05F0FA
:1007E00079FA05F02FFAFFE78DE141F22060C2F2BD
:1007F00000000078C00740BBFFE740F2A810C2F23B
:10080000000090F86F0007280ADCFFE740F2A8110B
:10081000C2F2000191F86F00013081F86F0007E02B
:1008200040F2A811C2F20001002081F86F00FFE73A
:1008300005F05AF804F0CAFF05F050FB05F04AFA3B
:1008400005F000FA04F060FF02E004F0C9FCFFE7E5
:1008500059E141F22060C2F200000078C007002890
:100860004DD1FFE740F29010C2F20000007803285B
:1008700008DCFFE740F29011C2F200010878013075
:10088000087006E040F29011C2F2000100200870EA
:10089000FFE740F2A810C2F2000090F8700078B9AB
:1008A000FFE740F29010C2F20000007840F2A81179
:1008B000C2F2000191F86F20114481F85D00FFE75A
:1008C00040F2A810C2F2000090F8700001280FD189
:1008D000FFE740F29010C2F20000007840F2A81149
:1008E000C2F2000191F86F20114481F86600FFE721
:1008F00005F0F4FA05F0EEF905F0A4F904E003F0D0
:10090000F9FD03F015FFFFE7FDE041F22060C2F2C0
:1009100000000078C007C0B9FFE742F27120C2F2C0
:100920000000007838B1FFE742F27121C2F2000105
:100930000020087006E042F27121C2F2000101209D
:100940000870FFE705F05CFAFFE7DCE041F22060A9
:10095000C2F200000078C00740BBFFE740F2A810D9
:10096000C2F2000090F86F0001280ADBFFE740F2B6
:10097000A811C2F2000191F86F00013881F86F00F0
:1009800007E040F2A811C2F20001082081F86F00D0
:10099000FFE704F0A9FF04F019FF05F09FFA05F046
:1009A00099F905F04FF904F0AFFE02E003F0E2FD23
:1009B000FFE7A8E041F22060C2F200000078C00723
:1009C000C0B9FFE742F27120C2F20000407838B1AE
:1009D000FFE742F27121C2F200010020487006E0F8
:1009E00042F27121C2F2000101204870FFE705F0D8
:1009F00029F9FFE787E040F2A810C2F20000B0F842
:100A00007200014601910A2819D0FFE70198642875
:100A10000DD0FFE70198B0F57A7F18D1FFE740F2DB
:100A2000A811C2F200016420A1F8720018E040F29F
:100A3000A811C2F200010A20A1F8720010E040F2F1
:100A4000A811C2F200010120A1F8720008E040F2F2
:100A5000A811C2F200014FF47A70A1F87200FFE70A
:100A600040F2A810C2F20000B0F8720041F220611A
:100A7000C2F20001097801F0010105F05DF842E0E1
:100A800041F22060C2F200000078C007C8BBFFE757
:100A900042F26400C2F200000078C00738B9FFE7F4
:100AA00042F26401C2F200010120087006E042F245
:100AB0006401C2F2000100200870FFE742F2640006
:100AC000C2F200000078C00768B9FFE7694600205D
:100AD00008602E2067210A224FF4FC6303F058FCC3
:100AE00004F078FD0CE06946002008602E206721A4
:100AF0000B224FF4784303F04BFC05F005FEFFE7B3
:100B0000FFE700E0FFE704B080BD000080B590B0D3
:100B10000F900E910D9240F6DB70C4F249000C90DC
:100B20000C980F9909F0E6FC0E9909F03DFB08F0CE
:100B300045FF0B900B99084609F0DCFC0A9047F63C
:100B4000FA60C3F60A7009900A9800900B98099908
:100B500009F02AFB0146009809F088FA4FF07E510F
:100B6000049109F083FA08900A98089909F01CFB8F
:100B70004FF08D41059109F0BDFC09F00BFC0D997A
:100B800008610A99084609F071FA089909F00CFB06
:100B9000059909F0AFFC09F0FDFB04990D9A50612D
:100BA0000D9A106990610A9809F0AAFD014608465D
:100BB00009F05CFA089909F0F7FA059909F09AFC2E
:100BC00009F0E8FB0D99C8610A9801900B98099902
:100BD00009F0EAFA0146019809F092FD049909F03A
:100BE00045FA089909F0E0FA059909F083FC09F043
:100BF000D1FB0D99086242F60230C3F6A770079048
:100C00000A9802900B98079909F0CEFA01460298CB
:100C100009F02CFA049909F029FA06900A98069925
:100C200009F0C2FA059909F065FC09F0B3FB0D99CA
:100C300048630A99084609F019FA069909F0B4FAC6
:100C4000059909F057FC09F0A5FB04990D9A9063EA
:100C50000D9A506BD0630A9809F052FD0146084680
:100C600009F004FA069909F09FFA059909F042FC87
:100C700009F090FB0D9908640A9803900B98079966
:100C800009F092FA0146039809F03AFD049909F037
:100C9000EDF9069909F088FA059909F02BFC09F09D
:100CA00079FB0D9948640D99002008600D99486002
:100CB0000D9988600D99C8600D9948620D998862F8
:100CC0000D99C8620D99086310B080BD80B59AB0C7
:100CD00019901891179240F6DB70C4F249001690F3
:100CE000189815901998149014980021C4F248414E
:100CF00009F040FA01460820002918BF02208DF8AB
:100D00004F00179828B1FFE79DF84F00179908701A
:100D1000FFE79DF84F0009F071FB0146084609F016
:100D2000A5F912901698149909F0E4FB159909F0A9
:100D30003BFA08F043FE11901199084609F0DAFBDE
:100D4000109000200F90FFE70F989DF84F108842F9
:100D500080F2AF80FFE7169800900F9809F036FBFD
:100D60000146084609F082F94FF07E51049109F0DE
:100D70007DF90146009809F0BDFB019012990846E3
:100D800009F074F90146019809F00EFA0E900E98D8
:100D900008F056FD0146084609F068F90146049836
:100DA00009F002FA0D901098029011980D9909F02F
:100DB000FBF90146029809F059F9049909F056F92E
:100DC0000C9010980C9909F0EFF90B900B990846CC
:100DD00009F04CF904990A900B980990109809F0C1
:100DE0008FFC0146084609F041F90C9909F0DCF93D
:100DF00008901098039011980D9909F0D5F90146C3
:100E0000039809F07DFC049909F030F90C9909F078
:100E1000CBF907900B984FF09D41059109F06AFBC3
:100E200009F0B8FA05990F9A02EB820341F2FC42ED
:100E3000C2F20002069242F823000A9809F05AFB17
:100E400009F0A8FA0599069A0F9B03EB830302EBBE
:100E500083025060099809F04DFB09F09BFA05994F
:100E6000069A0F9B03EB830302EB830290600898C2
:100E700080F0004009F03EFB09F08CFA0599069AD3
:100E80000F9B03EB830302EB8302D060079880F093
:100E9000004009F02FFB09F07DFA06990F9A02EB4A
:100EA000820201EB82010861FFE70F9801300F9089
:100EB0004AE701201AB080BD80B582B041F200013E
:100EC000C4F20201086840F480300860FFE741F294
:100ED0000000C4F2020000688003002802D4FFE78B
:100EE00000BFF4E742F20001C4F2020108680222E6
:100EF00062F30200086041F20401C4F202014FF4FF
:100F00004710086041F20001C4F20201086840F095
:100F100080700860FFE741F20000C4F20200006840
:100F20008001002802D4FFE700BFF4E741F204018A
:100F3000C4F202010868022262F301000860FFE7C0
:100F400041F20400C4F20200006800F00C0008281E
:100F500002D0FFE700BFF3E74EF21401CEF200012A
:100F60004BF27F50C0F2010008604EF21801CEF241
:100F70000001002008604EF21001CEF200010720AF
:100F800008604FF0FF3001900F2105F091FC0198AF
:100F900005F076FC41F21401C4F20201086840F049
:100FA0000100086041F21801C4F20201086840F62D
:100FB0001D621043086041F21C01C4F2020108687E
:100FC00044F20702C1F22002104308600421C4F277
:100FD000010108680222C0F20022104320F0A06044
:100FE000086002B080BD0000B0B59EB00020C4F221
:100FF000020000684007002840F18681FFE70421D5
:10100000C4F20201086840F00400086040F2B02019
:10101000C2F200001D9040F64C60C2F200001C902D
:1010200040F64860C2F200001B9040F63064C2F205
:10103000000420681A9040F6346EC2F2000EDEF80A
:101040000000199040F6386CC2F2000CDCF8000089
:10105000189042F24C03C2F200031868179042F253
:101060005002C2F200021068169042F25401C2F21D
:101070000001086815901D98851C1D9505881A9813
:1010800028441A901A9D199828441990199D189867
:10109000284418901D98851C1D950588179828448C
:1010A0001790179D169828441690169D1598284459
:1010B00015901D98851C1D9505881A9828441A902E
:1010C0001A9D199828441990199D18982844189029
:1010D0001D98851C1D950588179828441790179D05
:1010E000169828441690169D1598284415901D981A
:1010F000851C1D9505881A9828441A901A9D1998E0
:1011000028441990199D1898284418901D98851CFA
:101110001D950588179828441790179D1698284400
:101120001690169D1598284415901D98851C1D95A0
:1011300005881A9828441A901A9D199828441990DD
:10114000199D1898284418901D98851C1D95058890
:10115000179828441790179D169828441690169DA6
:101160001598284415901D98851C1D9505881A987A
:1011700028441A901A9D199828441990199D189876
:10118000284418901D98851C1D950588179828449B
:101190001790179D169828441690169D1598284468
:1011A00015901D98851C1D9505881A9828441A903D
:1011B0001A9D199828441990199D18982844189038
:1011C0001D98851C1D950588179828441790179D14
:1011D000169828441690169D1598284415901D9829
:1011E000851C1D9505881A9828441A901A9D1998EF
:1011F00028441990199D1898284418901D98851C0A
:101200001D950588179828441790179D169828440F
:101210001690169D1598284415901D98851C1D95AF
:1012200005881A9828441A901A9D199828441990EC
:10123000199D1898284418901D98851C1D9505889F
:10124000179828441790179D169828441690169DB5
:101250001598284415901A9820601998CEF8000027
:101260001898CCF800001798186016981060159818
:101270000860189840F61861C2F200010A68801AE6
:10128000149018980860149840F61C61C2F200018E
:101290000A68801A139014980860139840F6206129
:1012A000C2F200010A68801A12901398086015981B
:1012B00042F23401C2F200010A68801A11901598B6
:1012C0000860119842F23801C2F200010A68801ADF
:1012D000109011980860109842F23C01C2F200018F
:1012E0000A68801A0F90109808601298A0F5801074
:1012F00080091C9908800F98A0F5801080091B991F
:10130000088000F02FFBFFE70020C4F20200006815
:101310008007002840F18781FFE70421C4F2020121
:10132000086840F00200086040F2B020C2F20000FD
:1013300020300E9040F64C60C2F200000D9040F656
:101340004860C2F200000C9040F63064C2F2000423
:1013500020680B9040F6346EC2F2000EDEF80000FA
:101360000A9040F6386CC2F2000CDCF800000990DC
:1013700042F24C03C2F200031868089042F2500295
:10138000C2F200021068079042F25401C2F200015A
:10139000086806900E98851C0E9505880B982844C1
:1013A0000B900B9D0A9828440A900A9D099828449E
:1013B00009900E98851C0E95058808982844089079
:1013C000089D079828440790079D06982844069092
:1013D0000E98851C0E9505880B9828440B900B9D44
:1013E0000A9828440A900A9D0998284409900E9862
:1013F000851C0E950588089828440890089D079834
:1014000028440790079D0698284406900E98851C4E
:101410000E9505880B9828440B900B9D0A9828443C
:101420000A900A9D0998284409900E98851C0E95EB
:101430000588089828440890089D07982844079034
:10144000079D0698284406900E98851C0E950588E1
:101450000B9828440B900B9D0A9828440A900A9DEB
:101460000998284409900E98851C0E9505880898BF
:1014700028440890089D079828440790079D0698DF
:10148000284406900E98851C0E9505880B982844D4
:101490000B900B9D0A9828440A900A9D09982844AD
:1014A00009900E98851C0E95058808982844089088
:1014B000089D079828440790079D069828440690A1
:1014C0000E98851C0E9505880B9828440B900B9D53
:1014D0000A9828440A900A9D0998284409900E9871
:1014E000851C0E950588089828440890089D079843
:1014F00028440790079D0698284406900E98851C5E
:101500000E9505880B9828440B900B9D0A9828444B
:101510000A900A9D0998284409900E98851C0E95FA
:101520000588089828440890089D07982844079043
:10153000079D0698284406900E98851C0E950588F0
:101540000B9828440B900B9D0A9828440A900A9DFA
:101550000998284409900E98851C0E9505880898CE
:1015600028440890089D079828440790079D0698EE
:10157000284406900B9820600A98CEF8000009983D
:10158000CCF800000898186007981060069808606A
:10159000099840F61861C2F200010A68801A0590A5
:1015A00009980860059840F61C61C2F200010A68BB
:1015B000801A049005980860049840F62061C2F2F1
:1015C00000010A68801A039004980860069842F2A5
:1015D0003401C2F200010A68801A0290069808607D
:1015E000029842F23801C2F200010A68801A0190A2
:1015F00002980860019842F23C01C2F200010A68B8
:10160000801A0090019808600398A0F58010800966
:101610000D9908800098A0F5801080090C99088029
:1016200000F0A0F9FFE71EB0B0BD000080B588B0A3
:1016300006F046FF40F60861C2F200017F200880F4
:1016400040F28860C2F20000886041F63460C2F265
:1016500000004860FE20079000200690FFE70698F3
:10166000079988420DD2FFE7069A41F63461C2F22B
:101670000001002021F81200FFE7069801300690D3
:10168000EDE740F29010C2F200000290017840F2C3
:10169000E400C2F20000039030F8110008F0AEFE42
:1016A00041F29D52C2F2000205924EF20061C4F274
:1016B000AA61FFF70BFB02990246039841F29C5383
:1016C000C2F200031A70097830F8110008F096FE93
:1016D00040F20012C2F200024BF60021C4F2267161
:1016E0000491FFF713FA02990398097830F8110072
:1016F00008F084FE049940F24812C2F20002FFF79B
:1017000005FA0598017841F2A050C2F200006A463D
:10171000106040F2A020C2F2000041F25C42C2F22E
:10172000000241F2FC43C2F2000305F073F808B076
:1017300080BD000010B58CB0ADF82E00ADF82C10B7
:1017400040F2A210C2F200000088E72807DBFFE7A2
:1017500040F2A411C2F2000100200880D6E040F25D
:10176000A210C2F200000088C0F1E7014FF47040FF
:1017700090FBF1F040F2A411C2F2000108800A20AF
:10178000ADF82A00FFE7BDF82A00EA2811DCFFE7E0
:10179000BDF82C000130BDF82A1080B224220023AD
:1017A00001F0EEFAFFE7BDF82A000130ADF82A009B
:1017B000E9E70A20ADF82A00FFE7BDF82A00EA2889
:1017C00011DCFFE7BDF82C000130BDF82A1080B213
:1017D0002422002301F0D4FAFFE7BDF82A000130EB
:1017E000ADF82A00E9E7BDF92E0040F2A9214843EF
:1017F0000012099000208DF82300FFE79DF82300D8
:101800000E2800F28380FFE79DF8230000EB4001E3
:101810004AF6EC00C0F6000030F8210009990844AF
:1018200080380790079840F2A211C2F2000109889F
:10183000401A06900698B0F1FF3F01DCFFE75FE039
:10184000069840F2A411C2F2000109884843001230
:1018500005900598F12801DBFFE751E00598C0F1FC
:10186000F000ADF81200BDF812000A2805DBFFE712
:10187000BDF81200E72801DBFFE741E09DF82300F7
:1018800000EB40014AF6EC00C0F6000000EB8100DE
:10189000007A40B3FFE7BDF82C000130BDF812100C
:1018A00004399DF8232002EB42034AF6EC02C0F60D
:1018B000000202EB8302526840F2280CC2F2000CD4
:1018C000DCF80030DCF804C0EE460024CEF8084016
:1018D0004FF48064CEF80440CEF800C080B289B2E4
:1018E00002F086FC0BE0BDF82C000130BDF81210B0
:1018F00080B202224FF4806301F042FAFFE7FFE773
:101900009DF8230001308DF8230077E70CB010BD5F
:1019100080B540F21441C4F201014FF40040086068
:1019200004F08EFB80BD000080B540F21441C4F28B
:1019300001010820086004F083FB80BD80B540F2FF
:101940001441C4F201011020086004F079FB80BD4D
:1019500080B540F21441C4F201014020086004F057
:101960006FFB80BD80B5B2B040F64861C2F20001A5
:10197000B1F9000040F2F802C2F20002B2F9002010
:10198000424300EBE2301090109800F30E00088004
:1019900040F64C63C2F20003B3F90000109A40F223
:1019A000FA0CC2F2000CBCF900C002FB0CF200EB16
:1019B000E2300F900F9800F30E0018800888ADF801
:1019C0003A001888ADF83800B1F9000040F29822CA
:1019D000C2F20002B2F900C0A0EB0C0C00EB9C00BC
:1019E0000880B3F9000040F29A21C2F20001B1F977
:1019F00000C0A0EB0C0C00EB9C001880BDF83A0076
:101A00001080BDF8380008800020ADF83600ADF831
:101A1000340042F27720C2F20000007801460B91B8
:101A2000032844D80B99DFE801F00211213240F677
:101A30004860C2F200000088ADF8360040F64C6005
:101A4000C2F200000088ADF8340030E040F64C608F
:101A5000C2F2000000884042ADF8360040F648600F
:101A6000C2F200000088ADF8340020E040F6486083
:101A7000C2F2000000884042ADF8360040F64C60EB
:101A8000C2F2000000884042ADF834000FE040F69A
:101A90004C60C2F200000088ADF8360040F64860A5
:101AA000C2F2000000884042ADF83400FFE742F285
:101AB0007721C2F200010878013000F003000870BD
:101AC000BDF8360040F64861C2F200010880BDF85A
:101AD000342040F64C60C2F200000280B1F90030C0
:101AE00040F63C61C2F200010A681A440A600B68C1
:101AF00040F64061C2F200010A681A440A600B68AD
:101B000040F64462C2F20002116819441160B0F953
:101B1000002042F25800C2F2000001681144016046
:101B2000026842F25C00C2F20000016811440160E8
:101B3000026842F26001C2F20001086810440860C5
:101B400042F27420C2F20000018801310180B0F934
:101B5000000040F23021C2F20001B1F900108842C9
:101B600008DAFFE742F27621C2F200010020087095
:101B700000F025BC42F27421C2F20001002008806E
:101B800040F64460C2F2000000680C900C9840F6E9
:101B90002461C2F200010A68801A40F64A62C2F269
:101BA000000210800C980860B2F900000C900C98AC
:101BB00040F62861C2F200010B68C01A10800C9830
:101BC0000860B2F900000C900C9840F62C61C2F24B
:101BD00000010B68C01A10800C98086042F2600087
:101BE000C2F2000000680C900C9842F24001C2F270
:101BF00000010A68801A40F64E62C2F200021080AC
:101C00000C980860B2F900000C900C9842F2440164
:101C1000C2F200010B68C01A10800C980860B2F97B
:101C200000000C900C9842F24801C2F200010B68CF
:101C3000C01A10800C98086040F23020C2F20000F8
:101C4000B0F90000022811D1FFE740F64A61C2F264
:101C50000001B1F900008008088040F64E61C2F230
:101C60000001B1F900008008088010E040F64A61E8
:101C7000C2F20001B1F900004009088040F64E614F
:101C8000C2F20001B1F9000040090880FFE742F20A
:101C90006400C2F200000078C007002840F009820A
:101CA000FFE740F64E60C2F200000088404240F27A
:101CB0007061C2F200010A8841F25021C2F20001B3
:101CC00021F8120040F27262C2F20002108840F65F
:101CD0008A31C2F2000131F8100041F22E63C2F2E3
:101CE0000003188040F64A60C2F2000000881288A3
:101CF00021F8120040F29010C2F200000078C8B93A
:101D0000FFE740F64A60C2F20000B0F9000040F67A
:101D10004E61C2F20001B1F90010084440F2706156
:101D2000C2F200010A8840F65061C2F2000141F897
:101D30002200FFE740F29010C2F200000078012874
:101D400019D1FFE740F27060C2F20000028841F250
:101D50003060C2F2000030F9120041F22E61C2F28E
:101D60000001B1F90010084440F65061C2F20001D0
:101D700041F82200FFE740F29010C2F20000007824
:101D8000022819D1FFE740F27060C2F20000028819
:101D900041F23060C2F2000030F9120041F22E61CF
:101DA000C2F20001B1F90010401A40F65061C2F2CF
:101DB000000141F82200FFE740F29010C2F200005B
:101DC000007803284CD1FFE740F64A60C2F20000D9
:101DD000B0F90000099000280A9002D50998404205
:101DE0000A900A98129040F64E60C2F20000B0F9D4
:101DF000000007900028089002D5079840420890FC
:101E00000898119012981199884214DDFFE71298F2
:101E1000A0EB6010119900EBA10000EBE10040F293
:101E20007061C2F200010A8840F65061C2F20001FE
:101E300041F8220013E01198A0EB6010129900EB1A
:101E4000A10000EBE10040F27061C2F200010A88DB
:101E500040F65061C2F2000141F82200FFE7FFE7BF
:101E600040F27060C2F20000018841F63000C2F218
:101E7000000050F8210042F26801C2F20001B1F9FD
:101E80000010884211DDFFE740F27060C2F20000EE
:101E9000018841F63000C2F2000050F8210042F201
:101EA0006801C2F200010880FFE740F27060C2F2F0
:101EB0000000018841F63000C2F2000050F8210015
:101EC000309040F29410C2F200002F903098FEF74C
:101ED0009BF92E902E982F994968401A2D902D9895
:101EE00001281ADBFFE72F9890F90100012806DB93
:101EF000FFE72F9890F901000138069002E00020DA
:101F00000690FFE706982C902D982C9940FA01F244
:101F10002F9948681044486026E02F9890F90200F5
:101F2000052806DBFFE72F9890F90200043805909A
:101F300002E001200590FFE705982B902D982B9942
:101F400008412A902A9848B9FFE72D98B0F1FF3F41
:101F500004DCFFE74FF0FF302A90FFE72A9A2F9921
:101F6000486810444860FFE72F9890F9001001205E
:101F7000884029902998A0EBE00028904FF4004079
:101F800027902F984068289988420CDDFFE7289811
:101F9000C00326902F984068259026982599B0FB7D
:101FA000F1F02790FFE727982F998968401A24902D
:101FB0002498B0F1FF3F0ADCFFE724982F9991F9AC
:101FC000012040FA02F288681044886015E02498E5
:101FD0002F9991F9021008412390239838B9FFE70F
:101FE0002498012803DBFFE701202390FFE7239AD1
:101FF0002F99886810448860FFE730982F99896886
:102000004843C0132290229829990139884204DD5F
:10201000FFE7299801382290FFE722982999494241
:10202000884204DAFFE7299840422290FFE72F9880
:1020300090F90000082809DCFFE72F9890F90000CC
:10204000C0F109012298884022900FE02F9890F962
:1020500000000A2809DBFFE72F9890F90000A0F1A3
:102060000901229808412290FFE7FFE7229940F2F8
:102070009210C2F200000180018840F2A810C2F262
:10208000000090F87A00ADF8C6108DF8C500BDF9D3
:10209000C6009DF8C5204DF2DA11C0F6000131F9F5
:1020A00012104843C00B41F63061C2F200010880B3
:1020B00058E140F64E60C2F20000B0F9001040F264
:1020C0007060C2F20000038840F65062C2F2000263
:1020D00042F82310018841F63000C2F2000050F8A7
:1020E000211042F26600C2F200000180B0F9000047
:1020F000B0F1FF3F08DCFFE742F26601C2F20001E7
:10210000088840420880FFE742F26600C2F2000001
:10211000B0F9000042F26801C2F20001B1F900100A
:1021200088420BDDFFE742F26600C2F20000008841
:1021300042F26801C2F200010880FFE740F27060DD
:10214000C2F20000018841F63000C2F2000050F8EF
:102150002100219040F22420C2F20000209021981A
:10216000FEF752F81F901F9820994968401A1E9058
:102170001E9801281ADBFFE7209890F9010001283A
:1021800006DBFFE7209890F901000138049002E097
:1021900000200490FFE704981D901E981D9940FAB6
:1021A00001F2209948681044486026E0209890F990
:1021B0000200052806DBFFE7209890F902000438AA
:1021C000039002E001200390FFE703981C901E9803
:1021D0001C9908411B901B9848B9FFE71E98B0F165
:1021E000FF3F04DCFFE74FF0FF301B90FFE71B9A37
:1021F0002099486810444860FFE7209890F9001043
:10220000012088401A901A98A0EBE00019904FF432
:102210000040189020984068199988420CDDFFE72B
:102220001998C0031790209840681690179816992F
:10223000B0FBF1F01890FFE7189820998968401AD0
:1022400015901598B0F1FF3F0ADCFFE7159820992B
:1022500091F9012040FA02F288681044886015E084
:102260001598209991F9021008411490149838B9E2
:10227000FFE71598012803DBFFE701201490FFE733
:10228000149A2099886810448860FFE72198209963
:1022900089684843C013139013981A9901398842EA
:1022A00004DDFFE71A9801381390FFE713981A9995
:1022B0004942884204DAFFE71A9840421390FFE748
:1022C000209890F90000082809DCFFE7209890F991
:1022D0000000C0F109011398884013900FE0209886
:1022E00090F900000A2809DBFFE7209890F9000028
:1022F000A0F10901139808411390FFE7FFE7139835
:10230000820140F27060C2F20000038841F2502165
:10231000C2F2000121F8132040F27263C2F20003FE
:10232000B3F800C040F68A32C2F2000232F81CC094
:1023300041F22E6EC2F2000EAEF800C0B0F800C03E
:1023400031F81C101B8822F81310018841F230600C
:10235000C2F2000030F8110040F29211C2F2000106
:102360000880FFE740F27060C2F20000018801318E
:1023700001800088B0F5807F07DBFFE740F27061E5
:10238000C2F2000100200880FFE740F27260C2F252
:1023900000000188013101800088B0F59F7F07DDD2
:1023A000FFE740F27261C2F2000100200880FFE7FF
:1023B00042F27621C2F2000101200870FFE742F2EA
:1023C0006400C2F200000078C00700285ED1FFE779
:1023D00041F63060C2F20000029040F24811C2F2B1
:1023E000000100F0C9F8029840F20011C2F20001A9
:1023F00000F0C2F80298008800F5007040F24041F9
:10240000C4F20001088040F27460C2F2000000884B
:1024100040F2FE01C2F200010988884228DAFFE793
:1024200040F61460C2F200000078C00700BBFFE76E
:1024300040F64C60C2F200000088800040F27461F7
:10244000C2F200010B8840F28872C2F2000222F848
:10245000230040F64860C2F200000088404280003D
:102460000B8802EB830250800888013008800CE062
:1024700040F27461C2F200010020088040F614614D
:10248000C2F2000101200870FFE772E041F22E6005
:10249000C2F20000009040F20011C2F2000100F010
:1024A0006BF840F29210C2F20000019040F2481125
:1024B000C2F2000100F060F800990198B1F9001033
:1024C00001F30F0247F6FF710A44920940F23443C8
:1024D000C4F200031A80B0F9000000F30F000844B2
:1024E00080094021C4F20001088040F27460C2F209
:1024F0000000008840F2FE01C2F200010988884213
:1025000029DAFFE740F61460C2F200000078C00745
:1025100008BBFFE741F22E60C2F20000B0F90000F4
:10252000800840F27461C2F200010B8840F28872A8
:10253000C2F2000222F8230040F29210C2F2000020
:10254000B0F9000080080B8802EB830250800888F5
:10255000013008800CE040F27461C2F200010020FA
:10256000088040F61461C2F2000101200870FFE704
:10257000FFE732B080BD0000B0B58AB00990089185
:102580000998B0F900000490049C089B01931D6910
:1025900059691868D3F804E0D3F808C0DA6880FBFA
:1025A0000110C4FB05109C69CEFB0410D3F81CE09D
:1025B0008CFB0EECB1EB0E0160EB0C001B6A82FB96
:1025C0000332C91A90410691079006980799800B2B
:1025D00040EA814005900899086848600498089985
:1025E000086008998868C860059808998860059C03
:1025F000089B02935D6B996B586AD3F828E0D3F877
:102600002CC01A6B80FB0110C4FB0510DC6BCEFBE9
:102610000410D3F840E08CFB0EECB1EB0E0160EB44
:102620000C005B6C82FB0332C91A90410691079043
:1026300006980799800B40EA814003900899486A00
:1026400088620598089948620899C86A08630398DF
:102650000899C8620398B0F5004F04DBFFE747F61E
:10266000FF7003900BE0039810F5004F06DAFFE7C8
:1026700048F20000CFF6FF700390FFE7FFE70398F2
:10268000099908800AB0B0BD81B00090FFE742F21E
:102690000C00C4F202000068C00708B1FFE7F6E7CB
:1026A00042F21001C4F20201086840F00200086022
:1026B000009842F21402C4F202021060086840F06E
:1026C00040000860FFE742F20C00C4F2020000681C
:1026D000C00708B1FFE7F6E742F21001C4F20201B9
:1026E000086820F00200086001B0704742F2100153
:1026F000C4F20201086840F08000086070470000E2
:1027000042F21000C4F202000068000600280FD553
:10271000FFE742F20401C4F2020140F22310C4F2C6
:102720006750086048F6AB10CCF6EF500860FFE742
:1027300042F20C01C4F20201086840F03400086063
:102740007047000087B00690059142F21001C4F274
:102750000201086840F0010008600598049006989E
:1027600003903E20029001208DF807000020009089
:10277000FFE70098029988422FD2FFE7FFE742F275
:102780000C00C4F202000068C00708B1FFE7F6E7DA
:102790000498009A30F81200039921F81200FFE71C
:1027A00042F20C00C4F202000068C00708B1FFE763
:1027B000F6E70398009930F811000499009A31F86F
:1027C0001210884204D0FFE700208DF8070004E0D3
:1027D000FFE7009801300090CBE7FFE742F20C00E2
:1027E000C4F202000068C00708B1FFE7F6E742F252
:1027F0001001C4F20201086820F0010008609DF891
:10280000070000F0010007B07047000040F60442E6
:10281000C4F2010210684FF6FF71C0F60F71084054
:102820001060106840F430001060106840F03040D4
:102830001060106820F070601060106840F08060D8
:10284000106040F60401C4F20101086820F47060D1
:102850000860086840F440700860086820F4704020
:102860000860086840F440500860086820F4702050
:102870000860086840F44030086040F60001C4F287
:102880000101086820F0C0000860086820F03000EE
:102890000860086840F010000860086820F00C002C
:1028A0000860086820F003000860086840F0010034
:1028B000086041F20403C4F20103186820F04040AC
:1028C0001860186820F040501860186840F0805078
:1028D0001860186820F040601860186820F0407098
:1028E0001860186840F080701860186820F4400084
:1028F0001860186820F440101860186840F48010C0
:10290000186040F61403C4F201030720186041F276
:102910001403C4F201034FF440401860106840F4FF
:1029200080701060106820F440601060106840F4FF
:1029300080501060106820F440401060086820F457
:1029400040300860086820F440200860086820F4DF
:1029500040100860086820F440000860086820F013
:1029600040500860086820F040400860086820F483
:1029700070400860086840F420400860086820F053
:1029800070600860086840F02060086040F6004110
:10299000C4F20101086820F0F0000860086840F007
:1029A000A000086041F21001C4F20101086840F47F
:1029B00000500860086840F00050086040F614427B
:1029C000C4F20102106840F40060106040F610414B
:1029D000C4F20101086840F480600860106840F4A7
:1029E00080601060086840F4006008607047000074
:1029F00080B50421C4F201010868022262F31A6062
:102A0000086040F60401C4F20101086820F070403B
:102A10000860086840F00040086040F60C01C4F20D
:102A20000101086840F40040086040F60041C4F22B
:102A30000101086840F6FF72CFF2F0021040086012
:102A4000086848F20002C0F608021043086040F629
:102A50000C41C4F20101086840F0580008600821E8
:102A6000C4F201010868012262F30F3008600C21F2
:102A7000C4F20101086862F303000860086862F3A9
:102A80000B2008601421C4F20101086820F4704092
:102A9000086040F20041C4F20101086848F258029F
:102AA0001043086040F20C41C4F201010868104371
:102AB000086040F20841C4F2010108681043086050
:102AC00040F21441C4F2010108200860102008609F
:102AD000402008604FF400400860092003F0D0FE59
:102AE0000A2003F0CDFE172003F0CAFE282003F0D1
:102AF000C7FE80BD81B000208DF8030040F60800BD
:102B0000C4F2010000680004002807D4FFE79DF824
:102B1000030040F001008DF80300FFE740F6084095
:102B2000C4F2010000680007002807D4FFE79DF801
:102B3000030040F002008DF80300FFE740F6084074
:102B4000C4F201000068C006002807D4FFE79DF822
:102B5000030040F004008DF80300FFE740F6084052
:102B6000C4F2010000684006002807D4FFE79DF882
:102B7000030040F008008DF80300FFE79DF8030014
:102B800001B07047FFE7FEE745F20041C4F20001E3
:102B9000088840F40040088000BF08886FF3DF30E9
:102BA000088045F20442C4F200022420108045F25D
:102BB0001C42C4F200021E20108045F22042C4F2E2
:102BC00000020C201080088840F001000880704747
:102BD00040F60441C4F20101086820F0FF000860DB
:102BE000086840F0FF00086045F20041C4F20001AF
:102BF000088840F40040088008886FF3DF300880C0
:102C000045F20442C4F20002108840F02400108013
:102C100045F21C42C4F20002B420108045F220426A
:102C2000C4F2000225201080088840F001000880CE
:102C30007047000082B0ADF80600009140F6100128
:102C4000C4F201014FF40060086040F61401C4F2C0
:102C500001014FF480500860FFE7009840B3FFE7A0
:102C60009DF8070043F60C01C4F200010870FFE76D
:102C700043F60800C4F2000000888007002801D451
:102C8000FFE7F5E79DF8060043F60C01C4F20001EA
:102C90000870FFE743F60800C4F2000000888007D0
:102CA000002801D4FFE7F5E7009801380090D4E749
:102CB000FFE743F60800C4F2000000888007002800
:102CC00001D4FFE7F5E7FFE743F60800C4F2000090
:102CD00000880006002801D5FFE7F5E740F610015F
:102CE000C4F201014FF48050086002B07047000048
:102CF00010B58AB0ADF82600ADF8241008920898F7
:102D000005A9049105F0E8FC049ABDF82600BDF879
:102D1000241040F2200CC2F2000CDCF80030DCF889
:102D200004C0EE460024CEF808404FF4FC64CEF810
:102D30000440CEF800C001F05BFA9DF81400302882
:102D40001BD1FFE7BDF82600BDF824109DF8142024
:102D500040F2200CC2F2000CDCF80030DCF804C0B9
:102D6000EE460024CEF808404FF48064CEF80440CC
:102D7000CEF800C001F0BCF9FFE70AB010BD0000BA
:102D800080B582B0ADF80600ADF80410ADF80220B1
:102D9000ADF80030BDF8060040F23201C2F2000189
:102DA000098888420ADAFFE7BDF8040040F23001E2
:102DB000C2F200010988884201DBFFE72BE0BDF881
:102DC0000600BDF802100844013840F23201C2F298
:102DD0000001098888420BDBFFE740F23200C2F2B3
:102DE00000000088BDF80610401AADF80200FFE7A9
:102DF000BDF80600BDF80430BDF8021001440139E9
:102E00008AB2194600F088FFBDF80000BDF8021034
:102E1000FFF710FFFFE702B080BD000080B58AB069
:102E2000ADF82600ADF824100892089805A905F021
:102E300053FCBDF82600ADF8120000200390FFE718
:102E4000039905A8415C0020029039B1FFE703997E
:102E500000200C29B8BF01200290FFE70298C007AC
:102E6000002800F08580FFE7039905A8405C2E2824
:102E70000CD0FFE7039905A8405C202806D0FFE7A7
:102E8000039905A8405C2C281AD1FFE7039A05A8EE
:102E9000805C41F22161C2F20001895C884209D064
:102EA000FFE7039A05A8805C41F22161C2F20001AC
:102EB0008854FFE7BDF812000930ADF8120053E066
:102EC000039A05A8805C41F22161C2F20001895C8D
:102ED000884243D0FFE7039905A8405C302834DBE3
:102EE000FFE7039905A8405C39282EDCFFE703982B
:102EF000C0B9FFE7039905A8405C302812D1FFE76D
:102F0000BDF81200BDF82410039B05AAD25C303A2C
:102F1000EC460023CCF80030D2B24FF4806301F0CD
:102F200037FA11E0BDF81200BDF82410039B05AA82
:102F3000D25C303AEC460023CCF80030D2B24FF4E9
:102F4000FC6301F025FAFFE7FFE7039A05A8805C20
:102F500041F22161C2F200018854FFE7BDF812007E
:102F60001230ADF81200FFE703980130039067E7D5
:102F70000AB080BDD0B502AF8EB027F80A0C27F892
:102F80000C1C07F80D2C47F8143C17F80D0C69467B
:102F900047F8181CC11D21F007026946891A8D46A1
:102FA00047F8341C47F81C0C002047F8200CFFE7BA
:102FB00057F8200C17F80D1C88420DDAFFE757F878
:102FC000341C57F8202C20208854FFE757F8200C99
:102FD000013047F8200CEBE757F8341C17F80D2C9C
:102FE0000020885417F80D0C013847F8240C57F8C6
:102FF000140C60B9FFE757F8341C17F80D0C0144A6
:10300000302001F8010C012047F8280C81E057F826
:10301000140CC00F47F82C0C57F82C0C30B1FFE7FC
:1030200057F8140C404247F8380C04E057F8140CD9
:1030300047F8380CFFE757F8380C47F8300CFFE733
:1030400057F8301C002047F83C0C51B1FFE757F807
:10305000241C0020B1F1FF3FC8BF012047F83C0C01
:10306000FFE757F83C0CC00700B3FFE757F8342CD4
:1030700057F8300C4CF6CD41CCF6CC41A0FB01C347
:10308000DB0803EB8303A0EB430040F0300057F86C
:10309000243CA3F1010C47F824CCD05457F8300C51
:1030A000A0FB0110C00847F8300CC9E757F82C0CFA
:1030B00060B1FFE757F8240C002807D4FFE757F862
:1030C000341C57F8242C2D208854FFE757F8342C53
:1030D00037F80A0C37F80C1C40F2200CC2F2000C36
:1030E000DCF80030DCF804C084B0EE46002447F879
:1030F000404CCEF808404FF4FC64CEF80440CEF8C3
:1031000000C001F075F857F8400C04B047F8280CDF
:10311000FFE757F8180C8546A7F10804A546D0BD6F
:1031200080B584B084460698ADF80EC0ADF80C109A
:10313000ADF80A20ADF80830ADF80600BDF80E0075
:1031400040F23201C2F20001098888420ADAFFE740
:10315000BDF80C0040F23001C2F20001098888423B
:1031600001DBFFE74BE0BDF80E00BDF80A10084494
:10317000013840F23201C2F20001098888420BDBBB
:10318000FFE740F23200C2F200000088BDF80E10E6
:10319000401AADF80A00FFE7BDF80C00BDF80810B2
:1031A0000844013840F23001C2F200010988884227
:1031B0000BDBFFE740F23000C2F200000088BDF8F0
:1031C0000C10401AADF80800FFE7BDF80E00BDF87E
:1031D0000C10BDF80A200244013ABDF808300B4437
:1031E000013B92B29BB200F097FDBDF80600BDF81E
:1031F0000810BDF80A205143FFF71CFDFFE704B09B
:1032000080BD0000B0B5AAB00020ADF8A600ADF8B2
:10321000A600FFE7BDF8A600192800F3D581FFE757
:10322000BDF8A600000248F6A331CBF62E21259169
:10323000A0FB0101782000EB511081B2FF20269005
:10324000052227924FF480632893FFF799FDDDF85C
:1032500094C02698279A289BBDF8A6100902A1FBC6
:103260000C1C7721A1EB5C1189B2FFF789FDBDF839
:10327000A600052865D1FFE7BDF8A600000248F6C4
:10328000A331CBF62E212191A0FB010174201D90CA
:1032900000EB511040F22801C2F200011E910B68B0
:1032A00049686A46002595604FF480642494546010
:1032B000116081B24CF61652C0F600022092F32043
:1032C0001F9000F095FF1D99DDF878C01F98209A97
:1032D000DDF884E0BDF8A6301B02A3FB0EE3A1EBF2
:1032E0005311DCF80030DCF804C0EE46CEF808508C
:1032F000CEF80440CEF800C089B200F079FF2199E1
:10330000249BBDF8A6000002A0FB0101782000EB81
:10331000511081B2FA2022900A222392FFF730FD49
:10332000DDF884C02298239A249BBDF8A6100902D8
:10333000A1FB0C1C7721A1EB5C1189B2FFF720FDEA
:10334000FFE7BDF8A6000A2865D1FFE7BDF8A60093
:10335000000248F6A331CBF62E211991A0FB010102
:103360007420159000EB511040F22801C2F20001C8
:1033700016910B6849686A46002595604FF4806491
:103380001C945460116081B24CF6FE42C0F60002FB
:103390001892EC20179000F02BFF1599DDF858C01B
:1033A0001798189ADDF864E0BDF8A6301B02A3FB5D
:1033B0000EE3A1EB5311DCF80030DCF804C0EE465C
:1033C000CEF80850CEF80440CEF800C089B200F024
:1033D0000FFF19991C9BBDF8A6000002A0FB01017C
:1033E000782000EB511081B2FA201A900A221B9229
:1033F000FFF7C6FCDDF864C01A981B9A1C9BBDF849
:10340000A6100902A1FB0C1C7721A1EB5C1189B26B
:10341000FFF7B6FCFFE7BDF8A6000F2865D1FFE770
:10342000BDF8A600000248F6A331CBF62E2111917B
:10343000A0FB010174200D9000EB511040F2280117
:10344000C2F200010E910B6849686A46002595603A
:103450004FF4806414945460116081B24CF61152A0
:10346000C0F600021092EC200F9000F0C1FE0D9902
:10347000DDF838C00F98109ADDF844E0BDF8A630AA
:103480001B02A3FB0EE3A1EB5311DCF80030DCF8C8
:1034900004C0EE46CEF80850CEF80440CEF800C086
:1034A00089B200F0A5FE1199149BBDF8A600000298
:1034B000A0FB0101782000EB511081B2FA2012909C
:1034C0000A221392FFF75CFCDDF844C01298139AAD
:1034D000149BBDF8A6100902A1FB0C1C7721A1EBDF
:1034E0005C1189B2FFF74CFCFFE7BDF8A600142879
:1034F00063D1FFE7BDF8A600000248F6A331CBF682
:103500002E210991A0FB0101722000EB511040F225
:103510002801C2F2000106910B6849686A4600253D
:1035200095604FF480640C945460116081B24CF645
:103530000252C0F600020892EC20079000F058FEFC
:10354000DDF818C00798089A099BBDF8A610090273
:10355000A1FB03137521A1EB5311DCF80030DCF85B
:1035600004C0EE46CEF80850CEF80440CEF800C0B5
:1035700089B200F03DFE09990C9BBDF8A60000023F
:10358000A0FB0101782000EB511081B2FA200A90D3
:103590000A220B92FFF7F4FBDDF824C00A980B9A7D
:1035A0000C9BBDF8A6100902A1FB0C1C7721A1EB16
:1035B0005C1189B2FFF7E4FBFFE7FFE7BDF8A60067
:1035C0000130ADF8A60025E6FA20039077210A2203
:1035D00004924FF4FC630593FFF7D2FB0398049A1F
:1035E000059B7821FFF7CCFB2AB0B0BD80B58CB02D
:1035F000ADF82600BDF9260008900898B0F1FF3F0D
:1036000004DCFFE7089840420890FFE7089818B9E3
:10361000FFE701200890FFE70898079007980A90B5
:103620000A9820B9FFE720208DF82F0005E00A98BE
:10363000B0FA80F08DF82F00FFE79DF82F0006907C
:103640000698C0F11F0005900020049005980328FB
:1036500008D3FFE7079805990339C84000F0070031
:1036600004900AE00798059901228A40013A104027
:10367000C1F1030188400490FFE70599049800EB2D
:1036800001100390039840F2A211C2F200010988D0
:10369000401A02900298B0F1FF3F03DCFFE70020E0
:1036A0000290FFE7029840F2A411C2F200010988DB
:1036B0004843000AADF80600BDF80600F12804DB17
:1036C000FFE7F020ADF80600FFE7BDF8060040F286
:1036D0009C21C2F20001B1F90010884208DDFFE729
:1036E000BDF8060040F29C21C2F20001088022E0F1
:1036F000BDF8060040F29C21C2F20001B1F90010B1
:10370000884217DAFFE740F29C20C2F200000188ED
:1037100001390180B0F90000BDF80610884208DACE
:10372000FFE7BDF8060040F29C21C2F200010880CC
:10373000FFE7FFE7FFE740F29C20C2F200000088AD
:10374000C0F1F000ADF80400BDF8040001280ADB68
:10375000FFE7BDF8043068460021016001200A221D
:10376000FFF7DEFCFFE740F29C20C2F20000B0F958
:103770000000012810DBFFE7BDF8041040F29C2098
:10378000C2F2000003886A464FF4FC60106001201A
:103790000A22FFF7C5FCFFE70CB080BD80B58AB0F8
:1037A0000990099803F0A6F840F29010C2F20000C8
:1037B000027840F2E401C2F2000131F81210ADF8D3
:1037C0001C10BDF81C1047F21F22C3F25912A1FBB6
:1037D00002214909ADF81A10BDF81A10C1F1800193
:1037E000ADF81810BDF81A108031ADF81610007839
:1037F000012809D1FFE78020ADF81800BDF81A00B4
:103800008030ADF8160012E040F29010C2F20000D5
:10381000007802280AD1FFE7BDF81A00C0F1800045
:10382000ADF818008020ADF81600FFE7FFE7002094
:10383000ADF81400FFE7BDF81400FF286CDCFFE7CB
:103840000998BDF8141030F81100ADF82000BDF84B
:103850002000B0F5807F04DBFFE7FF20ADF82000FB
:10386000FFE7BDF820104DF2A420C0F6000030F8AC
:103870001100ADF82200BDF814007F2806DCFFE738
:10388000BDF814008030ADF81E0005E0BDF814004E
:103890008038ADF81E00FFE7BDF91E00BDF8181016
:1038A000884221DBFFE7BDF91E00BDF816108842F3
:1038B0001ADCFFE7BDF822004EF298710840C008FC
:1038C000ADF81200BDF82200BDF81210401AADF894
:1038D0001000E020ADF80E00BDF81000BDF80E108D
:1038E0000844ADF82200FFE79DF82300BDF91E2033
:1038F00040F23031C2F2000101F81200BDF822009E
:10390000BDF91E2001EB42014870FFE7BDF814002D
:103910000130ADF814008EE740F23031C2F2000100
:103920000291072281F8FE20E02081F8FF0081F853
:10393000002181F8010141F25040C2F200000078FC
:10394000C0F5A0720021F023104600F0E5F90298BE
:1039500040F61002C4F201024FF40061116040F61B
:103960001402C4F201024FF4805111605821C4F2D4
:1039700002010A6822F001020A6010306422C4F2D7
:10398000020210605C22C4F202024FF4F070106078
:10399000086840F001000860FFE75C20C4F2020004
:1039A000006810B1FFE700BFF7E7FFE743F6080044
:1039B000C4F2000000880006002802D5FFE700BF1F
:1039C000F4E740F61001C4F201014FF480500860A2
:1039D00000204FF4827100F055FB41F25040C2F2DA
:1039E00000000190007800F085F90198017801311C
:1039F000017000783D2807DBFFE741F25041C2F239
:103A0000000100200870FFE70AB080BD80B584B0D7
:103A1000ADF80E0040F23200C2F2000001900288C0
:103A200040F23000C2F200000290038800210846F4
:103A300000F072F90199029ABDF80E000988128807
:103A40005143FFF7F7F804B080BD000080B590B097
:103A500040F61001C4F201014FF48060086000F0EC
:103A600027F90120009000F027FC42F2107004F0CA
:103A7000B3FDCB2000F020FC392000F051FC2C20BD
:103A800000F04EFC0020029000F04AFC342000F0D0
:103A900047FC022000F044FCCF2000F00DFC02980F
:103AA00000F03EFCC120059000F03AFC302000F010
:103AB00037FCE82000F000FC852000F031FC029883
:103AC00000F02EFC78200E9000F02AFCEA2000F096
:103AD000F3FB029800F024FC029800F021FCED209A
:103AE00000F0EAFB642000F01BFC03200F9000F0C4
:103AF00017FC122000F014FC812000F011FCF720CC
:103B000000F0DAFB202000F00BFCC02000F0D4FB1A
:103B1000232000F005FC059800F0CEFB102001905A
:103B200000F0FEFBC52000F0C7FB3E2000F0F8FBD4
:103B300028200C9000F0F4FBC72000F0BDFB86208D
:103B400000F0EEFB36200A9000F0B6FB482006900D
:103B500000F0E6FB3A2000F0AFFB552000F0E0FB60
:103B6000B12000F0A9FB029800F0DAFB1B2000F066
:103B7000D7FBB62000F0A0FB0820079000F0D0FB98
:103B8000822000F0CDFB272000F0CAFBF22000F0DD
:103B900093FB029800F0C4FB262000F08DFB0098F8
:103BA00000F0BEFBE02000F087FB0F200B9000F040
:103BB000B7FB3120099000F0B3FB2B2000F0B0FBE5
:103BC0000C20089000F0ACFB0E20039000F0A8FB46
:103BD000079800F0A5FB4E2000F0A2FBF12000F0BA
:103BE0009FFB372000F09CFB0720049000F098FB1F
:103BF000019800F095FB0F9800F092FB039800F0FD
:103C00008FFB092000F08CFB029800F089FBE1207B
:103C100000F052FB029800F083FB039800F080FB59
:103C2000142000F07DFB0F9800F07AFB11200D901E
:103C300000F076FB049800F073FB099800F070FB2D
:103C4000059800F06DFB069800F06AFB079800F0FD
:103C500067FB0B9800F064FB089800F061FB099883
:103C600000F05EFB0A9800F05BFB0B9800F058FB3D
:103C7000B42000F021FB0B2000F052FBBB2000F031
:103C80001BFB0C9800F04CFBB72000F015FB352017
:103C900000F046FB0D9800F00FFB0E9804F09CFC22
:103CA000292000F009FB0F9800F068F910B080BDE2
:103CB00080B584B040F61401C4F2010101914FF4C3
:103CC0008060029008604FF4FA60039004F084FC76
:103CD000019A03984FF48051116004F07DFC029921
:103CE000039840F61002C4F20102116004F074FC63
:103CF00004B080BD80B582B0ADF80600372000F07A
:103D0000DBFA9DF8070000F00BFB9DF8060000F0C1
:103D100007FB02B080BD000082B0ADF80600ADF830
:103D20000410ADF80220ADF8003040F61401C4F2E2
:103D300001014FF4006008604FF48050086043F6C2
:103D40000C01C4F200012A200870FFE743F60800C6
:103D5000C4F2000000888007002801D4FFE7F5E7DF
:103D6000FFE743F60800C4F20000008800060028C0
:103D700001D5FFE7F5E740F61001C4F201014FF469
:103D8000006008609DF8070043F60C01C4F20001D2
:103D90000870FFE743F60800C4F2000000888007BF
:103DA000002801D4FFE7F5E79DF8060043F60C0173
:103DB000C4F200010870FFE743F60800C4F20000F7
:103DC00000888007002801D4FFE7F5E79DF803008D
:103DD00043F60C01C4F200010870FFE743F6080047
:103DE000C4F2000000888007002801D4FFE7F5E74F
:103DF0009DF8020043F60C01C4F200010870FFE7D1
:103E000043F60800C4F2000000888007002801D4AF
:103E1000FFE7F5E7FFE743F60800C4F2000000887B
:103E20000006002801D5FFE7F5E740F61401C4F2CB
:103E300001014FF40060086043F60C01C4F2000178
:103E40002B200870FFE743F60800C4F2000000884A
:103E50008007002801D4FFE7F5E7FFE743F60800F5
:103E6000C4F2000000880006002801D5FFE7F5E74E
:103E700040F61001C4F201014FF4006008609DF8A3
:103E8000050043F60C01C4F200010870FFE743F699
:103E90000800C4F2000000888007002801D4FFE772
:103EA000F5E79DF8040043F60C01C4F20001087028
:103EB000FFE743F60800C4F20000008880070028EE
:103EC00001D4FFE7F5E79DF8010043F60C01C4F2C9
:103ED00000010870FFE743F60800C4F20000008804
:103EE0008007002801D4FFE7F5E79DF8000043F6BE
:103EF0000C01C4F200010870FFE743F60800C4F2A9
:103F0000000000888007002801D4FFE7F5E7FFE7FD
:103F100043F60800C4F2000000880006002801D51E
:103F2000FFE7F5E740F61401C4F201014FF4006029
:103F3000086043F60C01C4F200012C200870FFE772
:103F400043F60800C4F2000000888007002801D46E
:103F5000FFE7F5E7FFE743F60800C4F2000000883A
:103F60000006002801D5FFE7F5E740F61001C4F28E
:103F700001014FF48050086002B0704780B582B0F4
:103F80008DF8070040F61401C4F201014FF40060FF
:103F900008604FF48050086043F60C01C4F2000141
:103FA00036200870FFE743F60800C4F200000088DE
:103FB0008007002801D4FFE7F5E7FFE743F6080094
:103FC000C4F2000000880006002801D5FFE7F5E7ED
:103FD00040F61001C4F201014FF4805008609DF8D2
:103FE000070001460091032848D80099DFE801F056
:103FF00002132435202000F093F940F23201C2F27E
:104000000001F020088040F23001C2F200014FF4BC
:10401000A070088033E0802000F082F940F2320185
:10402000C2F200014FF4A070088040F23001C2F2E9
:104030000001F020088022E0E02000F071F940F259
:104040003201C2F20001F020088040F23001C2F2D9
:1040500000014FF4A070088011E0402000F060F9EA
:1040600040F23201C2F200014FF4A070088040F229
:104070003001C2F20001F020088000E0FFE702B04A
:1040800080BD000080B582B0ADF80600ADF8041028
:10409000BDF80600BDF804100844B0F5A07F25DC8B
:1040A000FFE7BDF80600BDF804100844C0F5A07095
:1040B000ADF80200332000F0FFF89DF8070000F093
:1040C0002FF99DF8060000F02BF99DF8030000F091
:1040D00027F99DF8020000F023F99DF8050000F093
:1040E0001FF99DF8040000F01BF9FFE702B080BD46
:1040F000B0B58AB09E460B4684460E9C10980F9928
:104100000994CDF820E0ADF81EC0ADF81C308DF854
:104110001B20ADF81810ADF816000020009001909B
:10412000BDF81E00BDF81C109DF820209DF8213020
:104130000244013A0B44013B92B29BB2FFF7ECFD03
:10414000009840F61002C4F201024FF400611160C1
:1041500040F61402C4F201024FF480511160049041
:10416000FFE704989DF82110884238D2FFE70998AC
:104170009DF81B1020399DF82120049B01FB023182
:1041800030F81100039000200290FFE702989DF89C
:10419000201088421ED2FFE703980299884000044D
:1041A000002809D5FFE79DF8190000F0B9F89DF83F
:1041B000180000F0B5F808E09DF8170000F0B0F81E
:1041C0009DF8160000F0ACF8FFE7FFE70298013019
:1041D0000290DBE7FFE7049801300490C1E740F666
:1041E0001001C4F201014FF4805008600AB0B0BD64
:1041F000B0B588B09E460B4684460C9C0E980D992F
:104200000794CDF818E0ADF816C0ADF8143004925C
:10421000ADF80E10ADF80C00FFE704980078002808
:1042200047D0FFE7BDF816009DF818100844B0F518
:10423000A07F1DDBFFE70020ADF816009DF81910E8
:10424000BDF814000844ADF81400BDF814009DF842
:1042500019100844F02801DBFFE72AE004980078F1
:10426000202804D1FFE7049801300490D5E7FFE748
:10427000BDF81600BDF81410049A1278BDF80E406F
:10428000BDF80C50069BDDF81CC0EE46CEF8085079
:10429000CEF80440CEF800C0FFF72AFF9DF81810B2
:1042A000BDF816000844ADF81600049801300490DB
:1042B000B3E708B0B0BD000081B08DF8030040F650
:1042C0001401C4F201014FF4006008604FF4805003
:1042D00008609DF8030043F60C01C4F20001087069
:1042E000FFE743F60800C4F20000008880070028BA
:1042F00001D4FFE7F5E7FFE743F60800C4F200004A
:1043000000880006002801D5FFE7F5E740F6100118
:10431000C4F201014FF48050086001B07047000002
:1043200081B08DF8030040F61001C4F201014FF492
:104330000060086040F61401C4F201014FF480509F
:1043400008609DF8030043F60C01C4F200010870F8
:10435000FFE743F60800C4F2000000888007002849
:1043600001D4FFE7F5E7FFE743F60800C4F20000D9
:1043700000880006002801D5FFE7F5E740F61001A8
:10438000C4F201014FF48050086001B07047000092
:1043900080B58AB084460C98ADF826C0ADF82410DC
:1043A0008DF82320ADF82030ADF81E0012208DF8D6
:1043B0000D0022208DF80C00032002909DF82300B0
:1043C0000C2801DBFFE785E0BDF82600BDF82410CE
:1043D00000F1110201F1210392B29BB2FFF79CFCA4
:1043E00040F61001C4F201014FF40060086040F68D
:1043F0001401C4F201014FF48050086000200690BF
:10440000FFE7069821285DD8FFE7002001909DF87E
:104410002310069A02EB4203662201FB023104914B
:104420000499019A0A444BF26C61C0F60001895C60
:104430008DF80F108DF80E000590FFE705981128F4
:104440003BD8FFE79DF80E00082811D1FFE701983F
:10445000013001900498019901444BF26C60C0F660
:104460000000405C8DF80F0000208DF80E00FFE783
:104470009DF80F009DF80E1088400006002809D412
:10448000FFE79DF82100FFF74BFF9DF82000FFF7A5
:1044900047FF08E09DF81F00FFF742FF9DF81E0050
:1044A000FFF73EFFFFE79DF80E0001308DF80E008C
:1044B000FFE7059801300590C0E7FFE70698013057
:1044C00006909EE740F61001C4F201014FF48050BF
:1044D0000860FFE70AB080BD80B50020FFF796FABC
:1044E000FEF790FE28200B21FDF724F901F0EEFAEB
:1044F00080BD000042F27020C2F200000078C007C8
:10450000B8B9FFE740F68830C2F20000007807280B
:1045100007D1FFE740F68831C2F2000100200870A1
:1045200006E042F27021C2F2000101200870FFE7AC
:104530001FE040F68930C2F20000007840F6883172
:10454000C2F200010A784CF24801C0F60001895C11
:10455000013988420CD1FFE740F68931C2F20001EF
:104560000020087042F27021C2F200010870FFE7DB
:10457000FFE7704780B586B042F27020C2F20000BB
:104580000078C00700285CD1FFE740F68830C2F20F
:1045900000000590017801EBC1014900027840F26A
:1045A0003400C2F2000050F8222040F22000C2F293
:1045B000000003684068EC464FF0000ECCF808E0BD
:1045C0004FF4806ECCF804E0CCF800002E20FFF70A
:1045D0000FFE05980078012808DBFFE740F68831D8
:1045E000C2F2000108780138087006E040F6883110
:1045F000C2F2000107200870FFE740F68830C2F2DF
:104600000000017801EBC1014900027840F234005A
:10461000C2F2000050F8222040F22000C2F2000056
:1046200003684068EC464FF0000ECCF808E04FF409
:10463000FC6ECCF804E0CCF800002E20FFF7D8FD8B
:1046400073E040F68932C2F200020492107800EB67
:10465000C000410040F68830C2F20000037840F20A
:104660000000C2F2000050F82300127850F8222017
:1046700040F22000C2F2000003684068EC464FF0B0
:10468000000ECCF808E04FF4806ECCF804E0CCF8D3
:1046900000002E20FFF7ACFD04980078012808DB0D
:1046A000FFE740F68931C2F200010878013808704E
:1046B00010E040F68830C2F2000001784CF2480069
:1046C000C0F60000405C013840F68931C2F20001BA
:1046D0000870FFE740F68932C2F20002107800EB62
:1046E000C000410040F68830C2F20000037840F27A
:1046F0000000C2F2000050F82300127850F8222087
:1047000040F22000C2F2000003684068EC464FF01F
:10471000000ECCF808E04FF4FC6ECCF804E0CCF8C6
:1047200000002E20FFF764FDFFE706B080BD00000B
:1047300080B584B06846002101602E20C522F02398
:10474000FEF7EEFC42F27020C2F200000078C007D3
:1047500000285BD1FFE700208DF80F00FFE79DF8F0
:104760000F00072851DCFFE79DF80F0040F6883165
:10477000C2F200010978884220D1FFE79DF80F209E
:1047800002EBC200410040F23400C2F2000050F8D7
:10479000222040F22000C2F2000003684068EC468C
:1047A0004FF0000ECCF808E04FF4FC6ECCF804E0BB
:1047B000CCF800002E20FFF71BFD1FE09DF80F2016
:1047C00002EBC200410040F23400C2F2000050F897
:1047D000222040F22000C2F2000003684068EC464C
:1047E0004FF0000ECCF808E04FF4806ECCF804E0F7
:1047F000CCF800002E20FFF7FBFCFFE7FFE79DF859
:104800000F0001308DF80F00A9E77FE000208DF840
:104810000E00FFE79DF80E0040F68831C2F200015D
:104820000A784CF24801C0F60001895C88426CDAD3
:10483000FFE79DF80E0040F68931C2F200010978C9
:10484000884229D1FFE79DF80E0000EBC00041002F
:1048500040F68830C2F20000027840F20000C2F256
:10486000000050F822009DF80E2050F8222040F25F
:104870002000C2F2000003684068EC464FF0000ED2
:10488000CCF808E04FF4FC6ECCF804E0CCF8000063
:104890002E20FFF7ADFC28E09DF80E0000EBC000D5
:1048A000410040F68830C2F20000027840F2000079
:1048B000C2F2000050F822009DF80E2050F822208D
:1048C00040F22000C2F2000003684068EC464FF05E
:1048D000000ECCF808E04FF4806ECCF804E0CCF881
:1048E00000002E20FFF784FCFFE740F68830C2F27C
:1048F000000000789DF80E1000F01AF8FFE79DF810
:104900000E0001308DF80E0084E7FFE740F2A8109A
:10491000C2F20000B0F8720041F22061C2F2000160
:10492000097801F0010101F007F904B080BD000031
:1049300080B58CB08DF82F008DF82E109DF82F00CB
:1049400001460A91062800F295810A99DFE811F0E4
:1049500007004B007C008900E500410185019DF8BE
:104960002E000146099104283CD80999DFE801F09E
:10497000030E19242F0040F2EE00C2F2000003885B
:10498000982000210422FEF7F5FA2BE040F2EE0019
:10499000C2F200004388982012210422FEF7EAFAAE
:1049A00020E040F2EE00C2F200008388982024212B
:1049B0000422FEF7DFFA15E040F2EE00C2F200003A
:1049C000C388982036210422FEF7D4FA0AE040F288
:1049D000EE00C2F200000389982048210422FEF76D
:1049E000C9FAFFE746E19DF82E0001460891032829
:1049F00029D80899DFE801F0020E1A2640F2FC00DF
:104A0000C2F20000B0F90030982000210622FEF723
:104A1000B1FA18E040F2FA00C2F20000B0F900303A
:104A2000982012210622FEF7A5FA0CE040F2F800C9
:104A3000C2F20000B0F90030982024210622FEF7CF
:104A400099FA00E0FFE715E19DF82E000146079175
:104A500020B1FFE70798012801D001E000E0FFE75F
:104A600008E19DF82E000146069140B1FFE7069847
:104A7000012824D0FFE70698022841D04CE040F2FC
:104A80009410C2F2000090F901104CF25000C0F6F0
:104A9000000050F8212040F22000C2F2000003681C
:104AA0004068EC460021CCF808104FF4FC6ECCF8BE
:104AB00004E0CCF800009820FFF79AFB2CE040F2CD
:104AC0009410C2F2000090F902104CF25000C0F6AF
:104AD000000050F8212040F22000C2F200000368DC
:104AE000406869464FF0000CC1F808C04FF4FC6CF8
:104AF000C1F804C0086098201221FFF779FB0BE091
:104B000040F29410C2F2000090F900309820242165
:104B10000222FEF72FFAFFE7ACE09DF82E000146D7
:104B2000059140B1FFE70598012824D0FFE70598DB
:104B3000022841D04CE040F22420C2F2000090F95B
:104B400001104CF25000C0F6000050F8212040F255
:104B50002000C2F2000003684068EC460021CCF857
:104B600008104FF4FC6ECCF804E0CCF8000098205C
:104B7000FFF73EFB2CE040F22420C2F2000090F947
:104B800002104CF25000C0F6000050F8212040F214
:104B90002000C2F200000368406869464FF0000C34
:104BA000C1F808C04FF4FC6CC1F804C0086098203C
:104BB0001221FFF71DFB0BE040F22420C2F200009F
:104BC00090F90030982024210222FEF7D3F9FFE764
:104BD00050E09DF82E000146049104283CD8049929
:104BE000DFE801F0030E19242F0040F2D000C2F2DA
:104BF00000000368982000210822FEF7BBF92BE093
:104C000040F2D000C2F2000043689820122108222E
:104C1000FEF7B0F920E040F2D000C2F20000836855
:104C2000982024210822FEF7A5F915E040F2D000D3
:104C3000C2F20000C368982036210822FEF79AF9D4
:104C40000AE040F2D000C2F2000003699820482137
:104C50000822FEF78FF9FFE70CE09DF82E000146D1
:104C6000039120B1FFE70398012801D001E000E0A3
:104C7000FFE7FFE70CB080BD80B58EB08DF8370040
:104C80008DF836109DF8370001460B91062800F28A
:104C9000A4820B99DFE811F00700A60051015E0124
:104CA000F001820294029DF8360001460A91042820
:104CB00000F297800A99DFE801F003203D5A77005F
:104CC00040F2EE00C2F2000000880C900CA80A210D
:104CD000002241F2883300F011FC68B1FFE70C9923
:104CE00040F2EE00C2F2000001800388982000210B
:104CF0000422FEF73FF9FFE773E040F2EE00C2F254
:104D0000000040880C900CA80A21002241F2883350
:104D100000F0F4FB68B1FFE70C9940F2EE00C2F23C
:104D2000000041804388982012210422FEF722F9D6
:104D3000FFE756E040F2EE00C2F2000080880C90DF
:104D40000CA80A21002241F2883300F0D7FB68B199
:104D5000FFE70C9940F2EE00C2F2000081808388E8
:104D6000982024210422FEF705F9FFE739E040F2FC
:104D7000EE00C2F20000C0880C900CA80A210022AC
:104D800041F2883300F0BAFB68B1FFE70C9940F2BA
:104D9000EE00C2F20000C180C388982036210422B0
:104DA000FEF7E8F8FFE71CE040F2EE00C2F2000078
:104DB00000890C900CA80A21002241F2883300F0EF
:104DC0009DFB68B1FFE70C9940F2EE00C2F20000D3
:104DD00001810389982048210422FEF7CBF8FFE7E0
:104DE000FFE7FAE19DF8360001460991032800F239
:104DF000A3800999DFE801F00251789F40F2FC009E
:104E0000C2F20000B0F900000C9040F2A810C2F20B
:104E10000000B0F872100CA848F20032CFF6FF7212
:104E20004FF4FA4300F06AFBB0B3FFE70C9940F28D
:104E3000FC00C2F2000008900180B0F90030982018
:104E400000210622FEF796F80898B0F9000003F05A
:104E500097FF40F2A810C2F2000090F8700068B905
:104E6000FFE740F2A810C2F2000090F86F1000EBCC
:104E70008100C068800003F0BBFF0CE040F2A81086
:104E8000C2F2000090F86F1000EB8100006B800010
:104E900003F0AEFFFFE7FFE74EE040F2FA00C2F298
:104EA0000000B0F900000C9040F2A810C2F200001F
:104EB000B0F872100CA848F20032CFF6FF724FF42F
:104EC000FA4300F01BFB70B1FFE70C9940F2FA00C7
:104ED000C2F200000180B0F90030982012210622B1
:104EE000FEF748F8FFE727E040F2F800C2F20000C2
:104EF000B0F900000C9040F2A810C2F20000B0F827
:104F000072100CA848F20032CFF6FF724FF4FA4349
:104F100000F0F4FA70B1FFE70C9940F2F800C2F229
:104F200000000180B0F90030982024210622FEF70D
:104F300021F8FFE7FFE7FFE74FE19DF83600014664
:104F4000079120B1FFE70798012801D001E000E0B8
:104F5000FFE742E19DF836000146069140B1FFE7C8
:104F60000698012836D0FFE70698022865D082E02F
:104F700040F29410C2F2000090F901000C900CA8CD
:104F8000012100220F2300F0B9FA10B3FFE70C99BA
:104F900040F29410C2F20000417090F901104CF2FE
:104FA0005000C0F6000050F8212040F22000C2F26C
:104FB000000003684068EC460021CCF808104FF46C
:104FC000FC6ECCF804E0CCF800009820FFF710F954
:104FD000FFE750E040F29410C2F2000090F90200A6
:104FE0000C900CA8012100220F2300F087FA18B3BF
:104FF000FFE70C9940F29410C2F20000817090F922
:1050000002104CF25000C0F6000050F8212040F28F
:105010002000C2F200000368406869464FF0000CAF
:10502000C1F808C04FF4FC6CC1F804C008609820B7
:105030001221FFF7DDF8FFE71DE040F29410C2F205
:10504000000090F900000C900CA8012100220F2311
:1050500000F054FA70B1FFE70C9940F29410C2F2DC
:105060000000017090F90030982024210222FDF701
:1050700081FFFFE7FFE7B0E09DF8360001460591AC
:1050800040B1FFE70598012836D0FFE705980228D0
:1050900065D082E040F22420C2F2000090F90100C5
:1050A0000C900CA8012100220F2300F027FA10B366
:1050B000FFE70C9940F22420C2F20000417090F901
:1050C00001104CF25000C0F6000050F8212040F2D0
:1050D0002000C2F2000003684068EC460021CCF8D2
:1050E00008104FF4FC6ECCF804E0CCF800009820D7
:1050F000FFF77EF8FFE750E040F22420C2F2000004
:1051000090F902000C900CA8012100220F2300F05E
:10511000F5F918B3FFE70C9940F22420C2F2000021
:10512000817090F902104CF25000C0F6000050F867
:10513000212040F22000C2F2000003684068694666
:105140004FF0000CC1F808C04FF4FC6CC1F804C06B
:10515000086098201221FFF74BF8FFE71DE040F2AE
:105160002420C2F2000090F900000C900CA801214C
:1051700000220F2300F0C2F970B1FFE70C9940F252
:105180002420C2F20000017090F900309820242100
:105190000222FDF7EFFEFFE7FFE71EE09DF8360075
:1051A0000146049104280AD80499DFE801F00304B9
:1051B0000506070003E002E001E000E0FFE70CE085
:1051C0009DF836000146039120B1FFE703980128BE
:1051D00001D001E000E0FFE7FFE70EB080BD000076
:1051E00080B586B042F27020C2F200000078C0079D
:1051F00000285CD1FFE740F68830C2F2000005903D
:10520000017801EBC1014900027840F23400C2F29A
:10521000000050F8222040F22000C2F20000036893
:105220004068EC464FF0000ECCF808E04FF4806E7A
:10523000CCF804E0CCF800002E20FEF7D9FF05984A
:105240000078062808DCFFE740F68831C2F200014A
:1052500008780130087006E040F68831C2F200019B
:1052600000200870FFE740F68830C2F200000178A5
:1052700001EBC1014900027840F23400C2F20000A3
:1052800050F8222040F22000C2F20000036840687B
:10529000EC464FF0000ECCF808E04FF4FC6ECCF872
:1052A00004E0CCF800002E20FEF7A2FF72E040F6EA
:1052B0008932C2F200020392107800EBC000410074
:1052C00040F68830C2F200000490037840F20000FB
:1052D000C2F2000050F82300127850F8222040F269
:1052E0002000C2F2000003684068EC464FF0000E58
:1052F000CCF808E04FF4806ECCF804E0CCF8000065
:105300002E20FEF775FF0398049900780A784CF276
:105310004801C0F60001895C0139884208DAFFE7DC
:1053200040F68931C2F2000108780130087006E0C9
:1053300040F68931C2F2000100200870FFE740F614
:105340008932C2F20002107800EBC000410040F642
:105350008830C2F20000037840F20000C2F2000080
:1053600050F82300127850F8222040F22000C2F2B8
:10537000000003684068EC464FF0000ECCF808E0EF
:105380004FF4FC6ECCF804E0CCF800002E20FEF7C1
:105390002FFFFFE706B080BD80B540F21440C4F295
:1053A00001000068C003002816D5FFE740F2144151
:1053B000C4F201014FF48030086047F20400C4F2E7
:1053C000000000684007002805D5FFE772B601F02D
:1053D00033F9FFE7FEE7FFE780BD00002821C4F2B4
:1053E0000001002008802C21C4F2000140F2FF30AF
:1053F00008801C21C4F20001088840F4C0400880E5
:10540000088840F4006008802021C4F20001088868
:1054100040F4805008804FF08041088840F08000C0
:105420000880088840F0010008804021C4F2000193
:10543000642008807047000040F22841C4F2000157
:105440000020088040F22C41C4F2000140F2FF30FD
:10545000088040F21C41C4F20001088840F4D040AA
:10546000088040F22041C4F20001088840F48050D6
:10547000088040F20041C4F20001088840F00100B9
:105480000880704780B582B047F20001C4F2000185
:10549000086820F0E0000860086840F0E00008605C
:1054A000086840F01000086040F20041C4F20101B9
:1054B000086840F48030086040F20841C4F20101FD
:1054C000086840F48030086040F20C41C4F20101E9
:1054D000086840F48030086040F21441C4F20101D1
:1054E0004FF48030086001200190002101F0E0F9C4
:1054F000019801F0C5F902B080BD000087B00590A9
:1055000004910392029342F62440C4F20100008801
:10551000ADF80600BDF9060000EB90708008ADF80C
:105520000400BDF9040020B9FFE700208DF81B003E
:105530004CE0059800680399884206DBFFE7059870
:1055400000680299884217DDFFE702980399084432
:1055500000EBD070401005990860BDF80600BDF85A
:105560000410A0EB810042F62441C4F2010108803E
:1055700001208DF81B0029E005980268BDF90400A0
:10558000049900FB0120009000980399884203DAF7
:10559000FFE703980090FFE700980299884203DD37
:1055A000FFE702980090FFE7009805990860BDF8B2
:1055B0000600BDF80410A0EB810042F62441C4F2BD
:1055C0000101088001208DF81B00FFE79DF81B00FA
:1055D00007B0704740F61441C4F20101086840F476
:1055E0008060086042F20842C4F2010210684FF67F
:1055F000FD71CFF6BF71084010600823C4F20203AA
:10560000186820F00100186040F60001C4F20001A3
:10561000088820F00100088042F2344CC4F2010CEA
:105620000420CCF8000042F6340CC4F2010C052032
:10563000CCF8000040F20C0CC4F2020C1020CCF8A4
:10564000000040F2040CC4F2020C0120CCF800006F
:1056500040F21C4CC4F2000CBCF8000020F4E04006
:10566000ACF80000BCF8000040F4D040ACF80000FA
:1056700040F23440C4F20000008840F2404CC4F2D2
:10568000000CACF8000040F2204CC4F2000CBCF856
:10569000000020F00100ACF80000BCF8000040F46D
:1056A0008050ACF80000186840F0010018601068E5
:1056B00040F00200106040F27463C2F20003002068
:1056C000188040F27063C2F20003188040F27263E7
:1056D000C2F20003188040F61463C2F2000318708F
:1056E00040F61563C2F20003187042F27623C2F24C
:1056F00000031870106840F480001060088840F0C3
:10570000010008807047000080B584B040F220009E
:10571000C2F2000003684068694600228A604FF4C4
:1057200080624A6008604CF6BC42C0F600029220DB
:10573000C921FEF75DFD40F2A810C2F2000090F80A
:105740006F10084490F8540001281ED1FFE740F282
:105750002000C2F2000003684068694600228A60A7
:105760004FF480624A6008604CF6F942C0F60002CD
:10577000BE20C921FEF73CFD40F61041C4F20101F4
:10578000086840F4006008601DE040F22000C2F2AA
:10579000000003684068694600228A604FF4806216
:1057A0004A6008604CF6CC42C0F60002BE20C92117
:1057B000FEF71EFD40F61441C4F20101086840F4F2
:1057C00000600860FFE704B080BD000080B58AB0CB
:1057D00041F22161C2F20001002008604860886047
:1057E00040F2A810C2F2000090F87000C0BBFFE7C2
:1057F00040F22000C2F200000368406869460022BF
:105800008A604FF4FC624A6008604CF6A642C0F61B
:1058100000022E2052210791FEF7EAFC079940F280
:10582000A810C2F20000089090F86F2000EB8200F0
:10583000026B8220FDF75CFA089890F86F100C302C
:10584000099050F821204E206721FDF7E7FA0899CA
:10585000099891F86F1050F8210003F0C9FA37E069
:1058600040F22000C2F2000003684068694600224E
:105870008A604FF4FC624A6008604CF6A042C0F6B1
:1058800000022E2052210491FEF7B2FC049940F24E
:10589000A810C2F20000059090F86F2000EB820083
:1058A000C2688220FDF724FA059890F86F10303016
:1058B000069050F821204E206721FDF7AFFA059998
:1058C000069891F86F1050F8210003F091FAFFE765
:1058D00040F2A810C2F20000B0F87200002100F0FF
:1058E0002BF90AB080BD000080B584B040F22000E2
:1058F000C2F20000036840686A46002191604FF4DC
:10590000FC6CC2F804C010604CF69142C0F6000274
:105910002E20FEF76DFC40F2A810C2F2000090F8B5
:105920006F0001460391082800F2CE800399DFE85A
:1059300001F0051B31475D73899FB50040F22000DF
:10594000C2F20000036840686A46002191604FF48B
:10595000FC6CC2F804C010604CF6E442C0F60002D1
:105960007B20FEF745FCAFE040F22000C2F20000D1
:10597000036840686A46002191604FF4FC6CC2F8ED
:1059800004C010604CF6E942C0F600027B20FEF72E
:105990002FFC99E040F22000C2F20000036840684A
:1059A0006A46002191604FF4FC6CC2F804C010609C
:1059B0004CF6E042C0F600027B20FEF719FC83E0C3
:1059C00040F22000C2F20000036840686A460021ED
:1059D00091604FF4FC6CC2F804C010604CF6DC42DD
:1059E000C0F600027B20FEF703FC6DE040F22000D1
:1059F000C2F20000036840686A46002191604FF4DB
:105A0000FC6CC2F804C010604CF6D842C0F600022C
:105A10007B20FEF7EDFB57E040F22000C2F20000D1
:105A2000036840686A46002191604FF4FC6CC2F83C
:105A300004C010604CF6F542C0F600027B20FEF771
:105A4000D7FB41E040F22000C2F20000036840684A
:105A50006A46002191604FF4FC6CC2F804C01060EB
:105A60004CF6F142C0F600027B20FEF7C1FB2BE0B2
:105A700040F22000C2F20000036840686A4600213C
:105A800091604FF4FC6CC2F804C010604CF6ED421B
:105A9000C0F600027B20FEF7ABFB15E040F22000D1
:105AA000C2F20000036840686A46002191604FF42A
:105AB000FC6CC2F804C010604CF6D442C0F6000280
:105AC0007B20FEF795FBFFE704B080BD80B582B078
:105AD0006846002101602E20C522F023FDF720FB3F
