:020000040800F2
:10000000E02600208901000891010008AD220008C7
:100010009501000897010008990100080000000000
:100020000000000000000000000000009B0100082C
:100030009D010008000000009F010008B143000876
:10004000A3010008A3010008A3010008A301000800
:10005000A3010008A3010008A3010008A3010008F0
:10006000A30100084D1A0008611A00080D150008C8
:10007000A3010008A3010008A3010008A3010008D0
:10008000A3010008A3010008A3010008A3010008C0
:10009000A3010008A3010008A3010008751A0008C5
:1000A000A3010008A3010008A3010008A3010008A0
:1000B000A3010008A301000895460008A301000859
:1000C000A3010008A3010008A3010008A301000880
:1000D000A3010008A3010008A3010008A301000870
:1000E000351A0008A3010008A301000800F002F877
:1000F00000F03AF80AA090E8000C82448344AAF188
:100100000107DA4501D100F02FF8AFF2090EBAE885
:100110000F0013F0010F18BFFB1A43F0010318473B
:10012000B0C50000D0C50000103A24BF78C878C11F
:10013000FAD8520724BF30C830C144BF04680C60ED
:10014000704700000023002400250026103A28BF35
:1001500078C1FBD8520728BF30C148BF0B60704739
:100160001FB51FBD10B510BD00F088F91146FFF78F
:10017000F7FF06F0F7FB00F0A6F903B4FFF7F2FF74
:1001800003BC00F0A9F9000009488047094800476E
:10019000FEE7FEE7FEE7FEE7FEE7FEE7FEE7FEE737
:1001A000FEE7FEE704480549054A064B7047000094
:1001B00075450008ED000008E0200020E026002042
:1001C000E0220020E0220020002800DA40427047B0
:1001D000032A40F2308010F0030C00F0158011F873
:1001E000013BBCF1020F624498BF11F801CB00F84B
:1001F000013B38BF11F8013BA2F1040298BF00F89F
:1002000001CB38BF00F8013B11F0030300F0678019
:10021000083AC0F0088051F8043B083A51F804CB82
:10022000A0E80810F5E7121D5CBF51F8043B40F848
:10023000043BAFF30080D20724BF11F8013B11F853
:1002400001CB48BF11F8012B24BF00F8013B00F897
:1002500001CB48BF00F8012B7047431A28BF9A42D0
:100260007FF6B6AF10441144032A40F2268010F006
:10027000030F1EBF11F8013D521E00F8013D10F0A2
:10028000030F7FF4F6AF11F0030300F0C480083AC7
:10029000C0F00B8051F8043D083A51F804CD40F805
:1002A000043D40F804CDFFF7F3BF121D5CBF51F8C9
:1002B000043D40F8043DAFF30080D20724BF11F89D
:1002C000013D11F801CD48BF11F8012C24BF00F801
:1002D000013D00F801CD48BF00F8012C704710B572
:1002E000203AC0F00B80B1E81850A0E81850B1E8EF
:1002F0001850A0E81850203ABFF4F5AF5FEA027C2E
:1003000024BFB1E81850A0E8185044BF18C918C05D
:10031000BDE810405FEA827C24BF51F8043B40F8FE
:10032000043B08BF7047D20728BF31F8023B48BFE3
:1003300011F8012B28BF20F8023B48BF00F8012B21
:1003400070474FF000020429C0F0128010F0030C37
:1003500000F01B80CCF1040CBCF1020F18BF00F8B8
:10036000012BA8BF20F8022BA1EB0C0100F00DB867
:100370005FEAC17C24BF00F8012B00F8012B48BFC5
:1003800000F8012B70474FF0000200B51346944669
:100390009646203922BFA0E80C50A0E80C50B1F1DD
:1003A0002001BFF4F7AF090728BFA0E80C5048BFF1
:1003B0000CC05DF804EB890028BF40F8042B08BF8F
:1003C000704748BF20F8022B11F0804F18BF00F88B
:1003D000012B704770477047704710B500F046F822
:1003E000006810BD10B5044600F040F8046010BD70
:1003F000431A28BF9A427FF672AF1044114410F09E
:10040000030F1EBF11F8013D521E00F8013D10F010
:10041000030F7FF4F6AF103AC0F00A8010B531E94F
:10042000185020E91850103ABFF4F9AFBDE8104059
:10043000530724BF31E9081020E9081044BF51F8E0
:10044000043D40F8043D12F0030F08BF7047D20787
:1004500028BF31F8023D48BF11F8012C28BF20F811
:10046000023D48BF00F8012C70470000004870476B
:100470005001002000487047500100207546FFF7EA
:10048000F9FFAE4605006946534620F00700854651
:1004900018B020B5FFF786FEBDE820404FF00006FB
:1004A0004FF000074FF000084FF0000BAC46ACE8EF
:1004B000C009ACE8C009ACE8C009ACE8C00921F04B
:1004C00007018D46704710B50446AFF30080204603
:1004D000BDE81040FFF751BE01491820ABBEFEE752
:1004E000260002007047000080B584B041F2180178
:1004F000C4F20201086840F4C060086041F21401CF
:10050000C4F20201086840F00100086041F20401F1
:10051000C4F20201086840F4404008601021C4F2AF
:10052000020142F24C40C4F20100086040F2C410E3
:10053000C2F200001421C4F2020108600C21C4F2CE
:100540000201102008600821C4F20201086840F688
:10055000A62210430860086840F0010008600B20E4
:100560000090002104F0F2F9009804F0D7F942F26B
:100570000841C4F201010391086840F001000860DD
:100580000A20019006F0C4F8019842F60802C4F26D
:1005900001020292116841F00101116006F0B8F801
:1005A000029A039942F23443C4F201030420186012
:1005B000086840F20313C0F21E031843086042F2B9
:1005C0000443C4F20103186840F40030186018684E
:1005D00040F48020186042F21043C4F2010318680E
:1005E00020F4E0401860186840F400501860186863
:1005F00040F48050186042F63403C4F2010307202F
:10060000186010680323C0F21E03184310600868C6
:1006100040F004000860FFE742F20840C4F2010025
:1006200000684007002801D5FFE7F5E742F608011A
:10063000C4F20101086840F004000860FFE742F6D8
:100640000800C4F2010000684007002801D5FFE758
:10065000F5E704B080BD000080B586B08DF81700C6
:100660009DF81700013801460491072800F2CC815B
:100670000499DFE811F008001E001F003500360065
:100680006E00B201B30140F22000C2F20000036824
:100690004068694600228A604FF4FC624A60086044
:1006A0004BF6FC72C0F600021E21084603F018F853
:1006B000ABE1AAE140F22000C2F20000036840680A
:1006C000694600228A604FF4FC624A6008604CF27E
:1006D0003A02C0F600021E21084603F001F894E138
:1006E00093E141F29840C2F200000078C00778BB65
:1006F000FFE740F2CC00C2F200000078C00790B1E2
:10070000FFE740F2CD00C2F20000027840F208108C
:10071000C2F2000050F8220040F2E401C2F20001EF
:1007200041F8220011E040F2CD00C2F20000027850
:1007300040F2E400C2F2000050F8220040F208113A
:10074000C2F2000141F82200FFE703F073FCFFE76B
:100750005BE141F29840C2F200000078C007002837
:1007600040F0F480FFE741F29841C2F2000101201D
:1007700008706846002101602E20C522F02301F098
:1007800095FF42F2D400C2F200000078C0070028B2
:100790005BD1FFE700208DF81600FFE79DF81600FB
:1007A000072851DCFFE79DF8160040F6C021C2F291
:1007B00000010978884220D1FFE79DF8162002EB5E
:1007C000C200410040F23C00C2F2000050F822207A
:1007D00040F22000C2F2000003684068EC464FF08F
:1007E000000ECCF808E04FF4FC6ECCF804E0CCF836
:1007F00000002E2002F074FF1FE09DF8162002EB8F
:10080000C200410040F23C00C2F2000050F8222039
:1008100040F22000C2F2000003684068EC464FF04E
:10082000000ECCF808E04FF4806ECCF804E0CCF871
:1008300000002E2002F054FFFFE7FFE79DF81600AE
:1008400001308DF81600A9E77FE000208DF8150033
:10085000FFE79DF8150040F6C021C2F200010A78BA
:100860004BF2DC31C0F60001895C88426CDAFFE7AC
:100870009DF8150040F6C121C2F2000109788842B6
:1008800029D1FFE79DF8150000EBC000410040F6BC
:10089000C020C2F20000027840F20000C2F2000064
:1008A00050F822009DF8152050F8222040F2200038
:1008B000C2F2000003684068EC464FF0000ECCF82E
:1008C00008E04FF4FC6ECCF804E0CCF800002E20D9
:1008D00002F006FF28E09DF8150000EBC000410083
:1008E00040F6C020C2F20000027840F20000C2F2DE
:1008F000000050F822009DF8152050F8222040F208
:100900002000C2F2000003684068EC464FF0000E81
:10091000CCF808E04FF4806ECCF804E0CCF800008E
:100920002E2002F0DDFEFFE740F6C020C2F20000FC
:1009300000789DF8151000F04FFEFFE79DF81500B8
:1009400001308DF8150084E7FFE745E041F298405B
:10095000C2F2000000210170684601602E20C5220D
:10096000F02301F0A3FE41F6C860C2F20000007857
:10097000C007B0B9FFE740F22800C2F200000368E8
:100980004068694600228A604FF4FC624A60086051
:100990004BF6E072C0F600022E206C2102F0A0FEA1
:1009A00015E040F22800C2F2000003684068694682
:1009B00000228A604FF4FC624A6008604BF6E272E3
:1009C000C0F600022E206C2102F08AFEFFE703F041
:1009D000BDFB03F02FFBFFE717E016E040F220001D
:1009E000C2F2000003684068694600228A604FF442
:1009F000FC624A6008604CF26202C0F600021E21EE
:100A0000084602F06DFE00E0FFE706B080BD000082
:100A100080B58AB08DF827009DF82700013801467F
:100A20000891072800F222840899DFE811F00800F5
:100A30001F005B0071006F019101C702C60340F205
:100A40002000C2F2000003684068694600228A6004
:100A50004FF4FC624A6008604BF6EF72C0F6000289
:100A60001E21084602F03CFE00F001BC41F2984015
:100A7000C2F200000078C007E8B9FFE740F24A1070
:100A8000C2F20000018801EB810149000180008869
:100A9000B0F57A7F07DDFFE740F24A11C2F20001AC
:100AA00001200880FFE740F24A10C2F200000088EF
:100AB00000F070FF15E040F24A10C2F20000018819
:100AC00001EB8101490001800088B0F57A7F07DDE4
:100AD000FFE740F24A11C2F2000101200880FFE75F
:100AE000FFE7C4E340F22000C2F200000368406860
:100AF000694600228A604FF4FC624A6008604CF24A
:100B00002D02C0F600021E21084602F0E9FDAEE308
:100B100041F29840C2F200000078C007E0B9FFE758
:100B200040F2CD00C2F200000078072808DCFFE7A1
:100B300040F2CD01C2F2000108780130087006E0F1
:100B400040F2CD01C2F2000100200870FFE703F07F
:100B5000FDFA03F06FFAD8E042F2D400C2F20000CE
:100B60000078C00700285CD1FFE740F6C020C2F241
:100B700000000790017801EBC1014900027840F2C2
:100B80003C00C2F2000050F8222040F22000C2F2E5
:100B9000000003684068EC464FF0000ECCF808E017
:100BA0004FF4806ECCF804E0CCF800002E2002F068
:100BB00097FD07980078062808DCFFE740F6C0217B
:100BC000C2F2000108780130087006E040F6C0214A
:100BD000C2F2000100200870FFE740F6C020C2F218
:100BE0000000017801EBC1014900027840F23C00AD
:100BF000C2F2000050F8222040F22000C2F20000B1
:100C000003684068EC464FF0000ECCF808E04FF463
:100C1000FC6ECCF804E0CCF800002E2002F060FD61
:100C200072E040F6C122C2F200020592107800EB99
:100C3000C000410040F6C020C2F2000006900378D8
:100C400040F20000C2F2000050F82300127850F881
:100C5000222040F22000C2F2000003684068EC4607
:100C60004FF0000ECCF808E04FF4806ECCF804E0B2
:100C7000CCF800002E2002F033FD0598069900788C
:100C80000A784BF2DC31C0F60001895C01398842F8
:100C900008DAFFE740F6C121C2F20001087801300E
:100CA000087006E040F6C121C2F200010020087081
:100CB000FFE740F6C122C2F20002107800EBC0004C
:100CC000410040F6C020C2F20000037840F200006C
:100CD000C2F2000050F82300127850F8222040F2AF
:100CE0002000C2F2000003684068EC464FF0000E9E
:100CF000CCF808E04FF4FC6ECCF804E0CCF800002F
:100D00002E2002F0EDFCFFE7FFE7B0E241F2984051
:100D1000C2F200000078C007C8B9FFE740F2CC007B
:100D2000C2F200000078C00738B1FFE740F2CC0102
:100D3000C2F200010020087006E040F2CC01C2F2CD
:100D4000000101200870FFE703F074F9FFE78EE26D
:100D500041F29840C2F200000078C00708B9FFE7EE
:100D60002BE142F2D400C2F200000078C007B8B90B
:100D7000FFE740F6C020C2F200000078072807D144
:100D8000FFE740F6C021C2F200010020087006E033
:100D900042F2D401C2F2000101200870FFE71FE017
:100DA00040F6C120C2F20000007840F6C021C2F235
:100DB00000010A784BF2DC31C0F60001895C013990
:100DC00088420CD1FFE740F6C121C2F200010020A9
:100DD000087042F2D401C2F200010870FFE7FFE799
:100DE0006846002101602E20C522F02301F05EFC40
:100DF00042F2D400C2F200000078C00700285BD1A4
:100E0000FFE700208DF82600FFE79DF82600072861
:100E100051DCFFE79DF8260040F6C021C2F2000138
:100E20000978884220D1FFE79DF8262002EBC20016
:100E3000410040F23C00C2F2000050F8222040F293
:100E40002000C2F2000003684068EC464FF0000E3C
:100E5000CCF808E04FF4FC6ECCF804E0CCF80000CD
:100E60002E2002F03DFC1FE09DF8262002EBC20080
:100E7000410040F23C00C2F2000050F8222040F253
:100E80002000C2F2000003684068EC464FF0000EFC
:100E9000CCF808E04FF4806ECCF804E0CCF8000009
:100EA0002E2002F01DFCFFE7FFE79DF82600013031
:100EB0008DF82600A9E77FE000208DF82500FFE7E8
:100EC0009DF8250040F6C021C2F200010A784BF2DD
:100ED000DC31C0F60001895C88426CDAFFE79DF8DE
:100EE000250040F6C121C2F200010978884229D1CB
:100EF000FFE79DF8250000EBC000410040F6C02050
:100F0000C2F20000027840F20000C2F2000050F885
:100F100022009DF8252050F8222040F22000C2F245
:100F2000000003684068EC464FF0000ECCF808E083
:100F30004FF4FC6ECCF804E0CCF800002E2002F058
:100F4000CFFB28E09DF8250000EBC000410040F6F3
:100F5000C020C2F20000027840F20000C2F200009D
:100F600050F822009DF8252050F8222040F2200061
:100F7000C2F2000003684068EC464FF0000ECCF867
:100F800008E04FF4806ECCF804E0CCF800002E208E
:100F900002F0A6FBFFE740F6C020C2F20000007896
:100FA0009DF8251000F018FBFFE79DF825000130A3
:100FB0008DF8250084E7FFE7FFE758E141F298400C
:100FC000C2F200000078C007E0B9FFE740F2CD00B0
:100FD000C2F200000078012808DBFFE740F2CD01F3
:100FE000C2F2000108780138087006E040F2CD0135
:100FF000C2F2000108200870FFE703F0A7F803F031
:1010000019F8D9E042F2D400C2F200000078C0071B
:1010100000285CD1FFE740F6C020C2F20000049037
:10102000017801EBC1014900027840F23C00C2F2B4
:10103000000050F8222040F22000C2F200000368B5
:101040004068EC464FF0000ECCF808E04FF4806E9C
:10105000CCF804E0CCF800002E2002F041FB04980C
:101060000078012808DBFFE740F6C021C2F200014A
:1010700008780138087006E040F6C021C2F200018D
:1010800007200870FFE740F6C020C2F20000017898
:1010900001EBC1014900027840F23C00C2F20000BD
:1010A00050F8222040F22000C2F20000036840689D
:1010B000EC464FF0000ECCF808E04FF4FC6ECCF894
:1010C00004E0CCF800002E2002F00AFB73E040F6AA
:1010D000C122C2F200020392107800EBC00041006E
:1010E00040F6C020C2F20000037840F20000C2F2D5
:1010F000000050F82300127850F8222040F220001F
:10110000C2F2000003684068EC464FF0000ECCF8D5
:1011100008E04FF4806ECCF804E0CCF800002E20FC
:1011200002F0DEFA03980078012808DBFFE740F6BA
:10113000C121C2F2000108780138087010E040F6C1
:10114000C020C2F2000001784BF2DC30C0F6000093
:10115000405C013840F6C121C2F200010870FFE78F
:1011600040F6C122C2F20002107800EBC00041003C
:1011700040F6C020C2F20000037840F20000C2F244
:10118000000050F82300127850F8222040F220008E
:10119000C2F2000003684068EC464FF0000ECCF845
:1011A00008E04FF4FC6ECCF804E0CCF800002E20F0
:1011B00002F096FAFFE7FFE759E041F29840C2F2E9
:1011C00000000078C00700284FD1FFE741F6C86053
:1011D000C2F200000078C00738B9FFE741F6C861E5
:1011E000C2F200010120087006E041F6C861C2F2B7
:1011F000000100200870FFE741F6C860C2F200005D
:101200000078C007C0B9FFE740F22800C2F2000032
:1012100003684068694600228A604FF4FC624A60B5
:1012200008604BF6E072C0F600022E206C2102F03E
:1012300057FA02F05DFE17E040F22800C2F200000B
:1012400003684068694600228A604FF4FC624A6085
:1012500008604BF6E272C0F600022E206C2102F00C
:101260003FFA03F0CDFAFFE7FFE700E0FFE70AB03F
:1012700080BD000080B59AB01990189140F6DB70DF
:10128000C4F24900179018981690199815904FF0CD
:10129000834014901798159907F040FA169907F0B3
:1012A00097F806F09FFC13901399084607F036FA5A
:1012B000129000201190FFE71198072800F3AF80EB
:1012C000FFE717980290119807F094F90146084635
:1012D00006F0E0FF4FF07E51069106F0DBFF01467D
:1012E000029807F01BFA03901499084606F0D2FF03
:1012F0000146039807F06CF81090109806F0B4FBC4
:101300000146084606F0C6FF0146069807F060F859
:101310000F901298049013980F9907F059F801460E
:10132000049806F0B7FF069906F0B4FF0E901298E5
:101330000E9907F04DF80D900D99084606F0AAFF9A
:1013400006990C900D980B90129807F0EDFA014653
:10135000084606F09FFF0E9907F03AF80A90129897
:10136000059013980F9907F033F80146059807F098
:10137000DBFA069906F08EFF0E9907F029F809901E
:101380000D984FF09D41079107F0C8F907F016F945
:101390000799119A02EB820341F27832C2F20002FD
:1013A000089242F823000C9807F0B8F907F006F904
:1013B0000799089A119B03EB830302EB83025060A9
:1013C0000B9807F0ABF907F0F9F80799089A119B09
:1013D00003EB830302EB830290600A9880F00040E5
:1013E00007F09CF907F0EAF80799089A119B03EBBC
:1013F000830302EB8302D060099880F0004007F07D
:101400008DF907F0DBF80899119A02EB820201EBE3
:1014100082010861FFE71198013011904CE741F219
:101420001840C2F2000001908021FEF7ACFF019B42
:1014300069460120086040F2B410C2F2000041F297
:101440007832C2F20002082103F0D6FA1AB080BD49
:1014500081B041F20001C4F20201086840F480301A
:101460000860FFE741F20000C4F202000068800358
:10147000002801D4FFE7F5E742F20001C4F20201BF
:10148000086840F00200086041F20401C4F2020161
:1014900000910868086008680860086840F4806087
:1014A0000860086820F470100860086840F4441070
:1014B000086041F20001C4F20201086840F0807047
:1014C0000860FFE741F20000C4F2020000688001FA
:1014D000002801D4FFE7F5E741F20401C4F202015C
:1014E000086820F003000860086840F00200086007
:1014F000FFE741F20400C4F20200006800F00C00B3
:10150000082801D0FFE7F4E701B0704780B500205C
:10151000C4F2020000684007002818D5FFE7042144
:10152000C4F20201086840F00400086040F2C410F0
:10153000C2F2000040F66851C2F2000140F66C525F
:10154000C2F2000202F060FB00F09EFAFFE700200A
:10155000C4F2020000688007002819D5FFE70421C3
:10156000C4F20201086840F00200086040F2C410B2
:10157000C2F20000203040F66851C2F2000140F68D
:101580006C52C2F2000202F03FFB00F07DFAFFE76E
:1015900080BD000080B582B005F028F86946802043
:1015A000086040F64050C2F2000040F2C052C2F261
:1015B000000241F6AA43C2F200037F2103F044FE79
:1015C00048F20000C4F23B504EF20061C4F2AA613E
:1015D000FFF750FE02B080BD80B58AB08DF82700BD
:1015E0008DF826109DF8270001460891062800F284
:1015F000E1800899DFE801F0043866738092D10039
:101600009DF826000146079103282CD80799DFE8AA
:1016100001F0020C162040F22C10C2F200000288E9
:101620009820002101F01AF81DE040F22C10C2F2BF
:10163000000042889820122101F010F813E040F2D7
:101640002C10C2F2000082889820242101F006F8B4
:1016500009E040F22C10C2F20000C2889820362126
:1016600000F0FCFFFFE7A5E09DF82600014606918B
:1016700040B1FFE7069801280FD0FFE7069802283F
:1016800015D01EE040F23410C2F20000B0F9002084
:101690009820002100F0E2FF13E040F2AC50C2F2CB
:1016A000000002689820122100F0D8FF09E040F203
:1016B000A850C2F2000002689820242100F0CEFF5A
:1016C000FFE777E09DF826000146059120B1FFE78E
:1016D0000598012801D001E000E0FFE76AE09DF8ED
:1016E00026000146049120B1FFE70498012801D0AB
:1016F00001E000E0FFE75DE09DF826000146039170
:1017000040B1FFE70398012805D0FFE703980228BE
:1017100002D002E001E000E0FFE74BE09DF8260088
:1017200001460291042837D80299DFE801F0030D41
:1017300017212B0040F2D000C2F20000026898206E
:10174000002100F08BFF27E040F2D000C2F2000041
:1017500042689820122100F081FF1DE040F2D00085
:10176000C2F2000082689820242100F077FF13E085
:1017700040F2D000C2F20000C2689820362100F08A
:101780006DFF09E040F2D000C2F20000026998202B
:10179000482100F063FFFFE70CE09DF826000146BA
:1017A000019120B1FFE70198012801D001E000E09C
:1017B000FFE7FFE70AB080BD10B58CB0ADF82E0092
:1017C000ADF82C1040F24610C2F200000088E72865
:1017D00007DBFFE740F24811C2F200010020088059
:1017E000D6E040F24610C2F200000088C0F1E701E6
:1017F0004FF4704090FBF1F040F24811C2F200014A
:1018000008800A20ADF82A00FFE7BDF82A00EA2880
:1018100011DCFFE7BDF82C000130BDF82A1080B2C2
:101820002422002300F056FEFFE7BDF82A00013015
:10183000ADF82A00E9E70A20ADF82A00FFE7BDF875
:101840002A00EA2811DCFFE7BDF82C000130BDF8C2
:101850002A1080B22422002300F03CFEFFE7BDF8EE
:101860002A000130ADF82A00E9E7BDF92E0040F268
:10187000A92148430012099000208DF82300FFE7BA
:101880009DF823000E2800F28380FFE79DF82300D7
:1018900000EB400148F61430C0F6000030F821009B
:1018A0000999084480380790079840F24611C2F21F
:1018B00000010988401A06900698B0F1FF3F01DC4C
:1018C000FFE75FE0069840F24811C2F20001098884
:1018D0004843001205900598F12801DBFFE751E02D
:1018E0000598C0F1F000ADF81200BDF812000A280A
:1018F00005DBFFE7BDF81200E72801DBFFE741E069
:101900009DF8230000EB400148F61430C0F60000BB
:1019100000EB8100007A40B3FFE7BDF82C000130F6
:10192000BDF8121004399DF8232002EB420348F65B
:101930001432C0F6000202EB8302526840F2300C0F
:10194000C2F2000CDCF80030DCF804C0EE460024E3
:10195000CEF808404FF48064CEF80440CEF800C0C2
:1019600080B289B201F0BCFE0BE0BDF82C00013062
:10197000BDF8121080B202224FF4806300F0AAFD7D
:10198000FFE7FFE79DF8230001308DF8230077E79C
:101990000CB010BD80B584B0ADF80E0069460020D3
:1019A0000860A62086215022022300F07FFEBDF8A9
:1019B0000E000146029101280DD0FFE702980A2887
:1019C00014D0FFE7029864281BD0FFE70298B0F517
:1019D0007A7F21D02BE069464FF4FC600860DF205D
:1019E00086211022022300F061FE20E069464FF4B8
:1019F000FC600860CF2086211022022300F056FEF2
:101A000015E069464FF4FC600860BF208621102273
:101A1000022300F04BFE0AE069464FF4FC600860C8
:101A20009F2086211022022300F040FEFFE704B031
:101A300080BD000080B540F21441C4F201014FF4B2
:101A40000040086002F090FC80BD000080B540F2CC
:101A50001441C4F201010820086002F085FC80BD39
:101A600080B540F21441C4F201011020086002F078
:101A70007BFC80BD80B540F21441C4F201014020DE
:101A8000086002F071FC80BD80B582B042F2DC00DB
:101A9000C2F200000078C007002800F07B81FFE759
:101AA00041F6C860C2F200000078C007002840F08C
:101AB0008E80FFE740F66E50C2F200000088404280
:101AC00040F2A051C2F2000101910B8841F2701264
:101AD000C2F2000222F8130040F2A25CC2F2000C33
:101AE000BCF8000040F6C223C2F2000333F8100035
:101AF00041F2A642C2F20002108040F66A50C2F2E1
:101B000000000088BCF800C023F81C000B8841F2DC
:101B1000A840C2F2000030F91300B2F900200244DC
:101B200040F67050C2F2000040F82320098800EB14
:101B3000810001F085FF0198018841F2A860C2F29E
:101B4000000050F8210041F6CC61C2F20001B1F969
:101B50000010884211DDFFE740F2A050C2F2000001
:101B6000018841F2A860C2F2000050F8210041F65D
:101B7000CC61C2F200010880FFE740F2A050C2F23F
:101B80000000018841F2A860C2F2000050F8210074
:101B90004BF2D471C0F6000141F6C462C2F20002F9
:101BA00040F24013C2F2000305F09CF8014640F2F7
:101BB0003C10C2F200000180008800F5007080B285
:101BC000800840F24041C4F200010880A1E040F6E4
:101BD0006E50C2F20000018841F6CA60C2F20000F5
:101BE0000180B0F90000B0F1FF3F08DCFFE741F6EB
:101BF000CA61C2F20001088840420880FFE741F64E
:101C0000CA60C2F20000B0F9000041F6CC61C2F235
:101C10000001B1F9001088420BDDFFE741F6CA6010
:101C2000C2F20000008841F6CC61C2F200010880D7
:101C3000FFE740F66E50C2F20000B0F900004CF22F
:101C4000C841C0F6000142F2D802C2F2000240F2DE
:101C50004C13C2F2000305F045F8810140F2A05098
:101C6000C2F20000038840F67052C2F2000242F84D
:101C70002310B0F800C041F2A862C2F2000252F88C
:101C80002C1001F30F0141F27013C2F2000323F88C
:101C90001C1040F2A25CC2F2000CBCF8001040F62E
:101CA000C223C2F2000333F811E041F2A641C2F2AE
:101CB0000001A1F800E0B0F800E052F82E2002F395
:101CC0000F02BCF800C023F81C20028841F2A84093
:101CD000C2F2000030F8122040F23C10C2F20000C4
:101CE0000280B1F9001001F30F0247F6FF710A44B8
:101CF000920940F23443C4F200031A80B0F90000A4
:101D000000F30F00084480094021C4F2000108805C
:101D1000FFE740F2A050C2F20000018801310180CB
:101D20000088B0F5807F07DBFFE740F2A051C2F2E8
:101D3000000100200880FFE740F2A250C2F200003C
:101D40000188013101800088B0F59F7F07DDFFE742
:101D500040F2A251C2F2000100200880FFE740F6E5
:101D60006850C2F20000008840F66A51C2F20001D9
:101D7000088040F66C50C2F20000008840F66E51B8
:101D8000C2F20001088042F2DC01C2F20001002030
:101D900008701EE040F66A51C2F20001088840F661
:101DA0006852C2F2000212881044088040F66E5158
:101DB000C2F20001088840F66C52C2F2000212889A
:101DC0001044088042F2DC01C2F2000101200870D8
:101DD000FFE741F6C860C2F200000078C0070028A3
:101DE00043D1FFE740F2A450C2F20000008840F265
:101DF0003611C2F200010988884228DAFFE740F66E
:101E00004C50C2F200000078C00700BBFFE740F66C
:101E10006E50C2F200000088800040F2A451C2F26D
:101E200000010B8840F2C062C2F2000222F82300D7
:101E300040F66A50C2F200000088404280000B88E1
:101E400002EB830250800888013008800CE040F2E9
:101E5000A451C2F200010020088040F64C51C2F2A9
:101E6000000101200870FFE744E040F2A450C2F2F4
:101E70000000008840F23611C2F200010988884251
:101E80002ADAFFE740F64C50C2F200000078C007A3
:101E900010BBFFE741F2A640C2F20000B0F900001B
:101EA000800840F2A451C2F200010B8840F2C062E7
:101EB000C2F2000222F8230040F23C10C2F20000FD
:101EC000B0F90000404280080B8802EB830250808A
:101ED0000888013008800CE040F2A451C2F20001F1
:101EE0000020088040F64C51C2F200010120087029
:101EF000FFE7FFE702B080BD41F21801C4F2020122
:101F0000086840F004000860086840F008000860B5
:101F1000086840F0100008600421C4F2010108685C
:101F200040F00070086040F60442C4F201021068FC
:101F30004FF6FF71C0F60F7108401060106840F452
:101F400030001060106840F030401060106820F0E1
:101F500070601060106840F08060106040F604010E
:101F6000C4F20101086820F470600860086840F459
:101F700040700860086820F470400860086840F409
:101F800040500860086820F470200860086840F439
:101F90004030086040F60001C4F20101086820F4F6
:101FA00040600860086820F440700860086840F4E9
:101FB00080700860086820F0C0000860086820F0A1
:101FC00030000860086840F010000860086820F0E1
:101FD0000C000860086820F003000860086840F002
:101FE0000100086041F20403C4F20103186820F004
:101FF00040401860186820F040501860186840F0A1
:1020000080501860186820F040601860186820F050
:1020100040701860186840F08070186040F6140333
:10202000C4F201030720186041F21403C4F2010353
:102030004FF440401860106840F4807010601068E1
:1020400020F440601060106840F480501060106808
:1020500020F440401060086820F4403008600868B0
:1020600020F440200860086820F4401008600868E8
:1020700020F440000860086820F0405008600868BC
:1020800020F040400860086820F47040086008684C
:1020900040F420400860086820F07060086008681C
:1020A00040F02060086040F60041C4F20101086879
:1020B00020F0F0000860086840F0A000086041F2DD
:1020C0001001C4F20101086840F40050086008687B
:1020D00040F00050086040F61442C4F2010210685B
:1020E00040F40060106040F61041C4F2010108683D
:1020F00040F480600860106840F4806010600868F8
:1021000040F400600860704780B541F21801C4F2E5
:102110000201086840F00D0008600421C4F20101CA
:102120000868022262F31A60086040F60401C4F2F3
:102130000101086820F070400860086840F0004025
:10214000086040F60C01C4F20101086840F4004048
:10215000086040F60041C4F20101086840F6FF72D1
:10216000CFF2F00210400860086848F20002C0F6A2
:1021700008021043086040F60C41C4F201010868EF
:1021800040F0580008600821C4F2010108680122EB
:1021900062F30F3008600C21C4F20101086862F399
:1021A00003000860086862F30B2008601421C4F281
:1021B0000101086820F47040086040F20041C4F258
:1021C0000101086848F258021043086040F20C41CF
:1021D000C4F2010108681043086040F20841C4F2EB
:1021E000010108681043086040F21441C4F2010183
:1021F0000820086010200860402008604FF400406C
:102200000860092002F08AFB0A2002F087FB1720F1
:1022100002F084FB282002F081FB80BD81B0002009
:102220008DF8030040F60800C4F2010000680004C5
:10223000002807D4FFE79DF8030040F001008DF867
:102240000300FFE740F60840C4F201000068000701
:10225000002807D4FFE79DF8030040F002008DF846
:102260000300FFE740F60840C4F201000068C00622
:10227000002807D4FFE79DF8030040F004008DF824
:102280000300FFE740F60840C4F201000068400682
:10229000002807D4FFE79DF8030040F008008DF800
:1022A0000300FFE79DF8030001B07047FFE7FEE77A
:1022B00045F20041C4F20001088840F40040088063
:1022C00000BF08886FF3DF30088045F20442C4F293
:1022D00000022420108045F21C42C4F200021E209D
:1022E000108045F22042C4F200020C2010800888C1
:1022F00040F001000880704741F21801C4F2020169
:10230000086840F00900086041F21C01C4F20201B3
:10231000086840F4001008600421C4F20101086854
:1023200040F00200086040F60441C4F20101086870
:1023300020F0FF000860086840F0FF00086045F2E8
:102340000041C4F20001088840F400400880088879
:102350006FF3DF30088045F20442C4F200021088B7
:1023600040F02400108045F21C42C4F20002B42068
:10237000108045F22042C4F2000225201080088817
:1023800040F001000880704782B0ADF8060000916F
:1023900040F61001C4F201014FF48060086040F67D
:1023A0001401C4F201014FF480500860FFE7009867
:1023B00040B3FFE79DF8070043F60C01C4F20001AB
:1023C0000870FFE743F60800C4F2000000888007A9
:1023D000002801D4FFE7F5E79DF8060043F60C015D
:1023E000C4F200010870FFE743F60800C4F20000E1
:1023F00000888007002801D4FFE7F5E7009801383E
:102400000090D4E7FFE743F60800C4F2000000881C
:102410008007002801D4FFE7F5E7FFE743F608004F
:10242000C4F2000000880006002801D5FFE7F5E7A8
:1024300040F61001C4F201014FF48050086002B070
:102440007047000010B58AB0ADF82600ADF8241032
:102450000892089805A9049104F0DAF9049ABDF8E5
:102460002600BDF8241040F2200CC2F2000CDCF86B
:102470000030DCF804C0EE460024CEF808404FF4EB
:10248000FC64CEF80440CEF800C001F029F99DF8B4
:10249000140030281BD1FFE7BDF82600BDF824103A
:1024A0009DF8142040F2200CC2F2000CDCF8003041
:1024B000DCF804C0EE460024CEF808404FF48064F7
:1024C000CEF80440CEF800C001F08AF8FFE70AB069
:1024D00010BD000080B582B0ADF80600ADF8041064
:1024E000ADF80220ADF80030BDF8060040F23A0128
:1024F000C2F20001098888420ADAFFE7BDF8040049
:1025000040F23801C2F200010988884201DBFFE78E
:102510002BE0BDF80600BDF802100844013840F277
:102520003A01C2F20001098888420BDBFFE740F262
:102530003A00C2F200000088BDF80610401AADF85B
:102540000200FFE7BDF80600BDF80430BDF8021038
:10255000014401398AB2194600F056FEBDF8000068
:10256000BDF80210FFF710FFFFE702B080BD0000CA
:1025700010B58AB0ADF82600ADF82410089208987E
:1025800005A904F045F900200490FFE70498092804
:1025900061DCFFE7049A05A8805C41F29941C2F230
:1025A0000001895C884251D0FFE7BDF826000499FC
:1025B00000EB0110ADF80E00049810BBFFE7049982
:1025C00005A8405C30281CD1FFE7BDF80E00BDF81F
:1025D0002410049B05AAD25C40F2280CC2F2000C25
:1025E000DCF80030DCF804C0EE460024CEF80840E9
:1025F0004FF48064CEF80440CEF800C000F0F0FF45
:102600001BE0BDF80E00BDF82410049B05AAD25CA7
:1026100040F2280CC2F2000CDCF80030DCF804C0F8
:10262000EE460024CEF808404FF4FC64CEF8044097
:10263000CEF800C000F0D4FFFFE7049A05A8805C44
:1026400041F29941C2F200018854FFE7FFE7049884
:10265000013004909AE70AB010BD000010B588B0B0
:10266000ADF81E00ADF81C100692069804A903915F
:1026700004F02AF9039ABDF81E00BDF81C1040F2C0
:10268000200CC2F2000CDCF80030DCF804C0EE468E
:102690000024CEF808404FF4FC64CEF80440CEF895
:1026A00000C001F01DF808B010BD000080B584B076
:1026B00084460698ADF80EC0ADF80C10ADF80A20AF
:1026C000ADF80830ADF80600BDF80E0040F23A0152
:1026D000C2F20001098888420ADAFFE7BDF80C005F
:1026E00040F23801C2F200010988884201DBFFE7AD
:1026F0004BE0BDF80E00BDF80A100844013840F266
:102700003A01C2F20001098888420BDBFFE740F280
:102710003A00C2F200000088BDF80E10401AADF871
:102720000A00FFE7BDF80C00BDF8081008440138A6
:1027300040F23801C2F20001098888420BDBFFE752
:1027400040F23800C2F200000088BDF80C10401AB8
:10275000ADF80800FFE7BDF80E00BDF80C10BDF89D
:102760000A200244013ABDF808300B44013B92B202
:102770009BB200F049FDBDF80600BDF80810BDF899
:102780000A205143FFF700FEFFE704B080BD0000C0
:10279000B0B5AAB00020ADF8A600ADF8A600FFE7DE
:1027A000BDF8A600192800F3D581FFE7BDF8A60003
:1027B000000248F6A331CBF62E212591A0FB0101A2
:1027C000782000EB511081B2FF202690052227923D
:1027D0004FF480632893FFF77DFEDDF894C02698C0
:1027E000279A289BBDF8A6100902A1FB0C1C772193
:1027F000A1EB5C1189B2FFF76DFEBDF8A6000528BC
:1028000065D1FFE7BDF8A600000248F6A331CBF67C
:102810002E212191A0FB010174201D9000EB51108D
:1028200040F23001C2F200011E910B6849686A460D
:10283000002595604FF4806424945460116081B247
:102840004CF26612C0F600022092F3201F9000F0B6
:1028500047FF1D99DDF878C01F98209ADDF884E0C5
:10286000BDF8A6301B02A3FB0EE3A1EB5311DCF86D
:102870000030DCF804C0EE46CEF80850CEF8044034
:10288000CEF800C089B200F02BFF2199249BBDF83F
:10289000A6000002A0FB0101782000EB511081B2DC
:1028A000FA2022900A222392FFF714FEDDF884C05A
:1028B0002298239A249BBDF8A6100902A1FB0C1CA8
:1028C0007721A1EB5C1189B2FFF704FEFFE7BDF8A9
:1028D000A6000A2865D1FFE7BDF8A600000248F669
:1028E000A331CBF62E211991A0FB01017420159084
:1028F00000EB511040F23001C2F2000116910B685A
:1029000049686A46002595604FF480641C945460C1
:10291000116081B24CF24E12C0F600021892EC2007
:10292000179000F0DDFE1599DDF858C01798189A39
:10293000DDF864E0BDF8A6301B02A3FB0EE3A1EBBB
:102940005311DCF80030DCF804C0EE46CEF8085035
:10295000CEF80440CEF800C089B200F0C1FE19994B
:102960001C9BBDF8A6000002A0FB0101782000EB33
:10297000511081B2FA201A900A221B92FFF7AAFD89
:10298000DDF864C01A981B9A1C9BBDF8A6100902BA
:10299000A1FB0C1C7721A1EB5C1189B2FFF79AFD1A
:1029A000FFE7BDF8A6000F2865D1FFE7BDF8A60038
:1029B000000248F6A331CBF62E211191A0FB0101B4
:1029C00074200D9000EB511040F23001C2F2000172
:1029D0000E910B6849686A46002595604FF4806443
:1029E00014945460116081B24CF26112C0F600027E
:1029F0001092EC200F9000F073FE0D99DDF838C0B6
:102A00000F98109ADDF844E0BDF8A6301B02A3FB36
:102A10000EE3A1EB5311DCF80030DCF804C0EE4605
:102A2000CEF80850CEF80440CEF800C089B200F0CD
:102A300057FE1199149BBDF8A6000002A0FB0101EE
:102A4000782000EB511081B2FA2012900A221392E2
:102A5000FFF740FDDDF844C01298139A149BBDF8AF
:102A6000A6100902A1FB0C1C7721A1EB5C1189B215
:102A7000FFF730FDFFE7BDF8A600142863D1FFE79C
:102A8000BDF8A600000248F6A331CBF62E2109912D
:102A9000A0FB0101722000EB511040F23001C2F2A4
:102AA000000106910B6849686A46002595604FF45D
:102AB00080640C945460116081B24CF25212C0F6E2
:102AC00000020892EC20079000F00AFEDDF818C022
:102AD0000798089A099BBDF8A6100902A1FB0313E9
:102AE0007521A1EB5311DCF80030DCF804C0EE4690
:102AF000CEF80850CEF80440CEF800C089B200F0FD
:102B0000EFFD09990C9BBDF8A6000002A0FB010196
:102B1000782000EB511081B2FA200A900A220B9221
:102B2000FFF7D8FCDDF824C00A980B9A0C9BBDF87F
:102B3000A6100902A1FB0C1C7721A1EB5C1189B244
:102B4000FFF7C8FCFFE7FFE7BDF8A6000130ADF8CE
:102B5000A60025E6FA20039076210A2204924FF47B
:102B600080630593FFF7B6FC0398049A77214FF42E
:102B70007843FFF7AFFC0398049A059B7821FFF791
:102B8000A9FC2AB0B0BD000080B58CB0ADF826001D
:102B9000BDF9260008900898B0F1FF3F04DCFFE77C
:102BA000089840420890FFE7089818B9FFE701200D
:102BB0000890FFE70898079007980A900A9820B9AC
:102BC000FFE720208DF82F0005E00A98B0FA80F08A
:102BD0008DF82F00FFE79DF82F0006900698C0F1B2
:102BE0001F000590002004900598032808D3FFE7F4
:102BF000079805990339C84000F0070004900AE0DF
:102C00000798059901228A40013A1040C1F1030159
:102C100088400490FFE70599049800EB01100390A9
:102C2000039840F24611C2F200010988401A02904E
:102C30000298B0F1FF3F03DCFFE700200290FFE7BE
:102C4000029840F24811C2F2000109884843000A84
:102C5000ADF80600BDF80600F12804DBFFE7F02020
:102C6000ADF80600FFE7BDF8060040F2B011C2F271
:102C70000001B1F90010884208DDFFE7BDF8060049
:102C800040F2B011C2F20001088022E0BDF8060057
:102C900040F2B011C2F20001B1F90010884217DA17
:102CA000FFE740F2B010C2F2000001880339018052
:102CB000B0F90000BDF80610884208DAFFE7BDF859
:102CC000060040F2B011C2F200010880FFE7FFE702
:102CD000FFE740F2B010C2F200000088C0F1F0003F
:102CE000ADF80400BDF8040001280ADBFFE7BDF8D9
:102CF000043068460021016001200A22FFF7D6FC5B
:102D0000FFE740F2B010C2F20000B0F90000012865
:102D100010DBFFE7BDF8041040F2B010C2F2000073
:102D200003886A464FF4FC60106001200A22FFF716
:102D3000BDFCFFE70CB080BD80B584B00390039864
:102D400001F026FE0020ADF80400FFE7BDF8040006
:102D5000FF2844DCFFE70398BDF8041030F81100A9
:102D6000ADF80800BDF80800B0F5807F04DBFFE790
:102D7000FF20ADF80800FFE7BDF808104CF2CE4088
:102D8000C0F6000030F81100ADF80A00BDF80400EC
:102D90007F2806DCFFE7BDF804008030ADF80600B0
:102DA00005E0BDF804008038ADF80600FFE79DF8A7
:102DB0000B00BDF9062040F26021C2F2000101F8CB
:102DC0001200BDF80A00BDF9062001EB420148706F
:102DD000FFE7BDF804000130ADF80400B6E740F2AB
:102DE0006020C2F20000042280F8FE20002180F85A
:102DF000FF10F82380F8003180F8011180F80221DB
:102E000080F8031141F27030C2F200000078C0F582
:102E1000A072F023104600F0F7F940F61001C4F25A
:102E200001014FF48060086040F61401C4F2010112
:102E30004FF4805008601020ADF80400FFE7BDF8A3
:102E40000400B0F5F87F1EDAFFE7FFE743F608005D
:102E5000C4F2000000888007002801D4FFE7F5E7EE
:102E6000BDF8041040F26020C2F20000405C43F65E
:102E70000C01C4F200010870FFE7BDF80400013046
:102E8000ADF80400DBE7FFE743F60800C4F20000FA
:102E900000888007002801D4FFE7F5E7FFE743F645
:102EA0000800C4F2000000880006002801D5FFE7F2
:102EB000F5E740F61001C4F201014FF480500860BC
:102EC00000204FF4827100F055FB41F27030C2F2E5
:102ED00000000090007800F085F900980178013139
:102EE000017000783D2807DBFFE741F27031C2F244
:102EF000000100200870FFE704B080BD80B584B0F9
:102F0000ADF80E0040F23A00C2F2000001900288D3
:102F100040F23800C2F20000029003880021084607
:102F200000F072F90199029ABDF80E000988128822
:102F30005143FFF729FA04B080BD000080B590B07E
:102F400040F61001C4F201014FF40060086000F087
:102F500027F90120009000F027FC42F2107003F0E6
:102F6000D7FBCB2000F020FC392000F051FC2C20B6
:102F700000F04EFC0020029000F04AFC342000F0EB
:102F800047FC022000F044FCCF2000F00DFC02982A
:102F900000F03EFCC120059000F03AFC302000F02B
:102FA00037FCE82000F000FC852000F031FC02989E
:102FB00000F02EFC78200E9000F02AFCEA2000F0B1
:102FC000F3FB029800F024FC029800F021FCED20B5
:102FD00000F0EAFB642000F01BFC03200F9000F0DF
:102FE00017FC122000F014FC812000F011FCF720E7
:102FF00000F0DAFB202000F00BFCC02000F0D4FB36
:10300000232000F005FC059800F0CEFB1020019075
:1030100000F0FEFBC52000F0C7FB3E2000F0F8FBEF
:1030200028200C9000F0F4FBC72000F0BDFB8620A8
:1030300000F0EEFB36200A9000F0B6FB4820069028
:1030400000F0E6FB3A2000F0AFFB552000F0E0FB7B
:10305000B12000F0A9FB029800F0DAFB1B2000F081
:10306000D7FBB62000F0A0FB0820079000F0D0FBB3
:10307000822000F0CDFB272000F0CAFBF22000F0F8
:1030800093FB029800F0C4FB262000F08DFB009813
:1030900000F0BEFBE02000F087FB0F200B9000F05B
:1030A000B7FB3120099000F0B3FB2B2000F0B0FB00
:1030B0000C20089000F0ACFB0E20039000F0A8FB61
:1030C000079800F0A5FB4E2000F0A2FBF12000F0D5
:1030D0009FFB372000F09CFB0720049000F098FB3A
:1030E000019800F095FB0F9800F092FB039800F018
:1030F0008FFB092000F08CFB029800F089FBE12097
:1031000000F052FB029800F083FB039800F080FB74
:10311000142000F07DFB0F9800F07AFB11200D9039
:1031200000F076FB049800F073FB099800F070FB48
:10313000059800F06DFB069800F06AFB079800F018
:1031400067FB0B9800F064FB089800F061FB09989E
:1031500000F05EFB0A9800F05BFB0B9800F058FB58
:10316000B42000F021FB0B2000F052FBBB2000F04C
:103170001BFB0C9800F04CFBB72000F015FB352032
:1031800000F046FB0D9800F00FFB0E9803F0C0FA1C
:10319000292000F009FB0F9800F068F910B080BDFD
:1031A00080B584B040F61401C4F2010101914FF4DE
:1031B0000060029008604FF4FA60039003F0A8FAF0
:1031C000019A03984FF48051116003F0A1FA02991B
:1031D000039840F61002C4F20102116003F098FA5D
:1031E00004B080BD80B582B0ADF80600372000F095
:1031F000DBFA9DF8070000F00BFB9DF8060000F0DD
:1032000007FB02B080BD000082B0ADF80600ADF84B
:103210000410ADF80220ADF8003040F61401C4F2FD
:1032200001014FF4806008604FF48050086043F65D
:103230000C01C4F200012A200870FFE743F60800E1
:10324000C4F2000000888007002801D4FFE7F5E7FA
:10325000FFE743F60800C4F20000008800060028DB
:1032600001D5FFE7F5E740F61001C4F201014FF484
:10327000806008609DF8070043F60C01C4F200016D
:103280000870FFE743F60800C4F2000000888007DA
:10329000002801D4FFE7F5E79DF8060043F60C018E
:1032A000C4F200010870FFE743F60800C4F2000012
:1032B00000888007002801D4FFE7F5E79DF80300A8
:1032C00043F60C01C4F200010870FFE743F6080062
:1032D000C4F2000000888007002801D4FFE7F5E76A
:1032E0009DF8020043F60C01C4F200010870FFE7EC
:1032F00043F60800C4F2000000888007002801D4CB
:10330000FFE7F5E7FFE743F60800C4F20000008896
:103310000006002801D5FFE7F5E740F61401C4F2E6
:1033200001014FF48060086043F60C01C4F2000113
:103330002B200870FFE743F60800C4F20000008865
:103340008007002801D4FFE7F5E7FFE743F6080010
:10335000C4F2000000880006002801D5FFE7F5E769
:1033600040F61001C4F201014FF4806008609DF83E
:10337000050043F60C01C4F200010870FFE743F6B4
:103380000800C4F2000000888007002801D4FFE78D
:10339000F5E79DF8040043F60C01C4F20001087043
:1033A000FFE743F60800C4F2000000888007002809
:1033B00001D4FFE7F5E79DF8010043F60C01C4F2E4
:1033C00000010870FFE743F60800C4F2000000881F
:1033D0008007002801D4FFE7F5E79DF8000043F6D9
:1033E0000C01C4F200010870FFE743F60800C4F2C4
:1033F000000000888007002801D4FFE7F5E7FFE719
:1034000043F60800C4F2000000880006002801D539
:10341000FFE7F5E740F61401C4F201014FF48060C4
:10342000086043F60C01C4F200012C200870FFE78D
:1034300043F60800C4F2000000888007002801D489
:10344000FFE7F5E7FFE743F60800C4F20000008855
:103450000006002801D5FFE7F5E740F61001C4F2A9
:1034600001014FF48050086002B0704780B582B00F
:103470008DF8070040F61401C4F201014FF480609A
:1034800008604FF48050086043F60C01C4F200015C
:1034900036200870FFE743F60800C4F200000088F9
:1034A0008007002801D4FFE7F5E7FFE743F60800AF
:1034B000C4F2000000880006002801D5FFE7F5E708
:1034C00040F61001C4F201014FF4805008609DF8ED
:1034D000070001460091032848D80099DFE801F071
:1034E00002132435202000F093F940F23A01C2F291
:1034F0000001F020088040F23801C2F200014FF4D0
:10350000A070088033E0802000F082F940F23A0198
:10351000C2F200014FF4A070088040F23801C2F2FC
:103520000001F020088022E0E02000F071F940F274
:103530003A01C2F20001F020088040F23801C2F2E4
:1035400000014FF4A070088011E0402000F060F905
:1035500040F23A01C2F200014FF4A070088040F23C
:103560003801C2F20001F020088000E0FFE702B05D
:1035700080BD000080B582B0ADF80600ADF8041043
:10358000BDF80600BDF804100844B0F5A07F25DCA6
:10359000FFE7BDF80600BDF804100844C0F5A070B0
:1035A000ADF80200332000F0FFF89DF8070000F0AE
:1035B0002FF99DF8060000F02BF99DF8030000F0AC
:1035C00027F99DF8020000F023F99DF8050000F0AE
:1035D0001FF99DF8040000F01BF9FFE702B080BD61
:1035E000B0B58AB09E460B4684460E9C10980F9943
:1035F0000994CDF820E0ADF81EC0ADF81C308DF870
:103600001B20ADF81810ADF81600002000900190B6
:10361000BDF81E00BDF81C109DF820209DF821303B
:103620000244013A0B44013B92B29BB2FFF7ECFD1E
:10363000009840F61002C4F201024FF4806111605C
:1036400040F61402C4F201024FF48051116004905C
:10365000FFE704989DF82110884238D2FFE70998C7
:103660009DF81B1020399DF82120049B01FB02319D
:1036700030F81100039000200290FFE702989DF8B7
:10368000201088421ED2FFE7039802998840000468
:10369000002809D5FFE79DF8190000F0B9F89DF85A
:1036A000180000F0B5F808E09DF8170000F0B0F839
:1036B0009DF8160000F0ACF8FFE7FFE70298013034
:1036C0000290DBE7FFE7049801300490C1E740F681
:1036D0001001C4F201014FF4805008600AB0B0BD7F
:1036E000B0B588B09E460B4684460C9C0E980D994A
:1036F0000794CDF818E0ADF816C0ADF81430049278
:10370000ADF80E10ADF80C00FFE704980078002823
:1037100047D0FFE7BDF816009DF818100844B0F533
:10372000A07F1DDBFFE70020ADF816009DF8191003
:10373000BDF814000844ADF81400BDF814009DF85D
:1037400019100844F02801DBFFE72AE0049800780C
:10375000202804D1FFE7049801300490D5E7FFE763
:10376000BDF81600BDF81410049A1278BDF80E408A
:10377000BDF80C50069BDDF81CC0EE46CEF8085094
:10378000CEF80440CEF800C0FFF72AFF9DF81810CD
:10379000BDF816000844ADF81600049801300490F6
:1037A000B3E708B0B0BD000081B08DF8030040F66B
:1037B0001401C4F201014FF4806008604FF480509E
:1037C00008609DF8030043F60C01C4F20001087084
:1037D000FFE743F60800C4F20000008880070028D5
:1037E00001D4FFE7F5E7FFE743F60800C4F2000065
:1037F00000880006002801D5FFE7F5E740F6100134
:10380000C4F201014FF48050086001B0704700001D
:1038100081B08DF8030040F61001C4F201014FF4AD
:103820008060086040F61401C4F201014FF480503A
:1038300008609DF8030043F60C01C4F20001087013
:10384000FFE743F60800C4F2000000888007002864
:1038500001D4FFE7F5E7FFE743F60800C4F20000F4
:1038600000880006002801D5FFE7F5E740F61001C3
:10387000C4F201014FF48050086001B070470000AD
:1038800080B586B040F2CC01C2F200010020087081
:10389000FFF734FB40F24A10C2F200000088FEF746
:1038A00079F8FEF775FF28200B21FDF785FF41F61B
:1038B000C860C2F200000078C007B0B9FFE740F26C
:1038C0002800C2F2000003684068694600228A604E
:1038D0004FF4FC624A6008604BF6E072C0F60002EA
:1038E0002E206C21FFF7FCFE15E040F22800C2F20A
:1038F000000003684068694600228A604FF4FC6259
:103900004A6008604BF6E272C0F600022E206C217D
:10391000FFF7E6FEFFE700F019FC00F08BFB40F23A
:103920002800C2F200000390036840686946002244
:1039300004928A604FF6FF7205924A6008604CF26A
:103940001E12C0F600022E209021FFF7C9FE039838
:10395000DDF810C0059A036840686946C1F808C0E0
:103960004A6008604CF21312C0F600023620AA2109
:10397000FFF7B6FE06B080BD41F21C01C4F20201A1
:10398000086840F0010008602821C4F2000100200E
:1039900008802C21C4F2000140F2FF3008801C2175
:1039A000C4F20001088840F4C0400880088840F450
:1039B000006008802021C4F20001088840F4805093
:1039C00008804FF08041088840F080000880088817
:1039D00040F0010008804021C4F20001642008800A
:1039E0007047000041F21C01C4F20201086840F077
:1039F0000200086040F22841C4F200010020088063
:103A000040F22C41C4F2000140F2FF30088040F245
:103A10001C41C4F20001088840F4D040088040F204
:103A20002041C4F20001088840F48050088040F230
:103A30000041C4F20001088840F00100088070478E
:103A400083B0029002980068019041F27230C2F295
:103A500000000088B0F5806F1FDAFFE741F2723195
:103A6000C2F20001088801300880019AD01740F2A4
:103A70004821C2F200010A60486040F25021C2F2BF
:103A8000000100204860086040F25821C2F20001A5
:103A9000486008600299086058E0DDF804C04FEA09
:103AA000EC7340F24820C2F2000002684168BCEBAF
:103AB000020C8B414FEA1C1C4CEA037C12EB0C02FB
:103AC00041EB23110260416001680198401A0190A6
:103AD000DDF804C04FEAEC7340F25020C2F200005F
:103AE00002684168BCEB020C8B414FEA1C1C4CEA9B
:103AF000037C12EB0C0241EB231102604160016870
:103B00000198401A0190DDF804C04FEAEC7340F2CE
:103B10005820C2F2000002684168BCEB020C8B41E5
:103B20004FEA1C1C4CEA037C12EB0C0241EB231104
:103B30000260416001680198401A0190019800F309
:103B40000F000090009802990860FFE703B07047EB
:103B500086B00490039142F62440C4F2010000882C
:103B6000ADF80A00BDF90A0040F2B211C2F200013C
:103B7000B1F90010401A00EB90708008ADF8080011
:103B8000BDF9080020B9FFE700208DF8170037E0E5
:103B900004980068BDF90820D117039B5943E2FB44
:103BA0000301019100900198B0F1FF3F04DCFFE7B1
:103BB000002001900090FFE70099019840F6016213
:103BC000C0F22772891A70F1000008DBFFE70020BD
:103BD000019040F60060C0F227700090FFE7009867
:103BE00004990860BDF8082040F2B211C2F2000149
:103BF000088800EB8200088001208DF81700FFE79D
:103C00009DF8170006B07047B0B58FB00E900D91BB
:103C10000C9240F65C54C2F2000420680B9040F60F
:103C2000605EC2F2000EDEF800000A9040F6645CAE
:103C3000C2F2000CDCF80000099041F6B863C2F251
:103C400000031868089041F6BC62C2F200021068D6
:103C5000079041F6C061C2F20001086806900E9814
:103C6000851C0E9505880B9828440B900B9D0A988F
:103C700028440A900A9D0998284409900E98851CAA
:103C80000E950588089828440890089D07982844B0
:103C90000790079D0698284406900E98851C0E955F
:103CA00005880B9828440B900B9D0A9828440A908D
:103CB0000A9D0998284409900E98851C0E95058840
:103CC000089828440890089D079828440790079D65
:103CD0000698284406900E98851C0E9505880B982A
:103CE00028440B900B9D0A9828440A900A9D099835
:103CF000284409900E98851C0E950588089828443C
:103D00000890089D079828440790079D0698284426
:103D100006900E98851C0E9505880B9828440B90EC
:103D20000B9D0A9828440A900A9D099828440990F6
:103D30000E98851C0E950588089828440890089DC3
:103D4000079828440790079D0698284406900E98E7
:103D5000851C0E9505880B9828440B900B9D0A989E
:103D600028440A900A9D0998284409900E98851CB9
:103D70000E950588089828440890089D07982844BF
:103D80000790079D0698284406900E98851C0E956E
:103D900005880B9828440B900B9D0A9828440A909C
:103DA0000A9D0998284409900E98851C0E9505884F
:103DB000089828440890089D079828440790079D74
:103DC0000698284406900E98851C0E9505880B9839
:103DD00028440B900B9D0A9828440A900A9D099844
:103DE000284409900E98851C0E950588089828444B
:103DF0000890089D079828440790079D0698284436
:103E000006900E98851C0E9505880B9828440B90FB
:103E10000B9D0A9828440A900A9D09982844099005
:103E20000E98851C0E950588089828440890089DD2
:103E3000079828440790079D0698284406900B98F9
:103E400020600A98CEF800000998CCF80000089885
:103E500018600798106006980860099840F650515D
:103E6000C2F200010A68801A059009980860059856
:103E700040F65451C2F200010A68801A0490059875
:103E80000860049840F65851C2F200010A68801A8E
:103E9000039004980860069841F6AC61C2F20001F4
:103EA0000A68801A029006980860029841F6B0618C
:103EB000C2F200010A68801A019002980860019815
:103EC00041F6B461C2F200010A68801A00900198BC
:103ED00008600398A0F5801080090D99088000986B
:103EE000A0F5801080090C9908800FB0B0BD0000CB
:103EF00040F61441C4F20101086840F48060086093
:103F000040F61041C4F20101086840F40060086006
:103F100042F20842C4F2010210684FF6FD71CFF67A
:103F2000BF71084010600823C4F20203186820F033
:103F30000100186040F60001C4F20001088820F07A
:103F40000100088042F2344CC4F2010C0420CCF889
:103F5000000042F6340CC4F2010C0520CCF800003D
:103F600040F20C0CC4F2020C1020CCF8000040F21D
:103F7000040CC4F2020C0120CCF8000040F21C4CEE
:103F8000C4F2000CBCF8000020F4E040ACF80000E3
:103F9000BCF8000040F4D040ACF8000040F23440DF
:103FA000C4F20000008840F2404CC4F2000CACF8AF
:103FB000000040F2204CC4F2000CBCF8000020F0DD
:103FC0000100ACF80000BCF8000040F48050ACF8F0
:103FD0000000186840F001001860106840F002000E
:103FE000106040F2A453C2F200030020188040F297
:103FF000A053C2F20003188040F2A253C2F20003A1
:10400000188040F64C53C2F20003187040F64D532E
:10401000C2F20003187042F2DC03C2F2000318700F
:10402000106840F480001060088840F001000880AB
:104030007047000080B58AB041F29941C2F2000198
:10404000002088604860086040F2CC00C2F20000A6
:104050000078C007E0BBFFE740F22000C2F200009A
:1040600003684068694600228A604FF4FC624A6037
:1040700008604CF20D12C0F600022E20522107916A
:10408000FFF72EFB079940F2CD00C2F20000089026
:10409000027840F20810C2F2000050F8222082207C
:1040A000FEF7D0F90898017840F2E400C2F200006F
:1040B000099050F821204E206C21FEF759FA0899FA
:1040C0000998097850F82100800002F0ADFF3BE02C
:1040D00040F22000C2F200000368406869460022F6
:1040E0008A604FF4FC624A6008604CF20712C0F626
:1040F00000022E2052210491FFF7F2FA049940F2B7
:10410000CD00C2F200000590027840F2E400C2F255
:10411000000050F822208220FEF794F905980178DB
:1041200040F20810C2F20000069050F821204E2004
:104130006C21FEF71DFA05990698097850F82100C0
:10414000800002F071FFFFE70AB080BD80B584B047
:1041500040F22000C2F20000036840686A46002175
:1041600091604FF4FC6CC2F804C010604CF2FF0286
:10417000C0F600022E20FFF7B3FA40F2CD00C2F2E3
:104180000000007801460391082800F2CE800399D0
:10419000DFE801F0051B31475D73899FB50040F2F0
:1041A0002000C2F20000036840686A460021916066
:1041B0004FF4FC6CC2F804C010604CF23812C0F628
:1041C00000027B20FFF78CFAAFE040F22000C2F241
:1041D0000000036840686A46002191604FF4FC6C5F
:1041E000C2F804C010604CF23D12C0F600027B2001
:1041F000FFF776FA99E040F22000C2F2000003686F
:1042000040686A46002191604FF4FC6CC2F804C01B
:1042100010604CF23412C0F600027B20FFF760FA07
:1042200083E040F22000C2F20000036840686A4662
:10423000002191604FF4FC6CC2F804C010604CF295
:104240003012C0F600027B20FFF74AFA6DE040F220
:104250002000C2F20000036840686A4600219160B5
:104260004FF4FC6CC2F804C010604CF22C12C0F683
:1042700000027B20FFF734FA57E040F22000C2F240
:104280000000036840686A46002191604FF4FC6CAE
:10429000C2F804C010604CF24912C0F600027B2044
:1042A000FFF71EFA41E040F22000C2F2000003686E
:1042B00040686A46002191604FF4FC6CC2F804C06B
:1042C00010604CF24512C0F600027B20FFF708FA9E
:1042D0002BE040F22000C2F20000036840686A460A
:1042E000002191604FF4FC6CC2F804C010604CF2E5
:1042F0004112C0F600027B20FFF7F2F915E040F210
:104300002000C2F20000036840686A460021916004
:104310004FF4FC6CC2F804C010604CF22812C0F6D6
:1043200000027B20FFF7DCF9FFE704B080BD00004E
:1043300041F21C01C4F20201086840F480400860A8
:1043400043F60001C4F20001088840F4417008807F
:1043500043F60402C4F200024FF4E06010800888C3
:1043600040F040000880704741F27430C2F2000013
:104370000078E0B9FFE741F27431C2F20001012098
:1043800008704EF21401CEF200014FF6FF00C0F2A9
:10439000150008604EF21801CEF2000100200860FE
:1043A0004EF21001CEF2000107200860FFE77047CF
:1043B00080B582B0FDF732FF8DF807009DF8070049
:1043C00000283FD0FFE741F27530C2F200000078CC
:1043D00060B9FFE741F6A841C2F200010020088061
:1043E00041F27631C2F20001087023E041F6A840A4
:1043F000C2F200000088312808DCFFE741F6A8413E
:10440000C2F2000108880130088012E041F27630E3
:10441000C2F20000007858B9FFE79DF80700FCF7EA
:104420001BF941F27631C2F2000101200870FFE76A
:10443000FFE7FFE79DF8070041F27531C2F2000186
:10444000087031E041F27530C2F20000007880B1AE
:10445000FFE741F27630C2F20000007840B9FFE792
:1044600041F27530C2F200000078FCF7D1FAFFE7A4
:10447000FFE74EF21001CEF200010020086041F289
:104480007531C2F20001087041F27431C2F20001CC
:10449000087041F6A841C2F20001088041F276316D
:1044A000C2F200010870FFE702B080BD80B582B0A3
:1044B00042F20001C4F20201086840F00200086004
:1044C00041F20001C4F20201086840F48030086043
:1044D000FFE741F20000C4F20200006880030028F8
:1044E00002D4FFE700BFF4E741F20401C4F2020185
:1044F000086848F20042C0F21D0210430860FCF751
:10450000A7FF41F20001C4F20201086840F0807088
:104510000860FFE741F20000C4F202000068800179
:10452000002802D4FFE700BFF4E741F20401C4F21F
:104530000201086840F0020008604EF21401CEF259
:10454000000141F64010C0F2010008604EF2100177
:10455000CEF20001086840F0070008604FF0FF301D
:1045600001900F2100F0F2F9019800F0D7F902B0A4
:1045700080BD000041F20002C4F20202106840F067
:104580000100106041F20401C4F202010868002336
:10459000CFF6FF031840086010684FF6FF73CFF6A0
:1045A000F66318401060106820F4802010600868DE
:1045B00020F4FE00086041F20801C4F202014FF449
:1045C0001F0008604EF60851CEF200014FF0006067
:1045D0000860704741F21801C4F20201086840F611
:1045E00005021043086040F60402C4F2010210689C
:1045F00020F003001060106840F0080010601068A0
:1046000020F00400106040F60C01C4F201010868BB
:1046100040F480700860106820F03000106010686E
:1046200040F080001060106820F0400010600868C2
:1046300040F40070086042F61841C4F20101088895
:104640004FF6FC4210400880088840F201121043E7
:10465000088008884FF2F0021043088042F60841B3
:10466000C4F20101088820F007000880088840F0A3
:104670000300088042F62C41C4F201014FF6FF709E
:10468000088042F60041C4F20101088840F00100B0
:104690000880704780B582B040F61000C4F2000078
:1046A0000088C00700287ED0FFE740F61001C4F262
:1046B0000001088820F00100088040F2A050C2F2FA
:1046C0000000008880282EDBFFE740F64D50C2F244
:1046D00000000078C00730B3FFE740F2B410C2F228
:1046E000000040F67051C2F2000141F2A862C2F22D
:1046F00000028023019300F0A1F9019B40F6405095
:10470000C2F2000041F27011C2F2000141F2A8426F
:10471000C2F2000202F00EF840F64D51C2F2000162
:10472000002008703EE040F2A050C2F20000008875
:104730007F2836DCFFE740F64D50C2F200000078DB
:10474000C00770BBFFE740F67050C2F2000000F5F2
:10475000007141F2A860C2F2000000F5007240F260
:10476000B410C2F200008023009300F067F9009BB0
:1047700041F27010C2F2000000F5807141F2A840D1
:10478000C2F2000000F5807240F64050C2F2000014
:1047900001F0D0FF40F64D51C2F200010120087037
:1047A000FFE7FFE7FFE702B080BD000080B582B001
:1047B00041F21C01C4F20201086840F004000860E4
:1047C00040F62801C4F2000141F27F40088040F623
:1047D0002C01C4F200017F20088040F60C01C4F2D5
:1047E0000001088840F0010008801E20019001218E
:1047F00000F0ACF8019800F091F802B080BD000024
:1048000040F61441C4F20101086840F400600860F9
:1048100040F61041C4F20101086840F4806008606D
:1048200042F20841C4F2010108684FF6FD72CFF66A
:10483000BF72104008600822C4F20202106820F023
:104840000100106042F23443C4F2010304201860F6
:1048500042F63403C4F20103072018600C23C4F2AB
:104860000203102018600423C4F202030120186020
:1048700040F21843C4F20003188820F0700018803A
:10488000188840F06800188040F24040C4F20000F0
:10489000008840F23443C4F20003188040F2204301
:1048A000C4F20003188820F480501880188840F063
:1048B00001001880106840F001001060086840F0A6
:1048C0000200086040F2A452C2F2000200201080F0
:1048D00040F2A052C2F20002108040F2A252C2F294
:1048E0000002108040F64C52C2F20002107040F6F6
:1048F0004D52C2F20002107042F2DC02C2F200021B
:104900001070086840F48000086040F60001C4F2AE
:104910000001088840F001000880704781B08DF8E0
:1049200003009DF9030000280ED4FFE79DF9031052
:1049300001F01F02012090404A094EF20011CEF210
:10494000000141F82200FFE701B0704782B08DF806
:10495000070000919DF9070000280AD4FFE700989E
:1049600000019DF907104EF20042CEF20002885479
:104970000BE0009800019DF8071001F00F014EF6C2
:104980001452CEF200028854FFE702B070470000D4
:1049900084B0039045F6EF00ADF80A0000200190C6
:1049A000FFE70198FF2825DCFFE7019941F6D46075
:1049B000C2F2000030F9111042F21072514300911E
:1049C0000399019A31F91210BDF80A20009B01FBEE
:1049D000023100910099C90B019A20F81210019A36
:1049E00030F81200039921F81200FFE70198013016
:1049F0000190D6E704B0704780B586B08446089829
:104A0000CDF814C08DF81310039202938DF80700AF
:104A10009DF81300059908609DF807000599087333
:104A200003980599886002989DF813100901FBF717
:104A3000AAFC02980599486006B080BD98B017900E
:104A40001691159214931698139015981290179822
:104A5000406811901798806810901798007B01307B
:104A600003900398C0F1200002901798006800900E
:104A7000FFE71098011D109100680D901098011D1E
:104A8000109100680C901098011D109100680B9017
:104A90001098011D109100680A901098011D109146
:104AA0000068099011980068089011984068079074
:104AB0001198806806901198C0680590149801902C
:104AC000FFE70198002843D0FFE71398011D1391D9
:104AD000006804900D9A049B0C98089980FB0101D2
:104AE000C2FB03010B9A079BC2FB03010A9A069BB8
:104AF000C2FB0301099A059BC2FB03010F910E90B3
:104B00000E980F9A0299C840C1F1200302FA03F3EC
:104B10001843A1F1200342FA03FC002B58BF604662
:104B200042FA01F1002B58BFD1170F910E900E9849
:104B300012990A1D1292086008980790049808902C
:104B4000069805900E980690019801380190B8E7F4
:104B5000089811990A1D11920860079811990A1D69
:104B600011920860069811990A1D11920860059823
:104B700011990A1D119208601598139015981290BA
:104B8000009801380090FFE7009800287FF471AF8B
:104B9000FFE718B07047000086B00590ADF812101E
:104BA000039200200090FFE70098BDF812108842A1
:104BB00045D2FFE70398009930F811008008ADF85E
:104BC0000A000398009900EB410040888008ADF886
:104BD00008000598BDF80A1030F81100ADF806007D
:104BE0000599BDF8080031F81000BDF80A2021F839
:104BF0001200BDF806000599BDF8082021F8120042
:104C00000598BDF80A1000EB41004088ADF8060099
:104C10000599BDF8080001EB40004088BDF80A2066
:104C200001EB42014880BDF806000599BDF8082057
:104C300001EB42014880009802300090B4E706B0D2
:104C40007047000082B0019000208DF80300019AA7
:104C50004FF480711180019948604BF2C450C0F646
:104C600000008189019A91818168019A9160406870
:104C7000019948609DF9030002B0704780B586B085
:104C8000059004918DF80F208DF80E30059800885E
:104C900002909DF80F0001283AD1FFE70298019099
:104CA000102825D0FFE70198202829D0FFE7019898
:104CB00040281DD0FFE70198802821D0FFE7019808
:104CC000B0F5807F14D0FFE70198B0F5007F17D0D2
:104CD000FFE70198B0F5806F0AD0FFE70198B0F5C3
:104CE000006F0DD0FFE70198B0F5805F0FD1FFE7AF
:104CF00004980299059A5268012300F0EFFA06E041
:104D000004980299059A526800F04AF8FFE739E0E2
:104D100002980090102825D0FFE70098202829D07D
:104D2000FFE7009840281DD0FFE70098802821D099
:104D3000FFE70098B0F5807F14D0FFE70098B0F54A
:104D4000007F17D0FFE70098B0F5806F0AD0FFE72B
:104D50000098B0F5006F0DD0FFE70098B0F5805FC8
:104D60000FD1FFE704980299059A5268012300F0D9
:104D700075FF06E004980299059A526800F0FEF863
:104D8000FFE7FFE79DF80E0038B1FFE70498059AAA
:104D900091899268FFF700FFFFE706B080BD000031
:104DA00080B58CB00B900A9109920A984008079040
:104DB00000200890FFE708980799884272D2FFE721
:104DC0000998089930F82100ADF80A000998089967
:104DD00000EB81004088ADF8080008980799084466
:104DE00004900B99089831F920004008049A31F991
:104DF0002210A0EB5100ADF80E000B99089A31F982
:104E000022004008049B31F9233000EB5300400896
:104E100021F822000B99089801EB8000B0F90200FC
:104E20004008049A01EB8201B1F90210A0EB510095
:104E3000ADF80C000B99049801EB8000B0F902006A
:104E40004008089A01EB8201B1F9022000EB520000
:104E500040084880BDF90E00BDF90A104843000C17
:104E6000BDF90C10BDF908205143A0EB11400B997E
:104E7000049A21F82200BDF90C00BDF90A1048433C
:104E8000000CBDF90E10BDF90820514300EB114094
:104E90000B99049A01EB82014880FFE708980130E2
:104EA000089088E70B980799099A0223019300F06C
:104EB00015FA019B0B980A9900EB41000799099A92
:104EC00000F00CFA0A984008079000200890FFE7CD
:104ED0000898079988424FD2FFE70B98089930F855
:104EE0003100ADF81A000B98089900EBC10040881A
:104EF000ADF818000B98089900EBC1008088ADF858
:104F000016000B98089900EBC100C088ADF814009A
:104F1000BDF81A004000ADF81A00BDF818004000B6
:104F2000ADF81800BDF816004000ADF81600BDF849
:104F300014004000ADF81400BDF81A000B99089A4F
:104F400021F83200BDF818000B99089A01EBC20154
:104F50004880BDF816000B99089A01EBC2018880C1
:104F6000BDF814000B99089A01EBC201C880FFE755
:104F7000089801300890ABE70CB080BD80B58CB0CC
:104F80000B900A9109920A98400807900020089017
:104F9000FFE708980799884272D2FFE709980899B5
:104FA00030F82100ADF80A000998089900EB81005B
:104FB0004088ADF8080008980799084404900B99B8
:104FC000089831F920004008049A31F92210A0EB2A
:104FD0005100ADF80E000B99089A31F922004008F3
:104FE000049B31F9233000EB5300400821F82200E4
:104FF0000B99089801EB8000B0F902004008049A70
:1050000001EB8201B1F90210A0EB5100ADF80C00E8
:105010000B99049801EB8000B0F902004008089A4F
:1050200001EB8201B1F9022000EB520040084880F8
:10503000BDF90E00BDF90A104843000CBDF90C1073
:10504000BDF90820514300EB11400B99049A21F857
:105050002200BDF90C00BDF90A104843000CBDF94F
:105060000E10BDF908205143A0EB11400B99049A92
:1050700001EB82014880FFE708980130089088E73B
:105080000B980799099A0223019300F0E7FD019B11
:105090000B980A9900EB41000799099A00F0DEFD90
:1050A0000A984008079000200890FFE708980799A1
:1050B00088424FD2FFE70B98089930F83100ADF8DD
:1050C0001A000B98089900EBC1004088ADF8180051
:1050D0000B98089900EBC1008088ADF816000B987A
:1050E000089900EBC100C088ADF81400BDF81A00A3
:1050F0004000ADF81A00BDF818004000ADF81800E7
:10510000BDF816004000ADF81600BDF814004000D0
:10511000ADF81400BDF81A000B99089A21F8320076
:10512000BDF818000B99089A01EBC2014880BDF840
:1051300016000B99089A01EBC2018880BDF8140093
:105140000B99089A01EBC201C880FFE7089801306B
:105150000890ABE70CB080BD80B590B00F900F9871
:105160004FF68311C3F6226103F0D8FA4FF07A515B
:1051700003F090F80C900C9803F020FA08900C982B
:10518000002103F004F920B9FFE7089801380890DE
:10519000FFE70C980690089803F02CFA0146069851
:1051A00003F0C2FB0C900C984FF0884103F0B6FA64
:1051B0000790079803F002FAADF82E00BDF82E0014
:1051C000B0F5007F0ADBFFE70020ADF82E0007985E
:1051D0004FF0444103F05EF80790FFE70798019015
:1051E000BDF82E0003F01EFA0146019803F09CFB67
:1051F0000D90BDF82E104BF2DC70C0F6000050F898
:1052000021100A91BDF82E1000EB81004068099032
:105210000D9902914FF07E5003F086FB01460298F3
:1052200004910A990391099903F078FA03990246C7
:105230000498059203F072FA059903F02BF80E908A
:105240000E9810B080BD000080B586B0DDF820C09B
:105250000590ADF8121003920293BDF81200059963
:1052600008800398059988600298BDF81220089973
:105270000A446FF0010101EB4201FBF762F802986A
:105280000599486000208DF807009DF9070006B0D9
:1052900080BD000080B586B005900491039205980A
:1052A000019003980290FFE70298A0B1FFE70198F0
:1052B000011D019100684FF08E4103F02FFA03F0B9
:1052C0007DF900F30F0004998A1C0492088002986B
:1052D00001380290E8E706B080BD000095B0149058
:1052E00013911292119313980790079808900798BA
:1052F0008008079000200690059007980190FFE72E
:105300000598079908440490049807990844039065
:1053100003980799084402901498059930F92100E0
:105320008008ADF83A001498059900EB8100B0F9B7
:1053300002008008ADF838001498039930F9210074
:105340008008ADF83E001498039900EB8100B0F995
:1053500002008008ADF83C00BDF93A00BDF93E10EE
:10536000084400F30F00ADF84200BDF93800BDF964
:105370003C10084400F30F00ADF84000BDF93A00BE
:10538000BDF93E10401A00F30F00ADF83E00BDF924
:105390003800BDF93C10401A00F30F00ADF83C0096
:1053A0001498049930F921008008ADF83A00149857
:1053B000049900EB8100B0F902008008ADF83800D4
:1053C0001498029930F921008008ADF8360014983D
:1053D000029900EB8100B0F902008008ADF83400BA
:1053E000BDF93A00BDF93610084400F30F00ADF8DE
:1053F0003A00BDF93800BDF93410084400F30F003D
:10540000ADF83800BDF942004008BDF93A1000EB94
:1054100051001499059A21F82200BDF94000400876
:10542000BDF9381000EB51001499059A01EB820187
:105430004880BDF94200BDF93A10401A00F30F0050
:10544000ADF84200BDF94000BDF93810401A00F334
:105450000F00ADF840001298069930F83100ADF811
:105460002E001298069900EBC1004088ADF82C0080
:10547000BDF92E00BDF9421000FB01F2BDF92C0070
:10548000BDF9401000FB1120000CADF82600BDF95D
:105490002C00BDF94210BDF92E20BDF940305A4311
:1054A00000FB0120000CADF824001498049930F999
:1054B00021008008ADF83A001498049900EB8100AF
:1054C000B0F902008008ADF83800BDF82600149944
:1054D000049A21F82200BDF824001499049A01EBE3
:1054E000820148801498029930F921008008ADF8B3
:1054F00036001498029900EB8100B0F90200800890
:10550000ADF83400BDF93A00BDF93610401A00F389
:105510000F00ADF83A00BDF93800BDF93410401A5B
:1055200000F30F00ADF83800BDF93E00BDF93810AA
:10553000084400F30F00ADF84200BDF93C00BDF98E
:105540003A10401A00F30F00ADF84000BDF93E00DC
:10555000BDF93810401A00F30F00ADF83E00BDF958
:105560003C00BDF93A10084400F30F00ADF83C00D0
:105570001298069930F82100ADF832001298069979
:1055800000EB81004088ADF83000BDF93200BDF974
:105590003E1000FB01F2BDF93000BDF93C1000FBEC
:1055A0001120000CADF82600BDF93000BDF93E1009
:1055B000BDF93220BDF93C305A4300FB0120000CFC
:1055C000ADF82400BDF826001499039A21F82200B2
:1055D000BDF824001499039A01EB820148801298C7
:1055E000069901EB410130F82100ADF82A0012982C
:1055F000069901EB410100EB81004088ADF82800DD
:10560000BDF92A00BDF9421000FB01F2BDF92800E6
:10561000BDF9401000FB1120000CADF82600BDF9CB
:105620002800BDF94210BDF92A20BDF940305A4387
:1056300000FB0120000CADF82400BDF826001499F1
:10564000029A21F82200BDF824001499029A01EB75
:105650008201488006981199084406900598013007
:105660000590FFE701980138019000287FF448AECB
:10567000FFE7119880001190139880080090FFE7D1
:1056800000980528C0F0CB81FFE70798089007989D
:1056900080080790002006900190FFE70198079985
:1056A0000139884200F2B381FFE71298069930F879
:1056B0002100ADF832001298069900EB8100408875
:1056C000ADF830001298069930F83100ADF82E0090
:1056D0001298069900EBC1004088ADF82C00129892
:1056E000069901EB410130F82100ADF82A0012982B
:1056F000069901EB410100EB81004088ADF82800DC
:10570000069811990844069001980590FFE70598BE
:105710001399884280F07681FFE70598079908443D
:105720000490049807990844039003980799084443
:1057300002901498059930F82100ADF83A001498B9
:10574000059900EB81004088ADF838001498039962
:1057500030F82100ADF83E001498039900EB810069
:105760004088ADF83C00BDF93A00BDF93E10084450
:1057700000F30F00ADF84200BDF93800BDF93C1050
:10578000084400F30F00ADF84000BDF93A00BDF940
:105790003E10401A00F30F00ADF83E00BDF938008E
:1057A000BDF93C10401A00F30F00ADF83C0014980E
:1057B000049930F82100ADF83A001498049900EBF0
:1057C00081004088ADF838001498029930F8210023
:1057D000ADF836001498029900EB81004088ADF8CE
:1057E0003400BDF93A00BDF93610084400F30F004B
:1057F000ADF83A00BDF93800BDF93410084400F3A3
:105800000F00ADF83800BDF942004008BDF93A106C
:1058100000EB510040081499059A21F82200BDF9C7
:1058200040004008BDF9381000EB510040081499C1
:10583000059A01EB82014880BDF942004008BDF99C
:105840003A10A0EB5100ADF84200BDF9400040080D
:10585000BDF93810A0EB5100ADF84000BDF92E00A5
:10586000BDF9421000FB01F2BDF92C00BDF940105A
:1058700000FB1120000CADF82600BDF92C00BDF98D
:105880004210BDF92E20BDF940305A4300FB0120E3
:10589000000CADF824001498049930F82100ADF8FC
:1058A0003A001498049900EB81004088ADF8380064
:1058B000BDF826001499049A21F82200BDF82400AE
:1058C0001499049A01EB820148801498029930F8E7
:1058D0002100ADF836001498029900EB8100408851
:1058E000ADF83400BDF93A00BDF93610401A00F3A6
:1058F0000F00ADF83A00BDF93800BDF93410401A78
:1059000000F30F00ADF83800BDF93E004008BDF9C6
:10591000381000EB5100ADF84200BDF93C004008E2
:10592000BDF93A10A0EB5100ADF84000BDF93E00C2
:105930004008BDF93810A0EB5100ADF83E00BDF9AC
:105940003C004008BDF93A1000EB5100ADF83C00B6
:10595000BDF93200BDF93E1000FB01F2BDF9300087
:10596000BDF93C1000FB1120000CADF82600BDF97C
:105970003000BDF93E10BDF93220BDF93C305A432C
:1059800000FB0120000CADF82400BDF8260014999E
:10599000039A21F82200BDF824001499039A01EB20
:1059A00082014880BDF92A00BDF9421000FB01F2D6
:1059B000BDF92800BDF9401000FB1120000CADF826
:1059C0002600BDF92800BDF94210BDF92A20BDF915
:1059D00040305A4300FB0120000CADF82400BDF814
:1059E00026001499029A21F82200BDF82400149987
:1059F000029A01EB82014880FFE708990598084464
:105A0000059084E6FFE701980130019046E6119881
:105A100080001190FFE700988008009030E607981A
:105A2000089007988008079000200590FFE70598E8
:105A30001399089A891A884200F20D81FFE70598A8
:105A40000799084404900498079908440390039820
:105A50000799084402901498059930F82100ADF890
:105A60003A001498059900EB81004088ADF83800A1
:105A70001498039930F82100ADF83E00149803996A
:105A800000EB81004088ADF83C00BDF93A00BDF95B
:105A90003E10084400F30F00ADF84200BDF9380095
:105AA000BDF93C10084400F30F00ADF84000BDF90B
:105AB0003A00BDF93E10401A00F30F00ADF83E0069
:105AC000BDF93800BDF93C10401A00F30F00ADF8E5
:105AD0003C001498049930F82100ADF83A0014986D
